{"contracts/typingGae.sol":{"TypingLeaderboardNFT":{"abi":[{"inputs":[{"internalType":"string","name":"name_","type":"string"},{"internalType":"string","name":"symbol_","type":"string"},{"internalType":"address","name":"newOwner_","type":"address"},{"internalType":"uint256","name":"lsp4TokenType_","type":"uint256"},{"internalType":"uint256","name":"lsp8TokenIdFormat_","type":"uint256"},{"internalType":"string","name":"secretCode_","type":"string"},{"internalType":"string[]","name":"metadataURIs_","type":"string[]"}],"stateMutability":"nonpayable","type":"constructor"},{"inputs":[],"name":"ERC725Y_DataKeysValuesEmptyArray","type":"error"},{"inputs":[],"name":"ERC725Y_DataKeysValuesLengthMismatch","type":"error"},{"inputs":[],"name":"ERC725Y_MsgValueDisallowed","type":"error"},{"inputs":[{"internalType":"bytes","name":"storedData","type":"bytes"}],"name":"InvalidExtensionAddress","type":"error"},{"inputs":[{"internalType":"bytes","name":"data","type":"bytes"}],"name":"InvalidFunctionSelector","type":"error"},{"inputs":[],"name":"LSP4TokenNameNotEditable","type":"error"},{"inputs":[],"name":"LSP4TokenSymbolNotEditable","type":"error"},{"inputs":[],"name":"LSP4TokenTypeNotEditable","type":"error"},{"inputs":[{"internalType":"uint256","name":"callIndex","type":"uint256"}],"name":"LSP8BatchCallFailed","type":"error"},{"inputs":[],"name":"LSP8CannotSendToAddressZero","type":"error"},{"inputs":[],"name":"LSP8CannotUseAddressZeroAsOperator","type":"error"},{"inputs":[],"name":"LSP8InvalidTransferBatch","type":"error"},{"inputs":[{"internalType":"bytes32","name":"tokenId","type":"bytes32"}],"name":"LSP8NonExistentTokenId","type":"error"},{"inputs":[{"internalType":"address","name":"operator","type":"address"},{"internalType":"bytes32","name":"tokenId","type":"bytes32"}],"name":"LSP8NonExistingOperator","type":"error"},{"inputs":[{"internalType":"bytes32","name":"tokenId","type":"bytes32"},{"internalType":"address","name":"caller","type":"address"}],"name":"LSP8NotTokenOperator","type":"error"},{"inputs":[{"internalType":"address","name":"tokenOwner","type":"address"},{"internalType":"bytes32","name":"tokenId","type":"bytes32"},{"internalType":"address","name":"caller","type":"address"}],"name":"LSP8NotTokenOwner","type":"error"},{"inputs":[{"internalType":"address","name":"tokenReceiver","type":"address"}],"name":"LSP8NotifyTokenReceiverContractMissingLSP1Interface","type":"error"},{"inputs":[{"internalType":"address","name":"tokenReceiver","type":"address"}],"name":"LSP8NotifyTokenReceiverIsEOA","type":"error"},{"inputs":[{"internalType":"address","name":"operator","type":"address"},{"internalType":"bytes32","name":"tokenId","type":"bytes32"}],"name":"LSP8OperatorAlreadyAuthorized","type":"error"},{"inputs":[{"internalType":"address","name":"caller","type":"address"},{"internalType":"address","name":"tokenOwner","type":"address"},{"internalType":"bytes32","name":"tokenId","type":"bytes32"}],"name":"LSP8RevokeOperatorNotAuthorized","type":"error"},{"inputs":[],"name":"LSP8TokenContractCannotHoldValue","type":"error"},{"inputs":[{"internalType":"bytes32","name":"tokenId","type":"bytes32"}],"name":"LSP8TokenIdAlreadyMinted","type":"error"},{"inputs":[],"name":"LSP8TokenIdFormatNotEditable","type":"error"},{"inputs":[],"name":"LSP8TokenIdsDataEmptyArray","type":"error"},{"inputs":[],"name":"LSP8TokenIdsDataLengthMismatch","type":"error"},{"inputs":[],"name":"LSP8TokenOwnerCannotBeOperator","type":"error"},{"inputs":[{"internalType":"bytes4","name":"functionSelector","type":"bytes4"}],"name":"NoExtensionFoundForFunctionSelector","type":"error"},{"inputs":[],"name":"OwnableCannotSetZeroAddressAsOwner","type":"error"},{"anonymous":false,"inputs":[{"indexed":true,"internalType":"bytes32","name":"dataKey","type":"bytes32"},{"indexed":false,"internalType":"bytes","name":"dataValue","type":"bytes"}],"name":"DataChanged","type":"event"},{"anonymous":false,"inputs":[{"indexed":true,"internalType":"enum TypingLeaderboardNFT.Difficulty","name":"difficulty","type":"uint8"},{"indexed":true,"internalType":"address","name":"previousPlayer","type":"address"},{"indexed":false,"internalType":"bytes32","name":"tokenId","type":"bytes32"}],"name":"NFTRevoked","type":"event"},{"anonymous":false,"inputs":[{"indexed":true,"internalType":"enum TypingLeaderboardNFT.Difficulty","name":"difficulty","type":"uint8"},{"indexed":true,"internalType":"address","name":"player","type":"address"},{"indexed":false,"internalType":"bytes32","name":"tokenId","type":"bytes32"}],"name":"NFTRewarded","type":"event"},{"anonymous":false,"inputs":[{"indexed":true,"internalType":"address","name":"operator","type":"address"},{"indexed":true,"internalType":"address","name":"tokenOwner","type":"address"},{"indexed":true,"internalType":"bytes32","name":"tokenId","type":"bytes32"},{"indexed":false,"internalType":"bytes","name":"operatorNotificationData","type":"bytes"}],"name":"OperatorAuthorizationChanged","type":"event"},{"anonymous":false,"inputs":[{"indexed":true,"internalType":"address","name":"operator","type":"address"},{"indexed":true,"internalType":"address","name":"tokenOwner","type":"address"},{"indexed":true,"internalType":"bytes32","name":"tokenId","type":"bytes32"},{"indexed":false,"internalType":"bool","name":"notified","type":"bool"},{"indexed":false,"internalType":"bytes","name":"operatorNotificationData","type":"bytes"}],"name":"OperatorRevoked","type":"event"},{"anonymous":false,"inputs":[{"indexed":true,"internalType":"address","name":"previousOwner","type":"address"},{"indexed":true,"internalType":"address","name":"newOwner","type":"address"}],"name":"OwnershipTransferred","type":"event"},{"anonymous":false,"inputs":[{"indexed":true,"internalType":"enum TypingLeaderboardNFT.Difficulty","name":"difficulty","type":"uint8"},{"indexed":true,"internalType":"address","name":"player","type":"address"},{"indexed":false,"internalType":"uint256","name":"score","type":"uint256"}],"name":"ScoreUpdated","type":"event"},{"anonymous":false,"inputs":[{"indexed":true,"internalType":"bytes32","name":"tokenId","type":"bytes32"},{"indexed":true,"internalType":"bytes32","name":"dataKey","type":"bytes32"},{"indexed":false,"internalType":"bytes","name":"dataValue","type":"bytes"}],"name":"TokenIdDataChanged","type":"event"},{"anonymous":false,"inputs":[{"indexed":false,"internalType":"address","name":"operator","type":"address"},{"indexed":true,"internalType":"address","name":"from","type":"address"},{"indexed":true,"internalType":"address","name":"to","type":"address"},{"indexed":true,"internalType":"bytes32","name":"tokenId","type":"bytes32"},{"indexed":false,"internalType":"bool","name":"force","type":"bool"},{"indexed":false,"internalType":"bytes","name":"data","type":"bytes"}],"name":"Transfer","type":"event"},{"stateMutability":"payable","type":"fallback"},{"inputs":[{"internalType":"address","name":"operator","type":"address"},{"internalType":"bytes32","name":"tokenId","type":"bytes32"},{"internalType":"bytes","name":"operatorNotificationData","type":"bytes"}],"name":"authorizeOperator","outputs":[],"stateMutability":"nonpayable","type":"function"},{"inputs":[{"internalType":"address","name":"tokenOwner","type":"address"}],"name":"balanceOf","outputs":[{"internalType":"uint256","name":"","type":"uint256"}],"stateMutability":"view","type":"function"},{"inputs":[{"internalType":"bytes[]","name":"data","type":"bytes[]"}],"name":"batchCalls","outputs":[{"internalType":"bytes[]","name":"results","type":"bytes[]"}],"stateMutability":"nonpayable","type":"function"},{"inputs":[{"internalType":"enum TypingLeaderboardNFT.Difficulty","name":"","type":"uint8"}],"name":"difficultyMetadataURIs","outputs":[{"internalType":"string","name":"","type":"string"}],"stateMutability":"view","type":"function"},{"inputs":[{"internalType":"bytes32","name":"dataKey","type":"bytes32"}],"name":"getData","outputs":[{"internalType":"bytes","name":"dataValue","type":"bytes"}],"stateMutability":"view","type":"function"},{"inputs":[{"internalType":"bytes32[]","name":"dataKeys","type":"bytes32[]"}],"name":"getDataBatch","outputs":[{"internalType":"bytes[]","name":"dataValues","type":"bytes[]"}],"stateMutability":"view","type":"function"},{"inputs":[{"internalType":"bytes32[]","name":"tokenIds","type":"bytes32[]"},{"internalType":"bytes32[]","name":"dataKeys","type":"bytes32[]"}],"name":"getDataBatchForTokenIds","outputs":[{"internalType":"bytes[]","name":"dataValues","type":"bytes[]"}],"stateMutability":"view","type":"function"},{"inputs":[{"internalType":"bytes32","name":"tokenId","type":"bytes32"},{"internalType":"bytes32","name":"dataKey","type":"bytes32"}],"name":"getDataForTokenId","outputs":[{"internalType":"bytes","name":"dataValue","type":"bytes"}],"stateMutability":"view","type":"function"},{"inputs":[{"internalType":"bytes32","name":"tokenId","type":"bytes32"}],"name":"getOperatorsOf","outputs":[{"internalType":"address[]","name":"","type":"address[]"}],"stateMutability":"view","type":"function"},{"inputs":[{"internalType":"bytes32","name":"tokenId","type":"bytes32"}],"name":"getTokenMetadata","outputs":[{"internalType":"bytes","name":"","type":"bytes"}],"stateMutability":"view","type":"function"},{"inputs":[{"internalType":"address","name":"","type":"address"},{"internalType":"enum TypingLeaderboardNFT.Difficulty","name":"","type":"uint8"}],"name":"hasFirstPlaceNFT","outputs":[{"internalType":"bool","name":"","type":"bool"}],"stateMutability":"view","type":"function"},{"inputs":[{"internalType":"address","name":"operator","type":"address"},{"internalType":"bytes32","name":"tokenId","type":"bytes32"}],"name":"isOperatorFor","outputs":[{"internalType":"bool","name":"","type":"bool"}],"stateMutability":"view","type":"function"},{"inputs":[],"name":"owner","outputs":[{"internalType":"address","name":"","type":"address"}],"stateMutability":"view","type":"function"},{"inputs":[],"name":"renounceOwnership","outputs":[],"stateMutability":"nonpayable","type":"function"},{"inputs":[{"internalType":"address","name":"operator","type":"address"},{"internalType":"bytes32","name":"tokenId","type":"bytes32"},{"internalType":"bool","name":"notify","type":"bool"},{"internalType":"bytes","name":"operatorNotificationData","type":"bytes"}],"name":"revokeOperator","outputs":[],"stateMutability":"nonpayable","type":"function"},{"inputs":[{"internalType":"bytes32","name":"dataKey","type":"bytes32"},{"internalType":"bytes","name":"dataValue","type":"bytes"}],"name":"setData","outputs":[],"stateMutability":"payable","type":"function"},{"inputs":[{"internalType":"bytes32[]","name":"dataKeys","type":"bytes32[]"},{"internalType":"bytes[]","name":"dataValues","type":"bytes[]"}],"name":"setDataBatch","outputs":[],"stateMutability":"payable","type":"function"},{"inputs":[{"internalType":"bytes32[]","name":"tokenIds","type":"bytes32[]"},{"internalType":"bytes32[]","name":"dataKeys","type":"bytes32[]"},{"internalType":"bytes[]","name":"dataValues","type":"bytes[]"}],"name":"setDataBatchForTokenIds","outputs":[],"stateMutability":"nonpayable","type":"function"},{"inputs":[{"internalType":"bytes32","name":"tokenId","type":"bytes32"},{"internalType":"bytes32","name":"dataKey","type":"bytes32"},{"internalType":"bytes","name":"dataValue","type":"bytes"}],"name":"setDataForTokenId","outputs":[],"stateMutability":"nonpayable","type":"function"},{"inputs":[{"internalType":"uint256","name":"score","type":"uint256"},{"internalType":"enum TypingLeaderboardNFT.Difficulty","name":"difficulty","type":"uint8"},{"internalType":"string","name":"secretCode","type":"string"}],"name":"submitScore","outputs":[],"stateMutability":"nonpayable","type":"function"},{"inputs":[{"internalType":"bytes4","name":"interfaceId","type":"bytes4"}],"name":"supportsInterface","outputs":[{"internalType":"bool","name":"","type":"bool"}],"stateMutability":"view","type":"function"},{"inputs":[{"internalType":"address","name":"tokenOwner","type":"address"}],"name":"tokenIdsOf","outputs":[{"internalType":"bytes32[]","name":"","type":"bytes32[]"}],"stateMutability":"view","type":"function"},{"inputs":[{"internalType":"bytes32","name":"tokenId","type":"bytes32"}],"name":"tokenOwnerOf","outputs":[{"internalType":"address","name":"","type":"address"}],"stateMutability":"view","type":"function"},{"inputs":[{"internalType":"enum TypingLeaderboardNFT.Difficulty","name":"","type":"uint8"}],"name":"topScorers","outputs":[{"internalType":"address","name":"player","type":"address"},{"internalType":"uint256","name":"score","type":"uint256"}],"stateMutability":"view","type":"function"},{"inputs":[],"name":"totalSupply","outputs":[{"internalType":"uint256","name":"","type":"uint256"}],"stateMutability":"view","type":"function"},{"inputs":[{"internalType":"address","name":"from","type":"address"},{"internalType":"address","name":"to","type":"address"},{"internalType":"bytes32","name":"tokenId","type":"bytes32"},{"internalType":"bool","name":"force","type":"bool"},{"internalType":"bytes","name":"data","type":"bytes"}],"name":"transfer","outputs":[],"stateMutability":"nonpayable","type":"function"},{"inputs":[{"internalType":"address[]","name":"from","type":"address[]"},{"internalType":"address[]","name":"to","type":"address[]"},{"internalType":"bytes32[]","name":"tokenId","type":"bytes32[]"},{"internalType":"bool[]","name":"force","type":"bool[]"},{"internalType":"bytes[]","name":"data","type":"bytes[]"}],"name":"transferBatch","outputs":[],"stateMutability":"nonpayable","type":"function"},{"inputs":[{"internalType":"address","name":"newOwner","type":"address"}],"name":"transferOwnership","outputs":[],"stateMutability":"nonpayable","type":"function"},{"stateMutability":"payable","type":"receive"}],"evm":{"bytecode":{"linkReferences":{},"object":"60806040523480156200001157600080fd5b5060405162007f6938038062007f69833981810160405281019062000037919062001874565b8686868686848484848162000061620000556200068d60201b60201c565b6200069560201b60201c565b600073ffffffffffffffffffffffffffffffffffffffff168173ffffffffffffffffffffffffffffffffffffffff1603620000c8576040517f1ad8836c00000000000000000000000000000000000000000000000000000000815260040160405180910390fd5b620000d9816200069560201b60201c565b50620001447feafec4d89fa9619884b60000a4d96624a38f7ac2d8d9a604ecf07c12c77e480c60001b6040518060400160405280600481526020017fa4d96624000000000000000000000000000000000000000000000000000000008152506200075960201b60201c565b620001797fdeba1e292f8ba88238e10ab3c7f88bd4be4fac56cad5194b6ecceaf653468af160001b856200075960201b60201c565b620001ae7f2f0a68ab07768e01943a599e73362a0e17a63a72e94dd2e384d2c1d4db93275660001b846200075960201b60201c565b620002047fe0261fa95db2eb3b5439bd033cda66d56b96f92f243a8228fd87550ed7bdfdb360001b82604051602001620001e99190620019b4565b6040516020818303038152906040526200075960201b60201c565b505050506200025e7ff675e9361af1c1664c1868cfa3eb97672d6b1a513aa5b81dec34c9ee330e818d60001b82604051602001620002439190620019b4565b604051602081830303815290604052620007ba60201b60201c565b50505050506003815114620002aa576040517f08c379a0000000000000000000000000000000000000000000000000000000008152600401620002a19062001a32565b60405180910390fd5b81604051602001620002bd919062001aa1565b6040516020818303038152906040528051906020012060098190555080600081518110620002f057620002ef62001aba565b5b60200260200101516008600080600281111562000312576200031162001ae9565b5b600281111562000327576200032662001ae9565b5b8152602001908152602001600020908162000343919062001d4e565b50806001815181106200035b576200035a62001aba565b5b602002602001015160086000600160028111156200037e576200037d62001ae9565b5b600281111562000393576200039262001ae9565b5b81526020019081526020016000209081620003af919062001d4e565b5080600281518110620003c757620003c662001aba565b5b602002602001015160086000600280811115620003e957620003e862001ae9565b5b6002811115620003fe57620003fd62001ae9565b5b815260200190815260200160002090816200041a919062001d4e565b5060005b60038160ff1610156200067f5760008160ff16600281111562000446576200044562001ae9565b5b9050600087827f8c14e706f344a21eb23261ab6a4811d5599e56e890562777a6914925a5951273604051602001620004819392919062001f30565b604051602081830303815290604052805190602001209050620004e3888260016040518060400160405280601781526020017f496e697469616c20466972737420506c616365204e46540000000000000000008152506200093260201b60201c565b620004f5818362000be560201b60201c565b6200051730826040518060200160405280600081525062000cf560201b60201c565b60405180604001604052808973ffffffffffffffffffffffffffffffffffffffff1681526020016000815250600660008460028111156200055d576200055c62001ae9565b5b600281111562000572576200057162001ae9565b5b815260200190815260200160002060008201518160000160006101000a81548173ffffffffffffffffffffffffffffffffffffffff021916908373ffffffffffffffffffffffffffffffffffffffff160217905550602082015181600101559050506001600760008a73ffffffffffffffffffffffffffffffffffffffff1673ffffffffffffffffffffffffffffffffffffffff16815260200190815260200160002060008460028111156200062d576200062c62001ae9565b5b600281111562000642576200064162001ae9565b5b815260200190815260200160002060006101000a81548160ff02191690831515021790555050508080620006769062001faf565b9150506200041e565b5050505050505050620025de565b600033905090565b60008060009054906101000a900473ffffffffffffffffffffffffffffffffffffffff169050816000806101000a81548173ffffffffffffffffffffffffffffffffffffffff021916908373ffffffffffffffffffffffffffffffffffffffff1602179055508173ffffffffffffffffffffffffffffffffffffffff168173ffffffffffffffffffffffffffffffffffffffff167f8be0079c531659141344cd1fd0a4f28419497f9722a3daafe3b4186f6b6457e060405160405180910390a35050565b806001600084815260200190815260200160002090816200077b91906200204d565b50817fece574603820d07bc9b91f2a932baadf4628aabcb8afba49776529c14a6104b282604051620007ae919062002186565b60405180910390a25050565b7fdeba1e292f8ba88238e10ab3c7f88bd4be4fac56cad5194b6ecceaf653468af160001b820362000817576040517f85c169bd00000000000000000000000000000000000000000000000000000000815260040160405180910390fd5b7f2f0a68ab07768e01943a599e73362a0e17a63a72e94dd2e384d2c1d4db93275660001b820362000874576040517f76755b3800000000000000000000000000000000000000000000000000000000815260040160405180910390fd5b7fe0261fa95db2eb3b5439bd033cda66d56b96f92f243a8228fd87550ed7bdfdb360001b8203620008d1576040517f4ef6d7fb00000000000000000000000000000000000000000000000000000000815260040160405180910390fd5b80600160008481526020019081526020016000209081620008f391906200204d565b50817fece574603820d07bc9b91f2a932baadf4628aabcb8afba49776529c14a6104b28260405162000926919062002186565b60405180910390a25050565b600073ffffffffffffffffffffffffffffffffffffffff168473ffffffffffffffffffffffffffffffffffffffff160362000999576040517f24ecef4d00000000000000000000000000000000000000000000000000000000815260040160405180910390fd5b620009aa8362000f6f60201b60201c565b15620009ef57826040517f34c7b511000000000000000000000000000000000000000000000000000000008152600401620009e69190620021bb565b60405180910390fd5b62000a0560008585858562000fdb60201b60201c565b62000a168362000f6f60201b60201c565b1562000a5b57826040517f34c7b51100000000000000000000000000000000000000000000000000000000815260040162000a529190620021bb565b60405180910390fd5b60026000815462000a6c90620021d8565b9190508190555062000ac683600460008773ffffffffffffffffffffffffffffffffffffffff1673ffffffffffffffffffffffffffffffffffffffff16815260200190815260200160002062000fe260201b90919060201c565b50836003600085815260200190815260200160002060006101000a81548173ffffffffffffffffffffffffffffffffffffffff021916908373ffffffffffffffffffffffffffffffffffffffff160217905550828473ffffffffffffffffffffffffffffffffffffffff16600073ffffffffffffffffffffffffffffffffffffffff167fb333c813a7426a7a11e2b190cad52c44119421594b47f6f32ace6d8c7207b2bf33868660405162000b7e9392919062002253565b60405180910390a462000b9c6000858585856200100160201b60201c565b600033600086868560405160200162000bba95949392919062002297565b604051602081830303815290604052905062000bde8584836200100860201b60201c565b5050505050565b60006008600083600281111562000c015762000c0062001ae9565b5b600281111562000c165762000c1562001ae9565b5b8152602001908152602001600020805462000c319062001b47565b80601f016020809104026020016040519081016040528092919081815260200182805462000c5f9062001b47565b801562000cb05780601f1062000c845761010080835404028352916020019162000cb0565b820191906000526020600020905b81548152906001019060200180831162000c9257829003601f168201915b5050505050905060008160405160200162000ccc91906200234a565b604051602081830303815290604052905062000cef84826200118360201b60201c565b50505050565b600062000d0883620011f660201b60201c565b90503373ffffffffffffffffffffffffffffffffffffffff168173ffffffffffffffffffffffffffffffffffffffff161462000d81578083336040517f5b271ea200000000000000000000000000000000000000000000000000000000815260040162000d789392919062002370565b60405180910390fd5b600073ffffffffffffffffffffffffffffffffffffffff168473ffffffffffffffffffffffffffffffffffffffff160362000de8576040517f9577b8b300000000000000000000000000000000000000000000000000000000815260040160405180910390fd5b8373ffffffffffffffffffffffffffffffffffffffff168173ffffffffffffffffffffffffffffffffffffffff160362000e4e576040517f89fdad6200000000000000000000000000000000000000000000000000000000815260040160405180910390fd5b600062000e778560056000878152602001908152602001600020620012ac60201b90919060201c565b90508062000ec05784846040517fa7626b6800000000000000000000000000000000000000000000000000000000815260040162000eb7929190620023ad565b60405180910390fd5b838273ffffffffffffffffffffffffffffffffffffffff168673ffffffffffffffffffffffffffffffffffffffff167f1b1b58aa2ec0cec2228b2d37124556d41f5a1f7b12f089171f896cc2366712158660405162000f20919062002186565b60405180910390a46000338560018660405160200162000f449493929190620023da565b604051602081830303815290604052905062000f678682620012e460201b60201c565b505050505050565b60008073ffffffffffffffffffffffffffffffffffffffff166003600084815260200190815260200160002060009054906101000a900473ffffffffffffffffffffffffffffffffffffffff1673ffffffffffffffffffffffffffffffffffffffff1614159050919050565b5050505050565b600062000ff983600001836200131e60201b60201c565b905092915050565b5050505050565b6200102183636bb56a1460e01b6200139860201b60201c565b15620010d9578273ffffffffffffffffffffffffffffffffffffffff16636bb56a147f0b084a55ebf70fd3c06fd755269dac2212c4d3f0f4d09079780bfa50c1b2984d60001b836040518363ffffffff1660e01b8152600401620010879291906200242e565b6000604051808303816000875af1158015620010a7573d6000803e3d6000fd5b505050506040513d6000823e3d601f19601f82011682018060405250810190620010d2919062002516565b506200117e565b816200117d5760008373ffffffffffffffffffffffffffffffffffffffff163b146200113e57826040517f4349776d00000000000000000000000000000000000000000000000000000000815260040162001135919062002567565b60405180910390fd5b826040517f0317313700000000000000000000000000000000000000000000000000000000815260040162001174919062002567565b60405180910390fd5b5b505050565b7ff675e9361af1c1664c1868cfa3eb97672d6b1a513aa5b81dec34c9ee330e818d60001b8203620011e0576040517f3664800a00000000000000000000000000000000000000000000000000000000815260040160405180910390fd5b620011f28282620007ba60201b60201c565b5050565b6000806003600084815260200190815260200160002060009054906101000a900473ffffffffffffffffffffffffffffffffffffffff169050600073ffffffffffffffffffffffffffffffffffffffff168173ffffffffffffffffffffffffffffffffffffffff1603620012a357826040517fae8f9a360000000000000000000000000000000000000000000000000000000081526004016200129a9190620021bb565b60405180910390fd5b80915050919050565b6000620012dc836000018373ffffffffffffffffffffffffffffffffffffffff1660001b6200131e60201b60201c565b905092915050565b6200131a827f8a1c15a8799f71b547e08e2bcb2e85257e81b0a07eee2ce6712549eef1f0097060001b836200145b60201b60201c565b5050565b60006200133283836200152260201b60201c565b6200138d57826000018290806001815401808255809150506001900390600052602060002001600090919091909150558260000180549050836001016000848152602001908152602001600020819055506001905062001392565b600090505b92915050565b6000806301ffc9a760e01b83604051602401620013b69190620025c1565b604051602081830303815290604052907bffffffffffffffffffffffffffffffffffffffffffffffffffffffff19166020820180517bffffffffffffffffffffffffffffffffffffffffffffffffffffffff838183161783525050505090506000806000602060008551602087018a617530fa92503d9150600051905082801562001442575060208210155b80156200144f5750600081115b94505050505092915050565b6200148d636bb56a1460e01b8473ffffffffffffffffffffffffffffffffffffffff166200139860201b90919060201c565b156200151d578273ffffffffffffffffffffffffffffffffffffffff16636bb56a1483836040518363ffffffff1660e01b8152600401620014d09291906200242e565b6000604051808303816000875af1158015620014f0573d6000803e3d6000fd5b505050506040513d6000823e3d601f19601f820116820180604052508101906200151b919062002516565b505b505050565b600080836001016000848152602001908152602001600020541415905092915050565b6000604051905090565b600080fd5b600080fd5b600080fd5b600080fd5b6000601f19601f8301169050919050565b7f4e487b7100000000000000000000000000000000000000000000000000000000600052604160045260246000fd5b620015ae8262001563565b810181811067ffffffffffffffff82111715620015d057620015cf62001574565b5b80604052505050565b6000620015e562001545565b9050620015f38282620015a3565b919050565b600067ffffffffffffffff82111562001616576200161562001574565b5b620016218262001563565b9050602081019050919050565b60005b838110156200164e57808201518184015260208101905062001631565b60008484015250505050565b6000620016716200166b84620015f8565b620015d9565b90508281526020810184848401111562001690576200168f6200155e565b5b6200169d8482856200162e565b509392505050565b600082601f830112620016bd57620016bc62001559565b5b8151620016cf8482602086016200165a565b91505092915050565b600073ffffffffffffffffffffffffffffffffffffffff82169050919050565b60006200170582620016d8565b9050919050565b6200171781620016f8565b81146200172357600080fd5b50565b60008151905062001737816200170c565b92915050565b6000819050919050565b62001752816200173d565b81146200175e57600080fd5b50565b600081519050620017728162001747565b92915050565b600067ffffffffffffffff82111562001796576200179562001574565b5b602082029050602081019050919050565b600080fd5b6000620017c3620017bd8462001778565b620015d9565b90508083825260208201905060208402830185811115620017e957620017e8620017a7565b5b835b818110156200183757805167ffffffffffffffff81111562001812576200181162001559565b5b808601620018218982620016a5565b85526020850194505050602081019050620017eb565b5050509392505050565b600082601f83011262001859576200185862001559565b5b81516200186b848260208601620017ac565b91505092915050565b600080600080600080600060e0888a0312156200189657620018956200154f565b5b600088015167ffffffffffffffff811115620018b757620018b662001554565b5b620018c58a828b01620016a5565b975050602088015167ffffffffffffffff811115620018e957620018e862001554565b5b620018f78a828b01620016a5565b96505060406200190a8a828b0162001726565b95505060606200191d8a828b0162001761565b9450506080620019308a828b0162001761565b93505060a088015167ffffffffffffffff81111562001954576200195362001554565b5b620019628a828b01620016a5565b92505060c088015167ffffffffffffffff81111562001986576200198562001554565b5b620019948a828b0162001841565b91505092959891949750929550565b620019ae816200173d565b82525050565b6000602082019050620019cb6000830184620019a3565b92915050565b600082825260208201905092915050565b7f4d7573742070726f766964652033206d65746164617461205552497300000000600082015250565b600062001a1a601c83620019d1565b915062001a2782620019e2565b602082019050919050565b6000602082019050818103600083015262001a4d8162001a0b565b9050919050565b600081519050919050565b600081905092915050565b600062001a778262001a54565b62001a83818562001a5f565b935062001a958185602086016200162e565b80840191505092915050565b600062001aaf828462001a6a565b915081905092915050565b7f4e487b7100000000000000000000000000000000000000000000000000000000600052603260045260246000fd5b7f4e487b7100000000000000000000000000000000000000000000000000000000600052602160045260246000fd5b7f4e487b7100000000000000000000000000000000000000000000000000000000600052602260045260246000fd5b6000600282049050600182168062001b6057607f821691505b60208210810362001b765762001b7562001b18565b5b50919050565b60008190508160005260206000209050919050565b60006020601f8301049050919050565b600082821b905092915050565b60006008830262001be07fffffffffffffffffffffffffffffffffffffffffffffffffffffffffffffffff8262001ba1565b62001bec868362001ba1565b95508019841693508086168417925050509392505050565b6000819050919050565b600062001c2f62001c2962001c23846200173d565b62001c04565b6200173d565b9050919050565b6000819050919050565b62001c4b8362001c0e565b62001c6362001c5a8262001c36565b84845462001bae565b825550505050565b600090565b62001c7a62001c6b565b62001c8781848462001c40565b505050565b5b8181101562001caf5762001ca360008262001c70565b60018101905062001c8d565b5050565b601f82111562001cfe5762001cc88162001b7c565b62001cd38462001b91565b8101602085101562001ce3578190505b62001cfb62001cf28562001b91565b83018262001c8c565b50505b505050565b600082821c905092915050565b600062001d236000198460080262001d03565b1980831691505092915050565b600062001d3e838362001d10565b9150826002028217905092915050565b62001d598262001a54565b67ffffffffffffffff81111562001d755762001d7462001574565b5b62001d81825462001b47565b62001d8e82828562001cb3565b600060209050601f83116001811462001dc6576000841562001db1578287015190505b62001dbd858262001d30565b86555062001e2d565b601f19841662001dd68662001b7c565b60005b8281101562001e005784890151825560018201915060208501945060208101905062001dd9565b8683101562001e20578489015162001e1c601f89168262001d10565b8355505b6001600288020188555050505b505050505050565b60008160601b9050919050565b600062001e4f8262001e35565b9050919050565b600062001e638262001e42565b9050919050565b62001e7f62001e7982620016f8565b62001e56565b82525050565b6003811062001e995762001e9862001ae9565b5b50565b600081905062001eac8262001e85565b919050565b600062001ebe8262001e9c565b9050919050565b60008160f81b9050919050565b600062001edf8262001ec5565b9050919050565b62001efb62001ef58262001eb1565b62001ed2565b82525050565b6000819050919050565b6000819050919050565b62001f2a62001f248262001f01565b62001f0b565b82525050565b600062001f3e828662001e6a565b60148201915062001f50828562001ee6565b60018201915062001f62828462001f15565b602082019150819050949350505050565b7f4e487b7100000000000000000000000000000000000000000000000000000000600052601160045260246000fd5b600060ff82169050919050565b600062001fbc8262001fa2565b915060ff820362001fd25762001fd162001f73565b5b600182019050919050565b600081519050919050565b60008190508160005260206000209050919050565b601f8211156200204857620020128162001fe8565b6200201d8462001b91565b810160208510156200202d578190505b620020456200203c8562001b91565b83018262001c8c565b50505b505050565b620020588262001fdd565b67ffffffffffffffff81111562002074576200207362001574565b5b62002080825462001b47565b6200208d82828562001ffd565b600060209050601f831160018114620020c55760008415620020b0578287015190505b620020bc858262001d30565b8655506200212c565b601f198416620020d58662001fe8565b60005b82811015620020ff57848901518255600182019150602085019450602081019050620020d8565b868310156200211f57848901516200211b601f89168262001d10565b8355505b6001600288020188555050505b505050505050565b600082825260208201905092915050565b6000620021528262001fdd565b6200215e818562002134565b9350620021708185602086016200162e565b6200217b8162001563565b840191505092915050565b60006020820190508181036000830152620021a2818462002145565b905092915050565b620021b58162001f01565b82525050565b6000602082019050620021d26000830184620021aa565b92915050565b6000620021e5826200173d565b91507fffffffffffffffffffffffffffffffffffffffffffffffffffffffffffffffff82036200221a576200221962001f73565b5b600182019050919050565b6200223081620016f8565b82525050565b60008115159050919050565b6200224d8162002236565b82525050565b60006060820190506200226a600083018662002225565b62002279602083018562002242565b81810360408301526200228d818462002145565b9050949350505050565b600060a082019050620022ae600083018862002225565b620022bd602083018762002225565b620022cc604083018662002225565b620022db6060830185620021aa565b8181036080830152620022ef818462002145565b90509695505050505050565b7e06000000000000000000000000000000000000000000000000000000000000600082015250565b60006200233260028362001a5f565b91506200233f82620022fb565b600282019050919050565b6000620023578262002323565b915062002365828462001a6a565b915081905092915050565b600060608201905062002387600083018662002225565b620023966020830185620021aa565b620023a5604083018462002225565b949350505050565b6000604082019050620023c4600083018562002225565b620023d36020830184620021aa565b9392505050565b6000608082019050620023f1600083018762002225565b620024006020830186620021aa565b6200240f604083018562002242565b818103606083015262002423818462002145565b905095945050505050565b6000604082019050620024456000830185620021aa565b818103602083015262002459818462002145565b90509392505050565b600067ffffffffffffffff82111562002480576200247f62001574565b5b6200248b8262001563565b9050602081019050919050565b6000620024af620024a98462002462565b620015d9565b905082815260208101848484011115620024ce57620024cd6200155e565b5b620024db8482856200162e565b509392505050565b600082601f830112620024fb57620024fa62001559565b5b81516200250d84826020860162002498565b91505092915050565b6000602082840312156200252f576200252e6200154f565b5b600082015167ffffffffffffffff81111562002550576200254f62001554565b5b6200255e84828501620024e3565b91505092915050565b60006020820190506200257e600083018462002225565b92915050565b60007fffffffff0000000000000000000000000000000000000000000000000000000082169050919050565b620025bb8162002584565b82525050565b6000602082019050620025d86000830184620025b0565b92915050565b61597b80620025ee6000396000f3fe6080604052600436106101bb5760003560e01c80637f23690c116100ec578063be9f0e6f1161008a578063db8c966311610064578063db8c966314610751578063dedff9c61461077a578063f2fde38b146107b7578063fffc2c94146107e057610235565b8063be9f0e6f146106d6578063cdca9f39146106ff578063d6c1407c1461072857610235565b80638da5cb5b116100c65780638da5cb5b146106155780638f22d85314610640578063979024211461067d578063a3b261f21461069957610235565b80637f23690c1461059357806386a10ddd146105af5780638d959c24146105d857610235565b80634fc4289c116101595780636963d438116101335780636963d438146104d957806370a0823114610516578063715018a6146105535780637e87632c1461056a57610235565b80634fc4289c14610436578063511b69521461047357806354f6127f1461049c57610235565b80631d26fce6116101955780631d26fce614610342578063217b22701461037f5780632a3654a4146103bc57806349a6078d146103f957610235565b806301ffc9a71461029d57806316e023b3146102da57806318160ddd1461031757610235565b366102355760003403610203576040517fe5099ee30000000000000000000000000000000000000000000000000000000081526004016101fa90613685565b60405180910390fd5b6040517f61f4944200000000000000000000000000000000000000000000000000000000815260040160405180910390fd5b60003660606004600036905010156102865782826040517fe5099ee300000000000000000000000000000000000000000000000000000000815260040161027d9291906136f2565b60405180910390fd5b610290838361081e565b9050915050805190602001f35b3480156102a957600080fd5b506102c460048036038101906102bf9190613782565b61099c565b6040516102d191906137ca565b60405180910390f35b3480156102e657600080fd5b5061030160048036038101906102fc919061381b565b610a0d565b60405161030e91906138c9565b60405180910390f35b34801561032357600080fd5b5061032c610a21565b6040516103399190613904565b60405180910390f35b34801561034e57600080fd5b5061036960048036038101906103649190613a67565b610a2b565b6040516103769190613beb565b60405180910390f35b34801561038b57600080fd5b506103a660048036038101906103a19190613c0d565b610b33565b6040516103b39190613c7b565b60405180910390f35b3480156103c857600080fd5b506103e360048036038101906103de9190613cc2565b610be6565b6040516103f091906137ca565b60405180910390f35b34801561040557600080fd5b50610420600480360381019061041b9190613c0d565b610bfa565b60405161042d9190613dc0565b60405180910390f35b34801561044257600080fd5b5061045d60048036038101906104589190613e07565b610c27565b60405161046a9190613e89565b60405180910390f35b34801561047f57600080fd5b5061049a60048036038101906104959190613f7d565b610cc7565b005b3480156104a857600080fd5b506104c360048036038101906104be9190613c0d565b610d28565b6040516104d091906138c9565b60405180910390f35b3480156104e557600080fd5b5061050060048036038101906104fb919061406f565b610d3a565b60405161050d9190613beb565b60405180910390f35b34801561052257600080fd5b5061053d600480360381019061053891906140bc565b610eb6565b60405161054a9190613904565b60405180910390f35b34801561055f57600080fd5b50610568610f06565b005b34801561057657600080fd5b50610591600480360381019061058c9190614350565b610f1a565b005b6105ad60048036038101906105a89190614457565b61102e565b005b3480156105bb57600080fd5b506105d660048036038101906105d191906144b3565b61107e565b005b3480156105e457600080fd5b506105ff60048036038101906105fa9190613c0d565b6112da565b60405161060c91906138c9565b60405180910390f35b34801561062157600080fd5b5061062a6112ec565b6040516106379190613c7b565b60405180910390f35b34801561064c57600080fd5b5061066760048036038101906106629190614522565b611315565b60405161067491906137ca565b60405180910390f35b61069760048036038101906106929190614562565b611344565b005b3480156106a557600080fd5b506106c060048036038101906106bb91906140bc565b611394565b6040516106cd9190614698565b60405180910390f35b3480156106e257600080fd5b506106fd60048036038101906106f891906146ba565b6113e4565b005b34801561070b57600080fd5b506107266004803603810190610721919061482e565b6114e7565b005b34801561073457600080fd5b5061074f600480360381019061074a919061489d565b611be3565b005b34801561075d57600080fd5b506107786004803603810190610773919061490c565b611bfb565b005b34801561078657600080fd5b506107a1600480360381019061079c919061498f565b611dcc565b6040516107ae9190613beb565b60405180910390f35b3480156107c357600080fd5b506107de60048036038101906107d991906140bc565b611e7d565b005b3480156107ec57600080fd5b5061080760048036038101906108029190613e07565b611f00565b6040516108159291906149d8565b60405180910390f35b6060600061084f6000357fffffffff0000000000000000000000000000000000000000000000000000000016611f44565b509050600073ffffffffffffffffffffffffffffffffffffffff168173ffffffffffffffffffffffffffffffffffffffff16036108e7576000357fffffffff00000000000000000000000000000000000000000000000000000000166040517fbb370b2b0000000000000000000000000000000000000000000000000000000081526004016108de9190614a10565b60405180910390fd5b6000808273ffffffffffffffffffffffffffffffffffffffff1634878733346040516020016109199493929190614ac4565b6040516020818303038152906040526040516109359190614b30565b60006040518083038185875af1925050503d8060008114610972576040519150601f19603f3d011682016040523d82523d6000602084013e610977565b606091505b5091509150811561098d57809350505050610996565b80518060208301fd5b92915050565b6000633a27170660e01b7bffffffffffffffffffffffffffffffffffffffffffffffffffffffff1916827bffffffffffffffffffffffffffffffffffffffffffffffffffffffff191614806109f657506109f582611ffe565b5b80610a065750610a058261205f565b5b9050919050565b6060610a1983836120c6565b905092915050565b6000600254905090565b60608151835114610a68576040517f2fa71dfe00000000000000000000000000000000000000000000000000000000815260040160405180910390fd5b825167ffffffffffffffff811115610a8357610a82613924565b5b604051908082528060200260200182016040528015610ab657816020015b6060815260200190600190039081610aa15790505b50905060005b8351811015610b2c57610b03848281518110610adb57610ada614b47565b5b6020026020010151848381518110610af657610af5614b47565b5b60200260200101516120c6565b828281518110610b1657610b15614b47565b5b6020026020010181905250806001019050610abc565b5092915050565b6000806003600084815260200190815260200160002060009054906101000a900473ffffffffffffffffffffffffffffffffffffffff169050600073ffffffffffffffffffffffffffffffffffffffff168173ffffffffffffffffffffffffffffffffffffffff1603610bdd57826040517fae8f9a36000000000000000000000000000000000000000000000000000000008152600401610bd49190614b85565b60405180910390fd5b80915050919050565b6000610bf28383612194565b905092915050565b6060610c0582612201565b610c206005600084815260200190815260200160002061224e565b9050919050565b60086020528060005260406000206000915090508054610c4690614bcf565b80601f0160208091040260200160405190810160405280929190818152602001828054610c7290614bcf565b8015610cbf5780601f10610c9457610100808354040283529160200191610cbf565b820191906000526020600020905b815481529060010190602001808311610ca257829003601f168201915b505050505081565b610cd13384612194565b610d145782336040517f1294d2a9000000000000000000000000000000000000000000000000000000008152600401610d0b929190614c00565b60405180910390fd5b610d21858585858561226f565b5050505050565b6060610d33826122aa565b9050919050565b60608282905067ffffffffffffffff811115610d5957610d58613924565b5b604051908082528060200260200182016040528015610d8c57816020015b6060815260200190600190039081610d775790505b50905060005b83839050811015610eaf576000803073ffffffffffffffffffffffffffffffffffffffff16868685818110610dca57610dc9614b47565b5b9050602002810190610ddc9190614c38565b604051610dea929190614c9b565b600060405180830381855af49150503d8060008114610e25576040519150601f19603f3d011682016040523d82523d6000602084013e610e2a565b606091505b509150915081610e83576000815114610e465780518082602001fd5b826040517f234eb819000000000000000000000000000000000000000000000000000000008152600401610e7a9190613904565b60405180910390fd5b80848481518110610e9757610e96614b47565b5b60200260200101819052508260010192505050610d92565b5092915050565b6000610eff600460008473ffffffffffffffffffffffffffffffffffffffff1673ffffffffffffffffffffffffffffffffffffffff16815260200190815260200160002061234f565b9050919050565b610f0e612364565b610f1860006123e2565b565b600085519050845181141580610f31575083518114155b80610f3d575082518114155b80610f49575081518114155b15610f80576040517f93a8311900000000000000000000000000000000000000000000000000000000815260040160405180910390fd5b60005b818110156110255761101a878281518110610fa157610fa0614b47565b5b6020026020010151878381518110610fbc57610fbb614b47565b5b6020026020010151878481518110610fd757610fd6614b47565b5b6020026020010151878581518110610ff257610ff1614b47565b5b602002602001015187868151811061100d5761100c614b47565b5b6020026020010151610cc7565b806001019050610f83565b50505050505050565b611036612364565b60003414611070576040517ff36ba73700000000000000000000000000000000000000000000000000000000815260040160405180910390fd5b61107a82826124a6565b5050565b600061108983610b33565b90503373ffffffffffffffffffffffffffffffffffffffff168173ffffffffffffffffffffffffffffffffffffffff16146110ff578083336040517f5b271ea20000000000000000000000000000000000000000000000000000000081526004016110f693929190614cb4565b60405180910390fd5b600073ffffffffffffffffffffffffffffffffffffffff168473ffffffffffffffffffffffffffffffffffffffff1603611165576040517f9577b8b300000000000000000000000000000000000000000000000000000000815260040160405180910390fd5b8373ffffffffffffffffffffffffffffffffffffffff168173ffffffffffffffffffffffffffffffffffffffff16036111ca576040517f89fdad6200000000000000000000000000000000000000000000000000000000815260040160405180910390fd5b60006111f1856005600087815260200190815260200160002061251090919063ffffffff16565b9050806112375784846040517fa7626b6800000000000000000000000000000000000000000000000000000000815260040161122e929190614ceb565b60405180910390fd5b838273ffffffffffffffffffffffffffffffffffffffff168673ffffffffffffffffffffffffffffffffffffffff167f1b1b58aa2ec0cec2228b2d37124556d41f5a1f7b12f089171f896cc2366712158660405161129591906138c9565b60405180910390a4600033856001866040516020016112b79493929190614d14565b60405160208183030381529060405290506112d28682612540565b505050505050565b60606112e5826122aa565b9050919050565b60008060009054906101000a900473ffffffffffffffffffffffffffffffffffffffff16905090565b60076020528160005260406000206020528060005260406000206000915091509054906101000a900460ff1681565b61134c612364565b60003414611386576040517ff36ba73700000000000000000000000000000000000000000000000000000000815260040160405180910390fd5b6113908282612572565b5050565b60606113dd600460008473ffffffffffffffffffffffffffffffffffffffff1673ffffffffffffffffffffffffffffffffffffffff168152602001908152602001600020612642565b9050919050565b6113ec612364565b815183511415806113ff57508051825114155b15611436576040517f2fa71dfe00000000000000000000000000000000000000000000000000000000815260040160405180910390fd5b6000835103611471576040517f80c9830500000000000000000000000000000000000000000000000000000000815260040160405180910390fd5b60005b83518110156114e1576114d684828151811061149357611492614b47565b5b60200260200101518483815181106114ae576114ad614b47565b5b60200260200101518484815181106114c9576114c8614b47565b5b6020026020010151612663565b806001019050611474565b50505050565b600954816040516020016114fb9190614d9c565b6040516020818303038152906040528051906020012014611551576040517f08c379a000000000000000000000000000000000000000000000000000000000815260040161154890614dff565b60405180910390fd5b60006006600084600281111561156a57611569614e1f565b5b600281111561157c5761157b614e1f565b5b81526020019081526020016000209050806001015484116115d2576040517f08c379a00000000000000000000000000000000000000000000000000000000081526004016115c990614e9a565b60405180910390fd5b3373ffffffffffffffffffffffffffffffffffffffff168160000160009054906101000a900473ffffffffffffffffffffffffffffffffffffffff1673ffffffffffffffffffffffffffffffffffffffff1603611699578381600101819055503373ffffffffffffffffffffffffffffffffffffffff1683600281111561165c5761165b614e1f565b5b7f300ff980efdfcbf9315c1929dbd04369fe492b36170e95357766ec52103924f68660405161168b9190613904565b60405180910390a350611bde565b600073ffffffffffffffffffffffffffffffffffffffff168160000160009054906101000a900473ffffffffffffffffffffffffffffffffffffffff1673ffffffffffffffffffffffffffffffffffffffff161415801561179c5750600760008260000160009054906101000a900473ffffffffffffffffffffffffffffffffffffffff1673ffffffffffffffffffffffffffffffffffffffff1673ffffffffffffffffffffffffffffffffffffffff168152602001908152602001600020600084600281111561176d5761176c614e1f565b5b600281111561177f5761177e614e1f565b5b815260200190815260200160002060009054906101000a900460ff165b1561198b5760008160000160009054906101000a900473ffffffffffffffffffffffffffffffffffffffff16847f8c14e706f344a21eb23261ab6a4811d5599e56e890562777a6914925a59512736040516020016117fc93929190614f4a565b604051602081830303815290604052805190602001209050611853816040518060400160405280601781526020017f466972737420506c616365204e4654207265766f6b65640000000000000000008152506126ea565b6000600760008460000160009054906101000a900473ffffffffffffffffffffffffffffffffffffffff1673ffffffffffffffffffffffffffffffffffffffff1673ffffffffffffffffffffffffffffffffffffffff16815260200190815260200160002060008660028111156118cd576118cc614e1f565b5b60028111156118df576118de614e1f565b5b815260200190815260200160002060006101000a81548160ff0219169083151502179055508160000160009054906101000a900473ffffffffffffffffffffffffffffffffffffffff1673ffffffffffffffffffffffffffffffffffffffff1684600281111561195257611951614e1f565b5b7f6d74bd0bfb57711860bd7d6d0648d03e2fdff362f5f46a8f91388d8f39911d08836040516119819190614b85565b60405180910390a3505b600033847f8c14e706f344a21eb23261ab6a4811d5599e56e890562777a6914925a59512736040516020016119c293929190614f4a565b604051602081830303815290604052805190602001209050611a1c338260016040518060400160405280600f81526020017f466972737420506c616365204e46540000000000000000000000000000000000815250612871565b611a268185612aed565b611a4030826040518060200160405280600081525061107e565b6001600760003373ffffffffffffffffffffffffffffffffffffffff1673ffffffffffffffffffffffffffffffffffffffff1681526020019081526020016000206000866002811115611a9657611a95614e1f565b5b6002811115611aa857611aa7614e1f565b5b815260200190815260200160002060006101000a81548160ff021916908315150217905550338260000160006101000a81548173ffffffffffffffffffffffffffffffffffffffff021916908373ffffffffffffffffffffffffffffffffffffffff1602179055508482600101819055503373ffffffffffffffffffffffffffffffffffffffff16846002811115611b4357611b42614e1f565b5b7f300ff980efdfcbf9315c1929dbd04369fe492b36170e95357766ec52103924f687604051611b729190613904565b60405180910390a33373ffffffffffffffffffffffffffffffffffffffff16846002811115611ba457611ba3614e1f565b5b7fb292d132bb6533ea558b88bbe806f164b9034ea4d33ee745e74e2dd96070181283604051611bd39190614b85565b60405180910390a350505b505050565b611beb612364565b611bf6838383612663565b505050565b6000611c0684610b33565b90508073ffffffffffffffffffffffffffffffffffffffff163373ffffffffffffffffffffffffffffffffffffffff1614611cb0573373ffffffffffffffffffffffffffffffffffffffff168573ffffffffffffffffffffffffffffffffffffffff1614611caf573381856040517f760b5acd000000000000000000000000000000000000000000000000000000008152600401611ca693929190614f87565b60405180910390fd5b5b600073ffffffffffffffffffffffffffffffffffffffff168573ffffffffffffffffffffffffffffffffffffffff1603611d16576040517f9577b8b300000000000000000000000000000000000000000000000000000000815260040160405180910390fd5b8473ffffffffffffffffffffffffffffffffffffffff168173ffffffffffffffffffffffffffffffffffffffff1603611d7b576040517f89fdad6200000000000000000000000000000000000000000000000000000000815260040160405180910390fd5b611d888582868686612be5565b8215611dc55760008185600085604051602001611da89493929190614d14565b6040516020818303038152906040529050611dc38682612540565b505b5050505050565b6060815167ffffffffffffffff811115611de957611de8613924565b5b604051908082528060200260200182016040528015611e1c57816020015b6060815260200190600190039081611e075790505b50905060005b8251811015611e7757611e4e838281518110611e4157611e40614b47565b5b60200260200101516122aa565b828281518110611e6157611e60614b47565b5b6020026020010181905250806001019050611e22565b50919050565b611e85612364565b600073ffffffffffffffffffffffffffffffffffffffff168173ffffffffffffffffffffffffffffffffffffffff1603611ef4576040517f08c379a0000000000000000000000000000000000000000000000000000000008152600401611eeb90615030565b60405180910390fd5b611efd816123e2565b50565b60066020528060005260406000206000915090508060000160009054906101000a900473ffffffffffffffffffffffffffffffffffffffff16908060010154905082565b6000806000611f7f69cee78b4094da8601109660b01b857bffffffffffffffffffffffffffffffffffffffffffffffffffffffff1916612cc2565b90506000611f8c826122aa565b90506014815114158015611fa257506000815114155b15611fe457806040517f42bfe79f000000000000000000000000000000000000000000000000000000008152600401611fdb91906138c9565b60405180910390fd5b80611fee906150ae565b60601c6001935093505050915091565b600063a918fa6b60e01b7bffffffffffffffffffffffffffffffffffffffffffffffffffffffff1916827bffffffffffffffffffffffffffffffffffffffffffffffffffffffff19161480612058575061205782612d02565b5b9050919050565b6000806120726301ffc9a760e01b611f44565b509050600073ffffffffffffffffffffffffffffffffffffffff168173ffffffffffffffffffffffffffffffffffffffff16036120b35760009150506120c1565b6120bd8184612d63565b9150505b919050565b60606001600084846040516020016120df929190615115565b604051602081830303815290604052805190602001208152602001908152602001600020805461210e90614bcf565b80601f016020809104026020016040519081016040528092919081815260200182805461213a90614bcf565b80156121875780601f1061215c57610100808354040283529160200191612187565b820191906000526020600020905b81548152906001019060200180831161216a57829003601f168201915b5050505050905092915050565b600061219f82610b33565b73ffffffffffffffffffffffffffffffffffffffff168373ffffffffffffffffffffffffffffffffffffffff1614806121f957506121f88360056000858152602001908152602001600020612e2290919063ffffffff16565b5b905092915050565b61220a81612e52565b61224b57806040517fae8f9a360000000000000000000000000000000000000000000000000000000081526004016122429190614b85565b60405180910390fd5b50565b6060600061225e83600001612ebe565b905060608190508092505050919050565b6040517f08c379a00000000000000000000000000000000000000000000000000000000081526004016122a1906151b3565b60405180910390fd5b60606001600083815260200190815260200160002080546122ca90614bcf565b80601f01602080910402602001604051908101604052809291908181526020018280546122f690614bcf565b80156123435780601f1061231857610100808354040283529160200191612343565b820191906000526020600020905b81548152906001019060200180831161232657829003601f168201915b50505050509050919050565b600061235d82600001612f1a565b9050919050565b61236c612f2b565b73ffffffffffffffffffffffffffffffffffffffff1661238a6112ec565b73ffffffffffffffffffffffffffffffffffffffff16146123e0576040517f08c379a00000000000000000000000000000000000000000000000000000000081526004016123d79061521f565b60405180910390fd5b565b60008060009054906101000a900473ffffffffffffffffffffffffffffffffffffffff169050816000806101000a81548173ffffffffffffffffffffffffffffffffffffffff021916908373ffffffffffffffffffffffffffffffffffffffff1602179055508173ffffffffffffffffffffffffffffffffffffffff168173ffffffffffffffffffffffffffffffffffffffff167f8be0079c531659141344cd1fd0a4f28419497f9722a3daafe3b4186f6b6457e060405160405180910390a35050565b7ff675e9361af1c1664c1868cfa3eb97672d6b1a513aa5b81dec34c9ee330e818d60001b8203612502576040517f3664800a00000000000000000000000000000000000000000000000000000000815260040160405180910390fd5b61250c8282612f33565b5050565b6000612538836000018373ffffffffffffffffffffffffffffffffffffffff1660001b6130a4565b905092915050565b61256e827f8a1c15a8799f71b547e08e2bcb2e85257e81b0a07eee2ce6712549eef1f0097060001b83613114565b5050565b80518251146125ad576040517f3bcc897900000000000000000000000000000000000000000000000000000000815260040160405180910390fd5b60008251036125e8576040517f97da5f9500000000000000000000000000000000000000000000000000000000815260040160405180910390fd5b60005b825181101561263d5761263283828151811061260a57612609614b47565b5b602002602001015183838151811061262557612624614b47565b5b60200260200101516124a6565b8060010190506125eb565b505050565b6060600061265283600001612ebe565b905060608190508092505050919050565b8060016000858560405160200161267b929190615115565b60405160208183030381529060405280519060200120815260200190815260200160002090816126ab91906153de565b5081837fa6e4251f855f750545fe414f120db91c76b88def14d120969e5bb2d3f05debbb836040516126dd91906138c9565b60405180910390a3505050565b60006126f583610b33565b9050612706816000856000866131d3565b61270f83610b33565b9050600260008154612720906154df565b9190508190555061273181846131da565b61278283600460008473ffffffffffffffffffffffffffffffffffffffff1673ffffffffffffffffffffffffffffffffffffffff16815260200190815260200160002061325090919063ffffffff16565b506003600084815260200190815260200160002060006101000a81549073ffffffffffffffffffffffffffffffffffffffff021916905582600073ffffffffffffffffffffffffffffffffffffffff168273ffffffffffffffffffffffffffffffffffffffff167fb333c813a7426a7a11e2b190cad52c44119421594b47f6f32ace6d8c7207b2bf3360008760405161281d93929190615508565b60405180910390a461283481600085600086613267565b6000338260008686604051602001612850959493929190615546565b604051602081830303815290604052905061286b828261326e565b50505050565b600073ffffffffffffffffffffffffffffffffffffffff168473ffffffffffffffffffffffffffffffffffffffff16036128d7576040517f24ecef4d00000000000000000000000000000000000000000000000000000000815260040160405180910390fd5b6128e083612e52565b1561292257826040517f34c7b5110000000000000000000000000000000000000000000000000000000081526004016129199190614b85565b60405180910390fd5b6129306000858585856131d3565b61293983612e52565b1561297b57826040517f34c7b5110000000000000000000000000000000000000000000000000000000081526004016129729190614b85565b60405180910390fd5b60026000815461298a906155a0565b919050819055506129e283600460008773ffffffffffffffffffffffffffffffffffffffff1673ffffffffffffffffffffffffffffffffffffffff1681526020019081526020016000206132a090919063ffffffff16565b50836003600085815260200190815260200160002060006101000a81548173ffffffffffffffffffffffffffffffffffffffff021916908373ffffffffffffffffffffffffffffffffffffffff160217905550828473ffffffffffffffffffffffffffffffffffffffff16600073ffffffffffffffffffffffffffffffffffffffff167fb333c813a7426a7a11e2b190cad52c44119421594b47f6f32ace6d8c7207b2bf338686604051612a9893929190615508565b60405180910390a4612aae600085858585613267565b6000336000868685604051602001612aca959493929190615546565b6040516020818303038152906040529050612ae68584836132b7565b5050505050565b600060086000836002811115612b0657612b05614e1f565b5b6002811115612b1857612b17614e1f565b5b81526020019081526020016000208054612b3190614bcf565b80601f0160208091040260200160405190810160405280929190818152602001828054612b5d90614bcf565b8015612baa5780601f10612b7f57610100808354040283529160200191612baa565b820191906000526020600020905b815481529060010190602001808311612b8d57829003601f168201915b50505050509050600081604051602001612bc49190615633565b6040516020818303038152906040529050612bdf84826124a6565b50505050565b6000612c0c866005600087815260200190815260200160002061341d90919063ffffffff16565b905080612c525785846040517f4aa31a8c000000000000000000000000000000000000000000000000000000008152600401612c49929190614ceb565b60405180910390fd5b838573ffffffffffffffffffffffffffffffffffffffff168773ffffffffffffffffffffffffffffffffffffffff167fc78cd419d6136f9f1c1c6aec1d3fae098cffaf8bc86314a8f2685e32fe574e3c8686604051612cb2929190615655565b60405180910390a4505050505050565b60008083600060f01b84604051602001612cde93929190615740565b604051602081830303815290604052905080612cf990615792565b91505092915050565b600063629aa69460e01b7bffffffffffffffffffffffffffffffffffffffffffffffffffffffff1916827bffffffffffffffffffffffffffffffffffffffffffffffffffffffff19161480612d5c5750612d5b8261344d565b5b9050919050565b6000806301ffc9a760e01b83604051602401612d7f9190614a10565b604051602081830303815290604052907bffffffffffffffffffffffffffffffffffffffffffffffffffffffff19166020820180517bffffffffffffffffffffffffffffffffffffffffffffffffffffffff838183161783525050505090506000806000602060008551602087018a617530fa92503d91506000519050828015612e0a575060208210155b8015612e165750600081115b94505050505092915050565b6000612e4a836000018373ffffffffffffffffffffffffffffffffffffffff1660001b6134b7565b905092915050565b60008073ffffffffffffffffffffffffffffffffffffffff166003600084815260200190815260200160002060009054906101000a900473ffffffffffffffffffffffffffffffffffffffff1673ffffffffffffffffffffffffffffffffffffffff1614159050919050565b606081600001805480602002602001604051908101604052809291908181526020018280548015612f0e57602002820191906000526020600020905b815481526020019060010190808311612efa575b50505050509050919050565b600081600001805490509050919050565b600033905090565b7fdeba1e292f8ba88238e10ab3c7f88bd4be4fac56cad5194b6ecceaf653468af160001b8203612f8f576040517f85c169bd00000000000000000000000000000000000000000000000000000000815260040160405180910390fd5b7f2f0a68ab07768e01943a599e73362a0e17a63a72e94dd2e384d2c1d4db93275660001b8203612feb576040517f76755b3800000000000000000000000000000000000000000000000000000000815260040160405180910390fd5b7fe0261fa95db2eb3b5439bd033cda66d56b96f92f243a8228fd87550ed7bdfdb360001b8203613047576040517f4ef6d7fb00000000000000000000000000000000000000000000000000000000815260040160405180910390fd5b8060016000848152602001908152602001600020908161306791906153de565b50817fece574603820d07bc9b91f2a932baadf4628aabcb8afba49776529c14a6104b28260405161309891906138c9565b60405180910390a25050565b60006130b083836134b7565b61310957826000018290806001815401808255809150506001900390600052602060002001600090919091909150558260000180549050836001016000848152602001908152602001600020819055506001905061310e565b600090505b92915050565b613144636bb56a1460e01b8473ffffffffffffffffffffffffffffffffffffffff16612d6390919063ffffffff16565b156131ce578273ffffffffffffffffffffffffffffffffffffffff16636bb56a1483836040518363ffffffff1660e01b81526004016131849291906157f9565b6000604051808303816000875af11580156131a3573d6000803e3d6000fd5b505050506040513d6000823e3d601f19601f820116820180604052508101906131cc9190615899565b505b505050565b5050505050565b600060056000838152602001908152602001600020905060006131fc826134da565b90506000805b828110156132485761321e6000856134ef90919063ffffffff16565b915061323d828787600060405180602001604052806000815250612be5565b806001019050613202565b505050505050565b600061325f8360000183613509565b905092915050565b5050505050565b61329c827fb23eae7e6d1564b295b4c3e3be402d9a2f0776c57bdf365903496f6fa481ab0060001b83613114565b5050565b60006132af83600001836130a4565b905092915050565b6132c883636bb56a1460e01b612d63565b15613379578273ffffffffffffffffffffffffffffffffffffffff16636bb56a147f0b084a55ebf70fd3c06fd755269dac2212c4d3f0f4d09079780bfa50c1b2984d60001b836040518363ffffffff1660e01b815260040161332b9291906157f9565b6000604051808303816000875af115801561334a573d6000803e3d6000fd5b505050506040513d6000823e3d601f19601f820116820180604052508101906133739190615899565b50613418565b816134175760008373ffffffffffffffffffffffffffffffffffffffff163b146133da57826040517f4349776d0000000000000000000000000000000000000000000000000000000081526004016133d19190613c7b565b60405180910390fd5b826040517f0317313700000000000000000000000000000000000000000000000000000000815260040161340e9190613c7b565b60405180910390fd5b5b505050565b6000613445836000018373ffffffffffffffffffffffffffffffffffffffff1660001b613509565b905092915050565b60007f01ffc9a7000000000000000000000000000000000000000000000000000000007bffffffffffffffffffffffffffffffffffffffffffffffffffffffff1916827bffffffffffffffffffffffffffffffffffffffffffffffffffffffff1916149050919050565b600080836001016000848152602001908152602001600020541415905092915050565b60006134e882600001612f1a565b9050919050565b60006134fe836000018361361d565b60001c905092915050565b6000808360010160008481526020019081526020016000205490506000811461361157600060018261353b91906158e2565b905060006001866000018054905061355391906158e2565b90508181146135c257600086600001828154811061357457613573614b47565b5b906000526020600020015490508087600001848154811061359857613597614b47565b5b90600052602060002001819055508387600101600083815260200190815260200160002081905550505b856000018054806135d6576135d5615916565b5b600190038181906000526020600020016000905590558560010160008681526020019081526020016000206000905560019350505050613617565b60009150505b92915050565b600082600001828154811061363557613634614b47565b5b9060005260206000200154905092915050565b600082825260208201905092915050565b60008082015250565b600061366f600483613648565b915061367a82613659565b602082019050919050565b6000602082019050818103600083015261369e81613662565b9050919050565b82818337600083830152505050565b6000601f19601f8301169050919050565b60006136d18385613648565b93506136de8385846136a5565b6136e7836136b4565b840190509392505050565b6000602082019050818103600083015261370d8184866136c5565b90509392505050565b6000604051905090565b600080fd5b600080fd5b60007fffffffff0000000000000000000000000000000000000000000000000000000082169050919050565b61375f8161372a565b811461376a57600080fd5b50565b60008135905061377c81613756565b92915050565b60006020828403121561379857613797613720565b5b60006137a68482850161376d565b91505092915050565b60008115159050919050565b6137c4816137af565b82525050565b60006020820190506137df60008301846137bb565b92915050565b6000819050919050565b6137f8816137e5565b811461380357600080fd5b50565b600081359050613815816137ef565b92915050565b6000806040838503121561383257613831613720565b5b600061384085828601613806565b925050602061385185828601613806565b9150509250929050565b600081519050919050565b60005b83811015613884578082015181840152602081019050613869565b60008484015250505050565b600061389b8261385b565b6138a58185613648565b93506138b5818560208601613866565b6138be816136b4565b840191505092915050565b600060208201905081810360008301526138e38184613890565b905092915050565b6000819050919050565b6138fe816138eb565b82525050565b600060208201905061391960008301846138f5565b92915050565b600080fd5b7f4e487b7100000000000000000000000000000000000000000000000000000000600052604160045260246000fd5b61395c826136b4565b810181811067ffffffffffffffff8211171561397b5761397a613924565b5b80604052505050565b600061398e613716565b905061399a8282613953565b919050565b600067ffffffffffffffff8211156139ba576139b9613924565b5b602082029050602081019050919050565b600080fd5b60006139e36139de8461399f565b613984565b90508083825260208201905060208402830185811115613a0657613a056139cb565b5b835b81811015613a2f5780613a1b8882613806565b845260208401935050602081019050613a08565b5050509392505050565b600082601f830112613a4e57613a4d61391f565b5b8135613a5e8482602086016139d0565b91505092915050565b60008060408385031215613a7e57613a7d613720565b5b600083013567ffffffffffffffff811115613a9c57613a9b613725565b5b613aa885828601613a39565b925050602083013567ffffffffffffffff811115613ac957613ac8613725565b5b613ad585828601613a39565b9150509250929050565b600081519050919050565b600082825260208201905092915050565b6000819050602082019050919050565b600082825260208201905092915050565b6000613b278261385b565b613b318185613b0b565b9350613b41818560208601613866565b613b4a816136b4565b840191505092915050565b6000613b618383613b1c565b905092915050565b6000602082019050919050565b6000613b8182613adf565b613b8b8185613aea565b935083602082028501613b9d85613afb565b8060005b85811015613bd95784840389528151613bba8582613b55565b9450613bc583613b69565b925060208a01995050600181019050613ba1565b50829750879550505050505092915050565b60006020820190508181036000830152613c058184613b76565b905092915050565b600060208284031215613c2357613c22613720565b5b6000613c3184828501613806565b91505092915050565b600073ffffffffffffffffffffffffffffffffffffffff82169050919050565b6000613c6582613c3a565b9050919050565b613c7581613c5a565b82525050565b6000602082019050613c906000830184613c6c565b92915050565b613c9f81613c5a565b8114613caa57600080fd5b50565b600081359050613cbc81613c96565b92915050565b60008060408385031215613cd957613cd8613720565b5b6000613ce785828601613cad565b9250506020613cf885828601613806565b9150509250929050565b600081519050919050565b600082825260208201905092915050565b6000819050602082019050919050565b613d3781613c5a565b82525050565b6000613d498383613d2e565b60208301905092915050565b6000602082019050919050565b6000613d6d82613d02565b613d778185613d0d565b9350613d8283613d1e565b8060005b83811015613db3578151613d9a8882613d3d565b9750613da583613d55565b925050600181019050613d86565b5085935050505092915050565b60006020820190508181036000830152613dda8184613d62565b905092915050565b60038110613def57600080fd5b50565b600081359050613e0181613de2565b92915050565b600060208284031215613e1d57613e1c613720565b5b6000613e2b84828501613df2565b91505092915050565b600081519050919050565b600082825260208201905092915050565b6000613e5b82613e34565b613e658185613e3f565b9350613e75818560208601613866565b613e7e816136b4565b840191505092915050565b60006020820190508181036000830152613ea38184613e50565b905092915050565b613eb4816137af565b8114613ebf57600080fd5b50565b600081359050613ed181613eab565b92915050565b600080fd5b600067ffffffffffffffff821115613ef757613ef6613924565b5b613f00826136b4565b9050602081019050919050565b6000613f20613f1b84613edc565b613984565b905082815260208101848484011115613f3c57613f3b613ed7565b5b613f478482856136a5565b509392505050565b600082601f830112613f6457613f6361391f565b5b8135613f74848260208601613f0d565b91505092915050565b600080600080600060a08688031215613f9957613f98613720565b5b6000613fa788828901613cad565b9550506020613fb888828901613cad565b9450506040613fc988828901613806565b9350506060613fda88828901613ec2565b925050608086013567ffffffffffffffff811115613ffb57613ffa613725565b5b61400788828901613f4f565b9150509295509295909350565b600080fd5b60008083601f84011261402f5761402e61391f565b5b8235905067ffffffffffffffff81111561404c5761404b614014565b5b602083019150836020820283011115614068576140676139cb565b5b9250929050565b6000806020838503121561408657614085613720565b5b600083013567ffffffffffffffff8111156140a4576140a3613725565b5b6140b085828601614019565b92509250509250929050565b6000602082840312156140d2576140d1613720565b5b60006140e084828501613cad565b91505092915050565b600067ffffffffffffffff82111561410457614103613924565b5b602082029050602081019050919050565b6000614128614123846140e9565b613984565b9050808382526020820190506020840283018581111561414b5761414a6139cb565b5b835b8181101561417457806141608882613cad565b84526020840193505060208101905061414d565b5050509392505050565b600082601f8301126141935761419261391f565b5b81356141a3848260208601614115565b91505092915050565b600067ffffffffffffffff8211156141c7576141c6613924565b5b602082029050602081019050919050565b60006141eb6141e6846141ac565b613984565b9050808382526020820190506020840283018581111561420e5761420d6139cb565b5b835b8181101561423757806142238882613ec2565b845260208401935050602081019050614210565b5050509392505050565b600082601f8301126142565761425561391f565b5b81356142668482602086016141d8565b91505092915050565b600067ffffffffffffffff82111561428a57614289613924565b5b602082029050602081019050919050565b60006142ae6142a98461426f565b613984565b905080838252602082019050602084028301858111156142d1576142d06139cb565b5b835b8181101561431857803567ffffffffffffffff8111156142f6576142f561391f565b5b8086016143038982613f4f565b855260208501945050506020810190506142d3565b5050509392505050565b600082601f8301126143375761433661391f565b5b813561434784826020860161429b565b91505092915050565b600080600080600060a0868803121561436c5761436b613720565b5b600086013567ffffffffffffffff81111561438a57614389613725565b5b6143968882890161417e565b955050602086013567ffffffffffffffff8111156143b7576143b6613725565b5b6143c38882890161417e565b945050604086013567ffffffffffffffff8111156143e4576143e3613725565b5b6143f088828901613a39565b935050606086013567ffffffffffffffff81111561441157614410613725565b5b61441d88828901614241565b925050608086013567ffffffffffffffff81111561443e5761443d613725565b5b61444a88828901614322565b9150509295509295909350565b6000806040838503121561446e5761446d613720565b5b600061447c85828601613806565b925050602083013567ffffffffffffffff81111561449d5761449c613725565b5b6144a985828601613f4f565b9150509250929050565b6000806000606084860312156144cc576144cb613720565b5b60006144da86828701613cad565b93505060206144eb86828701613806565b925050604084013567ffffffffffffffff81111561450c5761450b613725565b5b61451886828701613f4f565b9150509250925092565b6000806040838503121561453957614538613720565b5b600061454785828601613cad565b925050602061455885828601613df2565b9150509250929050565b6000806040838503121561457957614578613720565b5b600083013567ffffffffffffffff81111561459757614596613725565b5b6145a385828601613a39565b925050602083013567ffffffffffffffff8111156145c4576145c3613725565b5b6145d085828601614322565b9150509250929050565b600081519050919050565b600082825260208201905092915050565b6000819050602082019050919050565b61460f816137e5565b82525050565b60006146218383614606565b60208301905092915050565b6000602082019050919050565b6000614645826145da565b61464f81856145e5565b935061465a836145f6565b8060005b8381101561468b5781516146728882614615565b975061467d8361462d565b92505060018101905061465e565b5085935050505092915050565b600060208201905081810360008301526146b2818461463a565b905092915050565b6000806000606084860312156146d3576146d2613720565b5b600084013567ffffffffffffffff8111156146f1576146f0613725565b5b6146fd86828701613a39565b935050602084013567ffffffffffffffff81111561471e5761471d613725565b5b61472a86828701613a39565b925050604084013567ffffffffffffffff81111561474b5761474a613725565b5b61475786828701614322565b9150509250925092565b61476a816138eb565b811461477557600080fd5b50565b60008135905061478781614761565b92915050565b600067ffffffffffffffff8211156147a8576147a7613924565b5b6147b1826136b4565b9050602081019050919050565b60006147d16147cc8461478d565b613984565b9050828152602081018484840111156147ed576147ec613ed7565b5b6147f88482856136a5565b509392505050565b600082601f8301126148155761481461391f565b5b81356148258482602086016147be565b91505092915050565b60008060006060848603121561484757614846613720565b5b600061485586828701614778565b935050602061486686828701613df2565b925050604084013567ffffffffffffffff81111561488757614886613725565b5b61489386828701614800565b9150509250925092565b6000806000606084860312156148b6576148b5613720565b5b60006148c486828701613806565b93505060206148d586828701613806565b925050604084013567ffffffffffffffff8111156148f6576148f5613725565b5b61490286828701613f4f565b9150509250925092565b6000806000806080858703121561492657614925613720565b5b600061493487828801613cad565b945050602061494587828801613806565b935050604061495687828801613ec2565b925050606085013567ffffffffffffffff81111561497757614976613725565b5b61498387828801613f4f565b91505092959194509250565b6000602082840312156149a5576149a4613720565b5b600082013567ffffffffffffffff8111156149c3576149c2613725565b5b6149cf84828501613a39565b91505092915050565b60006040820190506149ed6000830185613c6c565b6149fa60208301846138f5565b9392505050565b614a0a8161372a565b82525050565b6000602082019050614a256000830184614a01565b92915050565b600081905092915050565b6000614a428385614a2b565b9350614a4f8385846136a5565b82840190509392505050565b60008160601b9050919050565b6000614a7382614a5b565b9050919050565b6000614a8582614a68565b9050919050565b614a9d614a9882613c5a565b614a7a565b82525050565b6000819050919050565b614abe614ab9826138eb565b614aa3565b82525050565b6000614ad1828688614a36565b9150614add8285614a8c565b601482019150614aed8284614aad565b60208201915081905095945050505050565b6000614b0a8261385b565b614b148185614a2b565b9350614b24818560208601613866565b80840191505092915050565b6000614b3c8284614aff565b915081905092915050565b7f4e487b7100000000000000000000000000000000000000000000000000000000600052603260045260246000fd5b614b7f816137e5565b82525050565b6000602082019050614b9a6000830184614b76565b92915050565b7f4e487b7100000000000000000000000000000000000000000000000000000000600052602260045260246000fd5b60006002820490506001821680614be757607f821691505b602082108103614bfa57614bf9614ba0565b5b50919050565b6000604082019050614c156000830185614b76565b614c226020830184613c6c565b9392505050565b600080fd5b600080fd5b600080fd5b60008083356001602003843603038112614c5557614c54614c29565b5b80840192508235915067ffffffffffffffff821115614c7757614c76614c2e565b5b602083019250600182023603831315614c9357614c92614c33565b5b509250929050565b6000614ca8828486614a36565b91508190509392505050565b6000606082019050614cc96000830186613c6c565b614cd66020830185614b76565b614ce36040830184613c6c565b949350505050565b6000604082019050614d006000830185613c6c565b614d0d6020830184614b76565b9392505050565b6000608082019050614d296000830187613c6c565b614d366020830186614b76565b614d4360408301856137bb565b8181036060830152614d558184613890565b905095945050505050565b600081905092915050565b6000614d7682613e34565b614d808185614d60565b9350614d90818560208601613866565b80840191505092915050565b6000614da88284614d6b565b915081905092915050565b7f496e76616c69642073656372657420636f646500000000000000000000000000600082015250565b6000614de9601383613e3f565b9150614df482614db3565b602082019050919050565b60006020820190508181036000830152614e1881614ddc565b9050919050565b7f4e487b7100000000000000000000000000000000000000000000000000000000600052602160045260246000fd5b7f4e6f742074686520686967686573742073636f72650000000000000000000000600082015250565b6000614e84601583613e3f565b9150614e8f82614e4e565b602082019050919050565b60006020820190508181036000830152614eb381614e77565b9050919050565b60038110614ecb57614eca614e1f565b5b50565b6000819050614edc82614eba565b919050565b6000614eec82614ece565b9050919050565b60008160f81b9050919050565b6000614f0b82614ef3565b9050919050565b614f23614f1e82614ee1565b614f00565b82525050565b6000819050919050565b614f44614f3f826137e5565b614f29565b82525050565b6000614f568286614a8c565b601482019150614f668285614f12565b600182019150614f768284614f33565b602082019150819050949350505050565b6000606082019050614f9c6000830186613c6c565b614fa96020830185613c6c565b614fb66040830184614b76565b949350505050565b7f4f776e61626c653a206e6577206f776e657220697320746865207a65726f206160008201527f6464726573730000000000000000000000000000000000000000000000000000602082015250565b600061501a602683613e3f565b915061502582614fbe565b604082019050919050565b600060208201905081810360008301526150498161500d565b9050919050565b6000819050602082019050919050565b60007fffffffffffffffffffffffffffffffffffffffff00000000000000000000000082169050919050565b60006150988251615060565b80915050919050565b600082821b905092915050565b60006150b98261385b565b826150c384615050565b90506150ce8161508c565b9250601482101561510e576151097fffffffffffffffffffffffffffffffffffffffff000000000000000000000000836014036008026150a1565b831692505b5050919050565b60006151218285614f33565b6020820191506151318284614f33565b6020820191508190509392505050565b7f466972737420506c616365204e46547320617265206e6f6e2d7472616e73666560008201527f7261626c65000000000000000000000000000000000000000000000000000000602082015250565b600061519d602583613e3f565b91506151a882615141565b604082019050919050565b600060208201905081810360008301526151cc81615190565b9050919050565b7f4f776e61626c653a2063616c6c6572206973206e6f7420746865206f776e6572600082015250565b6000615209602083613e3f565b9150615214826151d3565b602082019050919050565b60006020820190508181036000830152615238816151fc565b9050919050565b60008190508160005260206000209050919050565b60006020601f8301049050919050565b6000600883026152947fffffffffffffffffffffffffffffffffffffffffffffffffffffffffffffffff826150a1565b61529e86836150a1565b95508019841693508086168417925050509392505050565b6000819050919050565b60006152db6152d66152d1846138eb565b6152b6565b6138eb565b9050919050565b6000819050919050565b6152f5836152c0565b615309615301826152e2565b848454615264565b825550505050565b600090565b61531e615311565b6153298184846152ec565b505050565b5b8181101561534d57615342600082615316565b60018101905061532f565b5050565b601f821115615392576153638161523f565b61536c84615254565b8101602085101561537b578190505b61538f61538785615254565b83018261532e565b50505b505050565b600082821c905092915050565b60006153b560001984600802615397565b1980831691505092915050565b60006153ce83836153a4565b9150826002028217905092915050565b6153e78261385b565b67ffffffffffffffff811115615400576153ff613924565b5b61540a8254614bcf565b615415828285615351565b600060209050601f8311600181146154485760008415615436578287015190505b61544085826153c2565b8655506154a8565b601f1984166154568661523f565b60005b8281101561547e57848901518255600182019150602085019450602081019050615459565b8683101561549b5784890151615497601f8916826153a4565b8355505b6001600288020188555050505b505050505050565b7f4e487b7100000000000000000000000000000000000000000000000000000000600052601160045260246000fd5b60006154ea826138eb565b9150600082036154fd576154fc6154b0565b5b600182039050919050565b600060608201905061551d6000830186613c6c565b61552a60208301856137bb565b818103604083015261553c8184613890565b9050949350505050565b600060a08201905061555b6000830188613c6c565b6155686020830187613c6c565b6155756040830186613c6c565b6155826060830185614b76565b81810360808301526155948184613890565b90509695505050505050565b60006155ab826138eb565b91507fffffffffffffffffffffffffffffffffffffffffffffffffffffffffffffffff82036155dd576155dc6154b0565b5b600182019050919050565b7e06000000000000000000000000000000000000000000000000000000000000600082015250565b600061561d600283614d60565b9150615628826155e8565b600282019050919050565b600061563e82615610565b915061564a8284614d6b565b915081905092915050565b600060408201905061566a60008301856137bb565b818103602083015261567c8184613890565b90509392505050565b60007fffffffffffffffffffff0000000000000000000000000000000000000000000082169050919050565b6000819050919050565b6156cc6156c782615685565b6156b1565b82525050565b60007fffff00000000000000000000000000000000000000000000000000000000000082169050919050565b6000819050919050565b615719615714826156d2565b6156fe565b82525050565b6000819050919050565b61573a61573582615060565b61571f565b82525050565b600061574c82866156bb565b600a8201915061575c8285615708565b60028201915061576c8284615729565b601482019150819050949350505050565b600061578982516137e5565b80915050919050565b600061579d8261385b565b826157a784615050565b90506157b28161577d565b925060208210156157f2576157ed7fffffffffffffffffffffffffffffffffffffffffffffffffffffffffffffffff836020036008026150a1565b831692505b5050919050565b600060408201905061580e6000830185614b76565b81810360208301526158208184613890565b90509392505050565b600061583c61583784613edc565b613984565b90508281526020810184848401111561585857615857613ed7565b5b615863848285613866565b509392505050565b600082601f8301126158805761587f61391f565b5b8151615890848260208601615829565b91505092915050565b6000602082840312156158af576158ae613720565b5b600082015167ffffffffffffffff8111156158cd576158cc613725565b5b6158d98482850161586b565b91505092915050565b60006158ed826138eb565b91506158f8836138eb565b92508282039050818111156159105761590f6154b0565b5b92915050565b7f4e487b7100000000000000000000000000000000000000000000000000000000600052603160045260246000fdfea2646970667358221220d5826caf06d073651989ede571d9ec2c6456d11512583aa6ac212fae404e56df64736f6c63430008130033","opcodes":"PUSH1 0x80 PUSH1 0x40 MSTORE CALLVALUE DUP1 ISZERO PUSH3 0x11 JUMPI PUSH1 0x0 DUP1 REVERT JUMPDEST POP PUSH1 0x40 MLOAD PUSH3 0x7F69 CODESIZE SUB DUP1 PUSH3 0x7F69 DUP4 CODECOPY DUP2 DUP2 ADD PUSH1 0x40 MSTORE DUP2 ADD SWAP1 PUSH3 0x37 SWAP2 SWAP1 PUSH3 0x1874 JUMP JUMPDEST DUP7 DUP7 DUP7 DUP7 DUP7 DUP5 DUP5 DUP5 DUP5 DUP2 PUSH3 0x61 PUSH3 0x55 PUSH3 0x68D PUSH1 0x20 SHL PUSH1 0x20 SHR JUMP JUMPDEST PUSH3 0x695 PUSH1 0x20 SHL PUSH1 0x20 SHR JUMP JUMPDEST PUSH1 0x0 PUSH20 0xFFFFFFFFFFFFFFFFFFFFFFFFFFFFFFFFFFFFFFFF AND DUP2 PUSH20 0xFFFFFFFFFFFFFFFFFFFFFFFFFFFFFFFFFFFFFFFF AND SUB PUSH3 0xC8 JUMPI PUSH1 0x40 MLOAD PUSH32 0x1AD8836C00000000000000000000000000000000000000000000000000000000 DUP2 MSTORE PUSH1 0x4 ADD PUSH1 0x40 MLOAD DUP1 SWAP2 SUB SWAP1 REVERT JUMPDEST PUSH3 0xD9 DUP2 PUSH3 0x695 PUSH1 0x20 SHL PUSH1 0x20 SHR JUMP JUMPDEST POP PUSH3 0x144 PUSH32 0xEAFEC4D89FA9619884B60000A4D96624A38F7AC2D8D9A604ECF07C12C77E480C PUSH1 0x0 SHL PUSH1 0x40 MLOAD DUP1 PUSH1 0x40 ADD PUSH1 0x40 MSTORE DUP1 PUSH1 0x4 DUP2 MSTORE PUSH1 0x20 ADD PUSH32 0xA4D9662400000000000000000000000000000000000000000000000000000000 DUP2 MSTORE POP PUSH3 0x759 PUSH1 0x20 SHL PUSH1 0x20 SHR JUMP JUMPDEST PUSH3 0x179 PUSH32 0xDEBA1E292F8BA88238E10AB3C7F88BD4BE4FAC56CAD5194B6ECCEAF653468AF1 PUSH1 0x0 SHL DUP6 PUSH3 0x759 PUSH1 0x20 SHL PUSH1 0x20 SHR JUMP JUMPDEST PUSH3 0x1AE PUSH32 0x2F0A68AB07768E01943A599E73362A0E17A63A72E94DD2E384D2C1D4DB932756 PUSH1 0x0 SHL DUP5 PUSH3 0x759 PUSH1 0x20 SHL PUSH1 0x20 SHR JUMP JUMPDEST PUSH3 0x204 PUSH32 0xE0261FA95DB2EB3B5439BD033CDA66D56B96F92F243A8228FD87550ED7BDFDB3 PUSH1 0x0 SHL DUP3 PUSH1 0x40 MLOAD PUSH1 0x20 ADD PUSH3 0x1E9 SWAP2 SWAP1 PUSH3 0x19B4 JUMP JUMPDEST PUSH1 0x40 MLOAD PUSH1 0x20 DUP2 DUP4 SUB SUB DUP2 MSTORE SWAP1 PUSH1 0x40 MSTORE PUSH3 0x759 PUSH1 0x20 SHL PUSH1 0x20 SHR JUMP JUMPDEST POP POP POP POP PUSH3 0x25E PUSH32 0xF675E9361AF1C1664C1868CFA3EB97672D6B1A513AA5B81DEC34C9EE330E818D PUSH1 0x0 SHL DUP3 PUSH1 0x40 MLOAD PUSH1 0x20 ADD PUSH3 0x243 SWAP2 SWAP1 PUSH3 0x19B4 JUMP JUMPDEST PUSH1 0x40 MLOAD PUSH1 0x20 DUP2 DUP4 SUB SUB DUP2 MSTORE SWAP1 PUSH1 0x40 MSTORE PUSH3 0x7BA PUSH1 0x20 SHL PUSH1 0x20 SHR JUMP JUMPDEST POP POP POP POP POP PUSH1 0x3 DUP2 MLOAD EQ PUSH3 0x2AA JUMPI PUSH1 0x40 MLOAD PUSH32 0x8C379A000000000000000000000000000000000000000000000000000000000 DUP2 MSTORE PUSH1 0x4 ADD PUSH3 0x2A1 SWAP1 PUSH3 0x1A32 JUMP JUMPDEST PUSH1 0x40 MLOAD DUP1 SWAP2 SUB SWAP1 REVERT JUMPDEST DUP2 PUSH1 0x40 MLOAD PUSH1 0x20 ADD PUSH3 0x2BD SWAP2 SWAP1 PUSH3 0x1AA1 JUMP JUMPDEST PUSH1 0x40 MLOAD PUSH1 0x20 DUP2 DUP4 SUB SUB DUP2 MSTORE SWAP1 PUSH1 0x40 MSTORE DUP1 MLOAD SWAP1 PUSH1 0x20 ADD KECCAK256 PUSH1 0x9 DUP2 SWAP1 SSTORE POP DUP1 PUSH1 0x0 DUP2 MLOAD DUP2 LT PUSH3 0x2F0 JUMPI PUSH3 0x2EF PUSH3 0x1ABA JUMP JUMPDEST JUMPDEST PUSH1 0x20 MUL PUSH1 0x20 ADD ADD MLOAD PUSH1 0x8 PUSH1 0x0 DUP1 PUSH1 0x2 DUP2 GT ISZERO PUSH3 0x312 JUMPI PUSH3 0x311 PUSH3 0x1AE9 JUMP JUMPDEST JUMPDEST PUSH1 0x2 DUP2 GT ISZERO PUSH3 0x327 JUMPI PUSH3 0x326 PUSH3 0x1AE9 JUMP JUMPDEST JUMPDEST DUP2 MSTORE PUSH1 0x20 ADD SWAP1 DUP2 MSTORE PUSH1 0x20 ADD PUSH1 0x0 KECCAK256 SWAP1 DUP2 PUSH3 0x343 SWAP2 SWAP1 PUSH3 0x1D4E JUMP JUMPDEST POP DUP1 PUSH1 0x1 DUP2 MLOAD DUP2 LT PUSH3 0x35B JUMPI PUSH3 0x35A PUSH3 0x1ABA JUMP JUMPDEST JUMPDEST PUSH1 0x20 MUL PUSH1 0x20 ADD ADD MLOAD PUSH1 0x8 PUSH1 0x0 PUSH1 0x1 PUSH1 0x2 DUP2 GT ISZERO PUSH3 0x37E JUMPI PUSH3 0x37D PUSH3 0x1AE9 JUMP JUMPDEST JUMPDEST PUSH1 0x2 DUP2 GT ISZERO PUSH3 0x393 JUMPI PUSH3 0x392 PUSH3 0x1AE9 JUMP JUMPDEST JUMPDEST DUP2 MSTORE PUSH1 0x20 ADD SWAP1 DUP2 MSTORE PUSH1 0x20 ADD PUSH1 0x0 KECCAK256 SWAP1 DUP2 PUSH3 0x3AF SWAP2 SWAP1 PUSH3 0x1D4E JUMP JUMPDEST POP DUP1 PUSH1 0x2 DUP2 MLOAD DUP2 LT PUSH3 0x3C7 JUMPI PUSH3 0x3C6 PUSH3 0x1ABA JUMP JUMPDEST JUMPDEST PUSH1 0x20 MUL PUSH1 0x20 ADD ADD MLOAD PUSH1 0x8 PUSH1 0x0 PUSH1 0x2 DUP1 DUP2 GT ISZERO PUSH3 0x3E9 JUMPI PUSH3 0x3E8 PUSH3 0x1AE9 JUMP JUMPDEST JUMPDEST PUSH1 0x2 DUP2 GT ISZERO PUSH3 0x3FE JUMPI PUSH3 0x3FD PUSH3 0x1AE9 JUMP JUMPDEST JUMPDEST DUP2 MSTORE PUSH1 0x20 ADD SWAP1 DUP2 MSTORE PUSH1 0x20 ADD PUSH1 0x0 KECCAK256 SWAP1 DUP2 PUSH3 0x41A SWAP2 SWAP1 PUSH3 0x1D4E JUMP JUMPDEST POP PUSH1 0x0 JUMPDEST PUSH1 0x3 DUP2 PUSH1 0xFF AND LT ISZERO PUSH3 0x67F JUMPI PUSH1 0x0 DUP2 PUSH1 0xFF AND PUSH1 0x2 DUP2 GT ISZERO PUSH3 0x446 JUMPI PUSH3 0x445 PUSH3 0x1AE9 JUMP JUMPDEST JUMPDEST SWAP1 POP PUSH1 0x0 DUP8 DUP3 PUSH32 0x8C14E706F344A21EB23261AB6A4811D5599E56E890562777A6914925A5951273 PUSH1 0x40 MLOAD PUSH1 0x20 ADD PUSH3 0x481 SWAP4 SWAP3 SWAP2 SWAP1 PUSH3 0x1F30 JUMP JUMPDEST PUSH1 0x40 MLOAD PUSH1 0x20 DUP2 DUP4 SUB SUB DUP2 MSTORE SWAP1 PUSH1 0x40 MSTORE DUP1 MLOAD SWAP1 PUSH1 0x20 ADD KECCAK256 SWAP1 POP PUSH3 0x4E3 DUP9 DUP3 PUSH1 0x1 PUSH1 0x40 MLOAD DUP1 PUSH1 0x40 ADD PUSH1 0x40 MSTORE DUP1 PUSH1 0x17 DUP2 MSTORE PUSH1 0x20 ADD PUSH32 0x496E697469616C20466972737420506C616365204E4654000000000000000000 DUP2 MSTORE POP PUSH3 0x932 PUSH1 0x20 SHL PUSH1 0x20 SHR JUMP JUMPDEST PUSH3 0x4F5 DUP2 DUP4 PUSH3 0xBE5 PUSH1 0x20 SHL PUSH1 0x20 SHR JUMP JUMPDEST PUSH3 0x517 ADDRESS DUP3 PUSH1 0x40 MLOAD DUP1 PUSH1 0x20 ADD PUSH1 0x40 MSTORE DUP1 PUSH1 0x0 DUP2 MSTORE POP PUSH3 0xCF5 PUSH1 0x20 SHL PUSH1 0x20 SHR JUMP JUMPDEST PUSH1 0x40 MLOAD DUP1 PUSH1 0x40 ADD PUSH1 0x40 MSTORE DUP1 DUP10 PUSH20 0xFFFFFFFFFFFFFFFFFFFFFFFFFFFFFFFFFFFFFFFF AND DUP2 MSTORE PUSH1 0x20 ADD PUSH1 0x0 DUP2 MSTORE POP PUSH1 0x6 PUSH1 0x0 DUP5 PUSH1 0x2 DUP2 GT ISZERO PUSH3 0x55D JUMPI PUSH3 0x55C PUSH3 0x1AE9 JUMP JUMPDEST JUMPDEST PUSH1 0x2 DUP2 GT ISZERO PUSH3 0x572 JUMPI PUSH3 0x571 PUSH3 0x1AE9 JUMP JUMPDEST JUMPDEST DUP2 MSTORE PUSH1 0x20 ADD SWAP1 DUP2 MSTORE PUSH1 0x20 ADD PUSH1 0x0 KECCAK256 PUSH1 0x0 DUP3 ADD MLOAD DUP2 PUSH1 0x0 ADD PUSH1 0x0 PUSH2 0x100 EXP DUP2 SLOAD DUP2 PUSH20 0xFFFFFFFFFFFFFFFFFFFFFFFFFFFFFFFFFFFFFFFF MUL NOT AND SWAP1 DUP4 PUSH20 0xFFFFFFFFFFFFFFFFFFFFFFFFFFFFFFFFFFFFFFFF AND MUL OR SWAP1 SSTORE POP PUSH1 0x20 DUP3 ADD MLOAD DUP2 PUSH1 0x1 ADD SSTORE SWAP1 POP POP PUSH1 0x1 PUSH1 0x7 PUSH1 0x0 DUP11 PUSH20 0xFFFFFFFFFFFFFFFFFFFFFFFFFFFFFFFFFFFFFFFF AND PUSH20 0xFFFFFFFFFFFFFFFFFFFFFFFFFFFFFFFFFFFFFFFF AND DUP2 MSTORE PUSH1 0x20 ADD SWAP1 DUP2 MSTORE PUSH1 0x20 ADD PUSH1 0x0 KECCAK256 PUSH1 0x0 DUP5 PUSH1 0x2 DUP2 GT ISZERO PUSH3 0x62D JUMPI PUSH3 0x62C PUSH3 0x1AE9 JUMP JUMPDEST JUMPDEST PUSH1 0x2 DUP2 GT ISZERO PUSH3 0x642 JUMPI PUSH3 0x641 PUSH3 0x1AE9 JUMP JUMPDEST JUMPDEST DUP2 MSTORE PUSH1 0x20 ADD SWAP1 DUP2 MSTORE PUSH1 0x20 ADD PUSH1 0x0 KECCAK256 PUSH1 0x0 PUSH2 0x100 EXP DUP2 SLOAD DUP2 PUSH1 0xFF MUL NOT AND SWAP1 DUP4 ISZERO ISZERO MUL OR SWAP1 SSTORE POP POP POP DUP1 DUP1 PUSH3 0x676 SWAP1 PUSH3 0x1FAF JUMP JUMPDEST SWAP2 POP POP PUSH3 0x41E JUMP JUMPDEST POP POP POP POP POP POP POP POP PUSH3 0x25DE JUMP JUMPDEST PUSH1 0x0 CALLER SWAP1 POP SWAP1 JUMP JUMPDEST PUSH1 0x0 DUP1 PUSH1 0x0 SWAP1 SLOAD SWAP1 PUSH2 0x100 EXP SWAP1 DIV PUSH20 0xFFFFFFFFFFFFFFFFFFFFFFFFFFFFFFFFFFFFFFFF AND SWAP1 POP DUP2 PUSH1 0x0 DUP1 PUSH2 0x100 EXP DUP2 SLOAD DUP2 PUSH20 0xFFFFFFFFFFFFFFFFFFFFFFFFFFFFFFFFFFFFFFFF MUL NOT AND SWAP1 DUP4 PUSH20 0xFFFFFFFFFFFFFFFFFFFFFFFFFFFFFFFFFFFFFFFF AND MUL OR SWAP1 SSTORE POP DUP2 PUSH20 0xFFFFFFFFFFFFFFFFFFFFFFFFFFFFFFFFFFFFFFFF AND DUP2 PUSH20 0xFFFFFFFFFFFFFFFFFFFFFFFFFFFFFFFFFFFFFFFF AND PUSH32 0x8BE0079C531659141344CD1FD0A4F28419497F9722A3DAAFE3B4186F6B6457E0 PUSH1 0x40 MLOAD PUSH1 0x40 MLOAD DUP1 SWAP2 SUB SWAP1 LOG3 POP POP JUMP JUMPDEST DUP1 PUSH1 0x1 PUSH1 0x0 DUP5 DUP2 MSTORE PUSH1 0x20 ADD SWAP1 DUP2 MSTORE PUSH1 0x20 ADD PUSH1 0x0 KECCAK256 SWAP1 DUP2 PUSH3 0x77B SWAP2 SWAP1 PUSH3 0x204D JUMP JUMPDEST POP DUP2 PUSH32 0xECE574603820D07BC9B91F2A932BAADF4628AABCB8AFBA49776529C14A6104B2 DUP3 PUSH1 0x40 MLOAD PUSH3 0x7AE SWAP2 SWAP1 PUSH3 0x2186 JUMP JUMPDEST PUSH1 0x40 MLOAD DUP1 SWAP2 SUB SWAP1 LOG2 POP POP JUMP JUMPDEST PUSH32 0xDEBA1E292F8BA88238E10AB3C7F88BD4BE4FAC56CAD5194B6ECCEAF653468AF1 PUSH1 0x0 SHL DUP3 SUB PUSH3 0x817 JUMPI PUSH1 0x40 MLOAD PUSH32 0x85C169BD00000000000000000000000000000000000000000000000000000000 DUP2 MSTORE PUSH1 0x4 ADD PUSH1 0x40 MLOAD DUP1 SWAP2 SUB SWAP1 REVERT JUMPDEST PUSH32 0x2F0A68AB07768E01943A599E73362A0E17A63A72E94DD2E384D2C1D4DB932756 PUSH1 0x0 SHL DUP3 SUB PUSH3 0x874 JUMPI PUSH1 0x40 MLOAD PUSH32 0x76755B3800000000000000000000000000000000000000000000000000000000 DUP2 MSTORE PUSH1 0x4 ADD PUSH1 0x40 MLOAD DUP1 SWAP2 SUB SWAP1 REVERT JUMPDEST PUSH32 0xE0261FA95DB2EB3B5439BD033CDA66D56B96F92F243A8228FD87550ED7BDFDB3 PUSH1 0x0 SHL DUP3 SUB PUSH3 0x8D1 JUMPI PUSH1 0x40 MLOAD PUSH32 0x4EF6D7FB00000000000000000000000000000000000000000000000000000000 DUP2 MSTORE PUSH1 0x4 ADD PUSH1 0x40 MLOAD DUP1 SWAP2 SUB SWAP1 REVERT JUMPDEST DUP1 PUSH1 0x1 PUSH1 0x0 DUP5 DUP2 MSTORE PUSH1 0x20 ADD SWAP1 DUP2 MSTORE PUSH1 0x20 ADD PUSH1 0x0 KECCAK256 SWAP1 DUP2 PUSH3 0x8F3 SWAP2 SWAP1 PUSH3 0x204D JUMP JUMPDEST POP DUP2 PUSH32 0xECE574603820D07BC9B91F2A932BAADF4628AABCB8AFBA49776529C14A6104B2 DUP3 PUSH1 0x40 MLOAD PUSH3 0x926 SWAP2 SWAP1 PUSH3 0x2186 JUMP JUMPDEST PUSH1 0x40 MLOAD DUP1 SWAP2 SUB SWAP1 LOG2 POP POP JUMP JUMPDEST PUSH1 0x0 PUSH20 0xFFFFFFFFFFFFFFFFFFFFFFFFFFFFFFFFFFFFFFFF AND DUP5 PUSH20 0xFFFFFFFFFFFFFFFFFFFFFFFFFFFFFFFFFFFFFFFF AND SUB PUSH3 0x999 JUMPI PUSH1 0x40 MLOAD PUSH32 0x24ECEF4D00000000000000000000000000000000000000000000000000000000 DUP2 MSTORE PUSH1 0x4 ADD PUSH1 0x40 MLOAD DUP1 SWAP2 SUB SWAP1 REVERT JUMPDEST PUSH3 0x9AA DUP4 PUSH3 0xF6F PUSH1 0x20 SHL PUSH1 0x20 SHR JUMP JUMPDEST ISZERO PUSH3 0x9EF JUMPI DUP3 PUSH1 0x40 MLOAD PUSH32 0x34C7B51100000000000000000000000000000000000000000000000000000000 DUP2 MSTORE PUSH1 0x4 ADD PUSH3 0x9E6 SWAP2 SWAP1 PUSH3 0x21BB JUMP JUMPDEST PUSH1 0x40 MLOAD DUP1 SWAP2 SUB SWAP1 REVERT JUMPDEST PUSH3 0xA05 PUSH1 0x0 DUP6 DUP6 DUP6 DUP6 PUSH3 0xFDB PUSH1 0x20 SHL PUSH1 0x20 SHR JUMP JUMPDEST PUSH3 0xA16 DUP4 PUSH3 0xF6F PUSH1 0x20 SHL PUSH1 0x20 SHR JUMP JUMPDEST ISZERO PUSH3 0xA5B JUMPI DUP3 PUSH1 0x40 MLOAD PUSH32 0x34C7B51100000000000000000000000000000000000000000000000000000000 DUP2 MSTORE PUSH1 0x4 ADD PUSH3 0xA52 SWAP2 SWAP1 PUSH3 0x21BB JUMP JUMPDEST PUSH1 0x40 MLOAD DUP1 SWAP2 SUB SWAP1 REVERT JUMPDEST PUSH1 0x2 PUSH1 0x0 DUP2 SLOAD PUSH3 0xA6C SWAP1 PUSH3 0x21D8 JUMP JUMPDEST SWAP2 SWAP1 POP DUP2 SWAP1 SSTORE POP PUSH3 0xAC6 DUP4 PUSH1 0x4 PUSH1 0x0 DUP8 PUSH20 0xFFFFFFFFFFFFFFFFFFFFFFFFFFFFFFFFFFFFFFFF AND PUSH20 0xFFFFFFFFFFFFFFFFFFFFFFFFFFFFFFFFFFFFFFFF AND DUP2 MSTORE PUSH1 0x20 ADD SWAP1 DUP2 MSTORE PUSH1 0x20 ADD PUSH1 0x0 KECCAK256 PUSH3 0xFE2 PUSH1 0x20 SHL SWAP1 SWAP2 SWAP1 PUSH1 0x20 SHR JUMP JUMPDEST POP DUP4 PUSH1 0x3 PUSH1 0x0 DUP6 DUP2 MSTORE PUSH1 0x20 ADD SWAP1 DUP2 MSTORE PUSH1 0x20 ADD PUSH1 0x0 KECCAK256 PUSH1 0x0 PUSH2 0x100 EXP DUP2 SLOAD DUP2 PUSH20 0xFFFFFFFFFFFFFFFFFFFFFFFFFFFFFFFFFFFFFFFF MUL NOT AND SWAP1 DUP4 PUSH20 0xFFFFFFFFFFFFFFFFFFFFFFFFFFFFFFFFFFFFFFFF AND MUL OR SWAP1 SSTORE POP DUP3 DUP5 PUSH20 0xFFFFFFFFFFFFFFFFFFFFFFFFFFFFFFFFFFFFFFFF AND PUSH1 0x0 PUSH20 0xFFFFFFFFFFFFFFFFFFFFFFFFFFFFFFFFFFFFFFFF AND PUSH32 0xB333C813A7426A7A11E2B190CAD52C44119421594B47F6F32ACE6D8C7207B2BF CALLER DUP7 DUP7 PUSH1 0x40 MLOAD PUSH3 0xB7E SWAP4 SWAP3 SWAP2 SWAP1 PUSH3 0x2253 JUMP JUMPDEST PUSH1 0x40 MLOAD DUP1 SWAP2 SUB SWAP1 LOG4 PUSH3 0xB9C PUSH1 0x0 DUP6 DUP6 DUP6 DUP6 PUSH3 0x1001 PUSH1 0x20 SHL PUSH1 0x20 SHR JUMP JUMPDEST PUSH1 0x0 CALLER PUSH1 0x0 DUP7 DUP7 DUP6 PUSH1 0x40 MLOAD PUSH1 0x20 ADD PUSH3 0xBBA SWAP6 SWAP5 SWAP4 SWAP3 SWAP2 SWAP1 PUSH3 0x2297 JUMP JUMPDEST PUSH1 0x40 MLOAD PUSH1 0x20 DUP2 DUP4 SUB SUB DUP2 MSTORE SWAP1 PUSH1 0x40 MSTORE SWAP1 POP PUSH3 0xBDE DUP6 DUP5 DUP4 PUSH3 0x1008 PUSH1 0x20 SHL PUSH1 0x20 SHR JUMP JUMPDEST POP POP POP POP POP JUMP JUMPDEST PUSH1 0x0 PUSH1 0x8 PUSH1 0x0 DUP4 PUSH1 0x2 DUP2 GT ISZERO PUSH3 0xC01 JUMPI PUSH3 0xC00 PUSH3 0x1AE9 JUMP JUMPDEST JUMPDEST PUSH1 0x2 DUP2 GT ISZERO PUSH3 0xC16 JUMPI PUSH3 0xC15 PUSH3 0x1AE9 JUMP JUMPDEST JUMPDEST DUP2 MSTORE PUSH1 0x20 ADD SWAP1 DUP2 MSTORE PUSH1 0x20 ADD PUSH1 0x0 KECCAK256 DUP1 SLOAD PUSH3 0xC31 SWAP1 PUSH3 0x1B47 JUMP JUMPDEST DUP1 PUSH1 0x1F ADD PUSH1 0x20 DUP1 SWAP2 DIV MUL PUSH1 0x20 ADD PUSH1 0x40 MLOAD SWAP1 DUP2 ADD PUSH1 0x40 MSTORE DUP1 SWAP3 SWAP2 SWAP1 DUP2 DUP2 MSTORE PUSH1 0x20 ADD DUP3 DUP1 SLOAD PUSH3 0xC5F SWAP1 PUSH3 0x1B47 JUMP JUMPDEST DUP1 ISZERO PUSH3 0xCB0 JUMPI DUP1 PUSH1 0x1F LT PUSH3 0xC84 JUMPI PUSH2 0x100 DUP1 DUP4 SLOAD DIV MUL DUP4 MSTORE SWAP2 PUSH1 0x20 ADD SWAP2 PUSH3 0xCB0 JUMP JUMPDEST DUP3 ADD SWAP2 SWAP1 PUSH1 0x0 MSTORE PUSH1 0x20 PUSH1 0x0 KECCAK256 SWAP1 JUMPDEST DUP2 SLOAD DUP2 MSTORE SWAP1 PUSH1 0x1 ADD SWAP1 PUSH1 0x20 ADD DUP1 DUP4 GT PUSH3 0xC92 JUMPI DUP3 SWAP1 SUB PUSH1 0x1F AND DUP3 ADD SWAP2 JUMPDEST POP POP POP POP POP SWAP1 POP PUSH1 0x0 DUP2 PUSH1 0x40 MLOAD PUSH1 0x20 ADD PUSH3 0xCCC SWAP2 SWAP1 PUSH3 0x234A JUMP JUMPDEST PUSH1 0x40 MLOAD PUSH1 0x20 DUP2 DUP4 SUB SUB DUP2 MSTORE SWAP1 PUSH1 0x40 MSTORE SWAP1 POP PUSH3 0xCEF DUP5 DUP3 PUSH3 0x1183 PUSH1 0x20 SHL PUSH1 0x20 SHR JUMP JUMPDEST POP POP POP POP JUMP JUMPDEST PUSH1 0x0 PUSH3 0xD08 DUP4 PUSH3 0x11F6 PUSH1 0x20 SHL PUSH1 0x20 SHR JUMP JUMPDEST SWAP1 POP CALLER PUSH20 0xFFFFFFFFFFFFFFFFFFFFFFFFFFFFFFFFFFFFFFFF AND DUP2 PUSH20 0xFFFFFFFFFFFFFFFFFFFFFFFFFFFFFFFFFFFFFFFF AND EQ PUSH3 0xD81 JUMPI DUP1 DUP4 CALLER PUSH1 0x40 MLOAD PUSH32 0x5B271EA200000000000000000000000000000000000000000000000000000000 DUP2 MSTORE PUSH1 0x4 ADD PUSH3 0xD78 SWAP4 SWAP3 SWAP2 SWAP1 PUSH3 0x2370 JUMP JUMPDEST PUSH1 0x40 MLOAD DUP1 SWAP2 SUB SWAP1 REVERT JUMPDEST PUSH1 0x0 PUSH20 0xFFFFFFFFFFFFFFFFFFFFFFFFFFFFFFFFFFFFFFFF AND DUP5 PUSH20 0xFFFFFFFFFFFFFFFFFFFFFFFFFFFFFFFFFFFFFFFF AND SUB PUSH3 0xDE8 JUMPI PUSH1 0x40 MLOAD PUSH32 0x9577B8B300000000000000000000000000000000000000000000000000000000 DUP2 MSTORE PUSH1 0x4 ADD PUSH1 0x40 MLOAD DUP1 SWAP2 SUB SWAP1 REVERT JUMPDEST DUP4 PUSH20 0xFFFFFFFFFFFFFFFFFFFFFFFFFFFFFFFFFFFFFFFF AND DUP2 PUSH20 0xFFFFFFFFFFFFFFFFFFFFFFFFFFFFFFFFFFFFFFFF AND SUB PUSH3 0xE4E JUMPI PUSH1 0x40 MLOAD PUSH32 0x89FDAD6200000000000000000000000000000000000000000000000000000000 DUP2 MSTORE PUSH1 0x4 ADD PUSH1 0x40 MLOAD DUP1 SWAP2 SUB SWAP1 REVERT JUMPDEST PUSH1 0x0 PUSH3 0xE77 DUP6 PUSH1 0x5 PUSH1 0x0 DUP8 DUP2 MSTORE PUSH1 0x20 ADD SWAP1 DUP2 MSTORE PUSH1 0x20 ADD PUSH1 0x0 KECCAK256 PUSH3 0x12AC PUSH1 0x20 SHL SWAP1 SWAP2 SWAP1 PUSH1 0x20 SHR JUMP JUMPDEST SWAP1 POP DUP1 PUSH3 0xEC0 JUMPI DUP5 DUP5 PUSH1 0x40 MLOAD PUSH32 0xA7626B6800000000000000000000000000000000000000000000000000000000 DUP2 MSTORE PUSH1 0x4 ADD PUSH3 0xEB7 SWAP3 SWAP2 SWAP1 PUSH3 0x23AD JUMP JUMPDEST PUSH1 0x40 MLOAD DUP1 SWAP2 SUB SWAP1 REVERT JUMPDEST DUP4 DUP3 PUSH20 0xFFFFFFFFFFFFFFFFFFFFFFFFFFFFFFFFFFFFFFFF AND DUP7 PUSH20 0xFFFFFFFFFFFFFFFFFFFFFFFFFFFFFFFFFFFFFFFF AND PUSH32 0x1B1B58AA2EC0CEC2228B2D37124556D41F5A1F7B12F089171F896CC236671215 DUP7 PUSH1 0x40 MLOAD PUSH3 0xF20 SWAP2 SWAP1 PUSH3 0x2186 JUMP JUMPDEST PUSH1 0x40 MLOAD DUP1 SWAP2 SUB SWAP1 LOG4 PUSH1 0x0 CALLER DUP6 PUSH1 0x1 DUP7 PUSH1 0x40 MLOAD PUSH1 0x20 ADD PUSH3 0xF44 SWAP5 SWAP4 SWAP3 SWAP2 SWAP1 PUSH3 0x23DA JUMP JUMPDEST PUSH1 0x40 MLOAD PUSH1 0x20 DUP2 DUP4 SUB SUB DUP2 MSTORE SWAP1 PUSH1 0x40 MSTORE SWAP1 POP PUSH3 0xF67 DUP7 DUP3 PUSH3 0x12E4 PUSH1 0x20 SHL PUSH1 0x20 SHR JUMP JUMPDEST POP POP POP POP POP POP JUMP JUMPDEST PUSH1 0x0 DUP1 PUSH20 0xFFFFFFFFFFFFFFFFFFFFFFFFFFFFFFFFFFFFFFFF AND PUSH1 0x3 PUSH1 0x0 DUP5 DUP2 MSTORE PUSH1 0x20 ADD SWAP1 DUP2 MSTORE PUSH1 0x20 ADD PUSH1 0x0 KECCAK256 PUSH1 0x0 SWAP1 SLOAD SWAP1 PUSH2 0x100 EXP SWAP1 DIV PUSH20 0xFFFFFFFFFFFFFFFFFFFFFFFFFFFFFFFFFFFFFFFF AND PUSH20 0xFFFFFFFFFFFFFFFFFFFFFFFFFFFFFFFFFFFFFFFF AND EQ ISZERO SWAP1 POP SWAP2 SWAP1 POP JUMP JUMPDEST POP POP POP POP POP JUMP JUMPDEST PUSH1 0x0 PUSH3 0xFF9 DUP4 PUSH1 0x0 ADD DUP4 PUSH3 0x131E PUSH1 0x20 SHL PUSH1 0x20 SHR JUMP JUMPDEST SWAP1 POP SWAP3 SWAP2 POP POP JUMP JUMPDEST POP POP POP POP POP JUMP JUMPDEST PUSH3 0x1021 DUP4 PUSH4 0x6BB56A14 PUSH1 0xE0 SHL PUSH3 0x1398 PUSH1 0x20 SHL PUSH1 0x20 SHR JUMP JUMPDEST ISZERO PUSH3 0x10D9 JUMPI DUP3 PUSH20 0xFFFFFFFFFFFFFFFFFFFFFFFFFFFFFFFFFFFFFFFF AND PUSH4 0x6BB56A14 PUSH32 0xB084A55EBF70FD3C06FD755269DAC2212C4D3F0F4D09079780BFA50C1B2984D PUSH1 0x0 SHL DUP4 PUSH1 0x40 MLOAD DUP4 PUSH4 0xFFFFFFFF AND PUSH1 0xE0 SHL DUP2 MSTORE PUSH1 0x4 ADD PUSH3 0x1087 SWAP3 SWAP2 SWAP1 PUSH3 0x242E JUMP JUMPDEST PUSH1 0x0 PUSH1 0x40 MLOAD DUP1 DUP4 SUB DUP2 PUSH1 0x0 DUP8 GAS CALL ISZERO DUP1 ISZERO PUSH3 0x10A7 JUMPI RETURNDATASIZE PUSH1 0x0 DUP1 RETURNDATACOPY RETURNDATASIZE PUSH1 0x0 REVERT JUMPDEST POP POP POP POP PUSH1 0x40 MLOAD RETURNDATASIZE PUSH1 0x0 DUP3 RETURNDATACOPY RETURNDATASIZE PUSH1 0x1F NOT PUSH1 0x1F DUP3 ADD AND DUP3 ADD DUP1 PUSH1 0x40 MSTORE POP DUP2 ADD SWAP1 PUSH3 0x10D2 SWAP2 SWAP1 PUSH3 0x2516 JUMP JUMPDEST POP PUSH3 0x117E JUMP JUMPDEST DUP2 PUSH3 0x117D JUMPI PUSH1 0x0 DUP4 PUSH20 0xFFFFFFFFFFFFFFFFFFFFFFFFFFFFFFFFFFFFFFFF AND EXTCODESIZE EQ PUSH3 0x113E JUMPI DUP3 PUSH1 0x40 MLOAD PUSH32 0x4349776D00000000000000000000000000000000000000000000000000000000 DUP2 MSTORE PUSH1 0x4 ADD PUSH3 0x1135 SWAP2 SWAP1 PUSH3 0x2567 JUMP JUMPDEST PUSH1 0x40 MLOAD DUP1 SWAP2 SUB SWAP1 REVERT JUMPDEST DUP3 PUSH1 0x40 MLOAD PUSH32 0x317313700000000000000000000000000000000000000000000000000000000 DUP2 MSTORE PUSH1 0x4 ADD PUSH3 0x1174 SWAP2 SWAP1 PUSH3 0x2567 JUMP JUMPDEST PUSH1 0x40 MLOAD DUP1 SWAP2 SUB SWAP1 REVERT JUMPDEST JUMPDEST POP POP POP JUMP JUMPDEST PUSH32 0xF675E9361AF1C1664C1868CFA3EB97672D6B1A513AA5B81DEC34C9EE330E818D PUSH1 0x0 SHL DUP3 SUB PUSH3 0x11E0 JUMPI PUSH1 0x40 MLOAD PUSH32 0x3664800A00000000000000000000000000000000000000000000000000000000 DUP2 MSTORE PUSH1 0x4 ADD PUSH1 0x40 MLOAD DUP1 SWAP2 SUB SWAP1 REVERT JUMPDEST PUSH3 0x11F2 DUP3 DUP3 PUSH3 0x7BA PUSH1 0x20 SHL PUSH1 0x20 SHR JUMP JUMPDEST POP POP JUMP JUMPDEST PUSH1 0x0 DUP1 PUSH1 0x3 PUSH1 0x0 DUP5 DUP2 MSTORE PUSH1 0x20 ADD SWAP1 DUP2 MSTORE PUSH1 0x20 ADD PUSH1 0x0 KECCAK256 PUSH1 0x0 SWAP1 SLOAD SWAP1 PUSH2 0x100 EXP SWAP1 DIV PUSH20 0xFFFFFFFFFFFFFFFFFFFFFFFFFFFFFFFFFFFFFFFF AND SWAP1 POP PUSH1 0x0 PUSH20 0xFFFFFFFFFFFFFFFFFFFFFFFFFFFFFFFFFFFFFFFF AND DUP2 PUSH20 0xFFFFFFFFFFFFFFFFFFFFFFFFFFFFFFFFFFFFFFFF AND SUB PUSH3 0x12A3 JUMPI DUP3 PUSH1 0x40 MLOAD PUSH32 0xAE8F9A3600000000000000000000000000000000000000000000000000000000 DUP2 MSTORE PUSH1 0x4 ADD PUSH3 0x129A SWAP2 SWAP1 PUSH3 0x21BB JUMP JUMPDEST PUSH1 0x40 MLOAD DUP1 SWAP2 SUB SWAP1 REVERT JUMPDEST DUP1 SWAP2 POP POP SWAP2 SWAP1 POP JUMP JUMPDEST PUSH1 0x0 PUSH3 0x12DC DUP4 PUSH1 0x0 ADD DUP4 PUSH20 0xFFFFFFFFFFFFFFFFFFFFFFFFFFFFFFFFFFFFFFFF AND PUSH1 0x0 SHL PUSH3 0x131E PUSH1 0x20 SHL PUSH1 0x20 SHR JUMP JUMPDEST SWAP1 POP SWAP3 SWAP2 POP POP JUMP JUMPDEST PUSH3 0x131A DUP3 PUSH32 0x8A1C15A8799F71B547E08E2BCB2E85257E81B0A07EEE2CE6712549EEF1F00970 PUSH1 0x0 SHL DUP4 PUSH3 0x145B PUSH1 0x20 SHL PUSH1 0x20 SHR JUMP JUMPDEST POP POP JUMP JUMPDEST PUSH1 0x0 PUSH3 0x1332 DUP4 DUP4 PUSH3 0x1522 PUSH1 0x20 SHL PUSH1 0x20 SHR JUMP JUMPDEST PUSH3 0x138D JUMPI DUP3 PUSH1 0x0 ADD DUP3 SWAP1 DUP1 PUSH1 0x1 DUP2 SLOAD ADD DUP1 DUP3 SSTORE DUP1 SWAP2 POP POP PUSH1 0x1 SWAP1 SUB SWAP1 PUSH1 0x0 MSTORE PUSH1 0x20 PUSH1 0x0 KECCAK256 ADD PUSH1 0x0 SWAP1 SWAP2 SWAP1 SWAP2 SWAP1 SWAP2 POP SSTORE DUP3 PUSH1 0x0 ADD DUP1 SLOAD SWAP1 POP DUP4 PUSH1 0x1 ADD PUSH1 0x0 DUP5 DUP2 MSTORE PUSH1 0x20 ADD SWAP1 DUP2 MSTORE PUSH1 0x20 ADD PUSH1 0x0 KECCAK256 DUP2 SWAP1 SSTORE POP PUSH1 0x1 SWAP1 POP PUSH3 0x1392 JUMP JUMPDEST PUSH1 0x0 SWAP1 POP JUMPDEST SWAP3 SWAP2 POP POP JUMP JUMPDEST PUSH1 0x0 DUP1 PUSH4 0x1FFC9A7 PUSH1 0xE0 SHL DUP4 PUSH1 0x40 MLOAD PUSH1 0x24 ADD PUSH3 0x13B6 SWAP2 SWAP1 PUSH3 0x25C1 JUMP JUMPDEST PUSH1 0x40 MLOAD PUSH1 0x20 DUP2 DUP4 SUB SUB DUP2 MSTORE SWAP1 PUSH1 0x40 MSTORE SWAP1 PUSH28 0xFFFFFFFFFFFFFFFFFFFFFFFFFFFFFFFFFFFFFFFFFFFFFFFFFFFFFFFF NOT AND PUSH1 0x20 DUP3 ADD DUP1 MLOAD PUSH28 0xFFFFFFFFFFFFFFFFFFFFFFFFFFFFFFFFFFFFFFFFFFFFFFFFFFFFFFFF DUP4 DUP2 DUP4 AND OR DUP4 MSTORE POP POP POP POP SWAP1 POP PUSH1 0x0 DUP1 PUSH1 0x0 PUSH1 0x20 PUSH1 0x0 DUP6 MLOAD PUSH1 0x20 DUP8 ADD DUP11 PUSH2 0x7530 STATICCALL SWAP3 POP RETURNDATASIZE SWAP2 POP PUSH1 0x0 MLOAD SWAP1 POP DUP3 DUP1 ISZERO PUSH3 0x1442 JUMPI POP PUSH1 0x20 DUP3 LT ISZERO JUMPDEST DUP1 ISZERO PUSH3 0x144F JUMPI POP PUSH1 0x0 DUP2 GT JUMPDEST SWAP5 POP POP POP POP POP SWAP3 SWAP2 POP POP JUMP JUMPDEST PUSH3 0x148D PUSH4 0x6BB56A14 PUSH1 0xE0 SHL DUP5 PUSH20 0xFFFFFFFFFFFFFFFFFFFFFFFFFFFFFFFFFFFFFFFF AND PUSH3 0x1398 PUSH1 0x20 SHL SWAP1 SWAP2 SWAP1 PUSH1 0x20 SHR JUMP JUMPDEST ISZERO PUSH3 0x151D JUMPI DUP3 PUSH20 0xFFFFFFFFFFFFFFFFFFFFFFFFFFFFFFFFFFFFFFFF AND PUSH4 0x6BB56A14 DUP4 DUP4 PUSH1 0x40 MLOAD DUP4 PUSH4 0xFFFFFFFF AND PUSH1 0xE0 SHL DUP2 MSTORE PUSH1 0x4 ADD PUSH3 0x14D0 SWAP3 SWAP2 SWAP1 PUSH3 0x242E JUMP JUMPDEST PUSH1 0x0 PUSH1 0x40 MLOAD DUP1 DUP4 SUB DUP2 PUSH1 0x0 DUP8 GAS CALL ISZERO DUP1 ISZERO PUSH3 0x14F0 JUMPI RETURNDATASIZE PUSH1 0x0 DUP1 RETURNDATACOPY RETURNDATASIZE PUSH1 0x0 REVERT JUMPDEST POP POP POP POP PUSH1 0x40 MLOAD RETURNDATASIZE PUSH1 0x0 DUP3 RETURNDATACOPY RETURNDATASIZE PUSH1 0x1F NOT PUSH1 0x1F DUP3 ADD AND DUP3 ADD DUP1 PUSH1 0x40 MSTORE POP DUP2 ADD SWAP1 PUSH3 0x151B SWAP2 SWAP1 PUSH3 0x2516 JUMP JUMPDEST POP JUMPDEST POP POP POP JUMP JUMPDEST PUSH1 0x0 DUP1 DUP4 PUSH1 0x1 ADD PUSH1 0x0 DUP5 DUP2 MSTORE PUSH1 0x20 ADD SWAP1 DUP2 MSTORE PUSH1 0x20 ADD PUSH1 0x0 KECCAK256 SLOAD EQ ISZERO SWAP1 POP SWAP3 SWAP2 POP POP JUMP JUMPDEST PUSH1 0x0 PUSH1 0x40 MLOAD SWAP1 POP SWAP1 JUMP JUMPDEST PUSH1 0x0 DUP1 REVERT JUMPDEST PUSH1 0x0 DUP1 REVERT JUMPDEST PUSH1 0x0 DUP1 REVERT JUMPDEST PUSH1 0x0 DUP1 REVERT JUMPDEST PUSH1 0x0 PUSH1 0x1F NOT PUSH1 0x1F DUP4 ADD AND SWAP1 POP SWAP2 SWAP1 POP JUMP JUMPDEST PUSH32 0x4E487B7100000000000000000000000000000000000000000000000000000000 PUSH1 0x0 MSTORE PUSH1 0x41 PUSH1 0x4 MSTORE PUSH1 0x24 PUSH1 0x0 REVERT JUMPDEST PUSH3 0x15AE DUP3 PUSH3 0x1563 JUMP JUMPDEST DUP2 ADD DUP2 DUP2 LT PUSH8 0xFFFFFFFFFFFFFFFF DUP3 GT OR ISZERO PUSH3 0x15D0 JUMPI PUSH3 0x15CF PUSH3 0x1574 JUMP JUMPDEST JUMPDEST DUP1 PUSH1 0x40 MSTORE POP POP POP JUMP JUMPDEST PUSH1 0x0 PUSH3 0x15E5 PUSH3 0x1545 JUMP JUMPDEST SWAP1 POP PUSH3 0x15F3 DUP3 DUP3 PUSH3 0x15A3 JUMP JUMPDEST SWAP2 SWAP1 POP JUMP JUMPDEST PUSH1 0x0 PUSH8 0xFFFFFFFFFFFFFFFF DUP3 GT ISZERO PUSH3 0x1616 JUMPI PUSH3 0x1615 PUSH3 0x1574 JUMP JUMPDEST JUMPDEST PUSH3 0x1621 DUP3 PUSH3 0x1563 JUMP JUMPDEST SWAP1 POP PUSH1 0x20 DUP2 ADD SWAP1 POP SWAP2 SWAP1 POP JUMP JUMPDEST PUSH1 0x0 JUMPDEST DUP4 DUP2 LT ISZERO PUSH3 0x164E JUMPI DUP1 DUP3 ADD MLOAD DUP2 DUP5 ADD MSTORE PUSH1 0x20 DUP2 ADD SWAP1 POP PUSH3 0x1631 JUMP JUMPDEST PUSH1 0x0 DUP5 DUP5 ADD MSTORE POP POP POP POP JUMP JUMPDEST PUSH1 0x0 PUSH3 0x1671 PUSH3 0x166B DUP5 PUSH3 0x15F8 JUMP JUMPDEST PUSH3 0x15D9 JUMP JUMPDEST SWAP1 POP DUP3 DUP2 MSTORE PUSH1 0x20 DUP2 ADD DUP5 DUP5 DUP5 ADD GT ISZERO PUSH3 0x1690 JUMPI PUSH3 0x168F PUSH3 0x155E JUMP JUMPDEST JUMPDEST PUSH3 0x169D DUP5 DUP3 DUP6 PUSH3 0x162E JUMP JUMPDEST POP SWAP4 SWAP3 POP POP POP JUMP JUMPDEST PUSH1 0x0 DUP3 PUSH1 0x1F DUP4 ADD SLT PUSH3 0x16BD JUMPI PUSH3 0x16BC PUSH3 0x1559 JUMP JUMPDEST JUMPDEST DUP2 MLOAD PUSH3 0x16CF DUP5 DUP3 PUSH1 0x20 DUP7 ADD PUSH3 0x165A JUMP JUMPDEST SWAP2 POP POP SWAP3 SWAP2 POP POP JUMP JUMPDEST PUSH1 0x0 PUSH20 0xFFFFFFFFFFFFFFFFFFFFFFFFFFFFFFFFFFFFFFFF DUP3 AND SWAP1 POP SWAP2 SWAP1 POP JUMP JUMPDEST PUSH1 0x0 PUSH3 0x1705 DUP3 PUSH3 0x16D8 JUMP JUMPDEST SWAP1 POP SWAP2 SWAP1 POP JUMP JUMPDEST PUSH3 0x1717 DUP2 PUSH3 0x16F8 JUMP JUMPDEST DUP2 EQ PUSH3 0x1723 JUMPI PUSH1 0x0 DUP1 REVERT JUMPDEST POP JUMP JUMPDEST PUSH1 0x0 DUP2 MLOAD SWAP1 POP PUSH3 0x1737 DUP2 PUSH3 0x170C JUMP JUMPDEST SWAP3 SWAP2 POP POP JUMP JUMPDEST PUSH1 0x0 DUP2 SWAP1 POP SWAP2 SWAP1 POP JUMP JUMPDEST PUSH3 0x1752 DUP2 PUSH3 0x173D JUMP JUMPDEST DUP2 EQ PUSH3 0x175E JUMPI PUSH1 0x0 DUP1 REVERT JUMPDEST POP JUMP JUMPDEST PUSH1 0x0 DUP2 MLOAD SWAP1 POP PUSH3 0x1772 DUP2 PUSH3 0x1747 JUMP JUMPDEST SWAP3 SWAP2 POP POP JUMP JUMPDEST PUSH1 0x0 PUSH8 0xFFFFFFFFFFFFFFFF DUP3 GT ISZERO PUSH3 0x1796 JUMPI PUSH3 0x1795 PUSH3 0x1574 JUMP JUMPDEST JUMPDEST PUSH1 0x20 DUP3 MUL SWAP1 POP PUSH1 0x20 DUP2 ADD SWAP1 POP SWAP2 SWAP1 POP JUMP JUMPDEST PUSH1 0x0 DUP1 REVERT JUMPDEST PUSH1 0x0 PUSH3 0x17C3 PUSH3 0x17BD DUP5 PUSH3 0x1778 JUMP JUMPDEST PUSH3 0x15D9 JUMP JUMPDEST SWAP1 POP DUP1 DUP4 DUP3 MSTORE PUSH1 0x20 DUP3 ADD SWAP1 POP PUSH1 0x20 DUP5 MUL DUP4 ADD DUP6 DUP2 GT ISZERO PUSH3 0x17E9 JUMPI PUSH3 0x17E8 PUSH3 0x17A7 JUMP JUMPDEST JUMPDEST DUP4 JUMPDEST DUP2 DUP2 LT ISZERO PUSH3 0x1837 JUMPI DUP1 MLOAD PUSH8 0xFFFFFFFFFFFFFFFF DUP2 GT ISZERO PUSH3 0x1812 JUMPI PUSH3 0x1811 PUSH3 0x1559 JUMP JUMPDEST JUMPDEST DUP1 DUP7 ADD PUSH3 0x1821 DUP10 DUP3 PUSH3 0x16A5 JUMP JUMPDEST DUP6 MSTORE PUSH1 0x20 DUP6 ADD SWAP5 POP POP POP PUSH1 0x20 DUP2 ADD SWAP1 POP PUSH3 0x17EB JUMP JUMPDEST POP POP POP SWAP4 SWAP3 POP POP POP JUMP JUMPDEST PUSH1 0x0 DUP3 PUSH1 0x1F DUP4 ADD SLT PUSH3 0x1859 JUMPI PUSH3 0x1858 PUSH3 0x1559 JUMP JUMPDEST JUMPDEST DUP2 MLOAD PUSH3 0x186B DUP5 DUP3 PUSH1 0x20 DUP7 ADD PUSH3 0x17AC JUMP JUMPDEST SWAP2 POP POP SWAP3 SWAP2 POP POP JUMP JUMPDEST PUSH1 0x0 DUP1 PUSH1 0x0 DUP1 PUSH1 0x0 DUP1 PUSH1 0x0 PUSH1 0xE0 DUP9 DUP11 SUB SLT ISZERO PUSH3 0x1896 JUMPI PUSH3 0x1895 PUSH3 0x154F JUMP JUMPDEST JUMPDEST PUSH1 0x0 DUP9 ADD MLOAD PUSH8 0xFFFFFFFFFFFFFFFF DUP2 GT ISZERO PUSH3 0x18B7 JUMPI PUSH3 0x18B6 PUSH3 0x1554 JUMP JUMPDEST JUMPDEST PUSH3 0x18C5 DUP11 DUP3 DUP12 ADD PUSH3 0x16A5 JUMP JUMPDEST SWAP8 POP POP PUSH1 0x20 DUP9 ADD MLOAD PUSH8 0xFFFFFFFFFFFFFFFF DUP2 GT ISZERO PUSH3 0x18E9 JUMPI PUSH3 0x18E8 PUSH3 0x1554 JUMP JUMPDEST JUMPDEST PUSH3 0x18F7 DUP11 DUP3 DUP12 ADD PUSH3 0x16A5 JUMP JUMPDEST SWAP7 POP POP PUSH1 0x40 PUSH3 0x190A DUP11 DUP3 DUP12 ADD PUSH3 0x1726 JUMP JUMPDEST SWAP6 POP POP PUSH1 0x60 PUSH3 0x191D DUP11 DUP3 DUP12 ADD PUSH3 0x1761 JUMP JUMPDEST SWAP5 POP POP PUSH1 0x80 PUSH3 0x1930 DUP11 DUP3 DUP12 ADD PUSH3 0x1761 JUMP JUMPDEST SWAP4 POP POP PUSH1 0xA0 DUP9 ADD MLOAD PUSH8 0xFFFFFFFFFFFFFFFF DUP2 GT ISZERO PUSH3 0x1954 JUMPI PUSH3 0x1953 PUSH3 0x1554 JUMP JUMPDEST JUMPDEST PUSH3 0x1962 DUP11 DUP3 DUP12 ADD PUSH3 0x16A5 JUMP JUMPDEST SWAP3 POP POP PUSH1 0xC0 DUP9 ADD MLOAD PUSH8 0xFFFFFFFFFFFFFFFF DUP2 GT ISZERO PUSH3 0x1986 JUMPI PUSH3 0x1985 PUSH3 0x1554 JUMP JUMPDEST JUMPDEST PUSH3 0x1994 DUP11 DUP3 DUP12 ADD PUSH3 0x1841 JUMP JUMPDEST SWAP2 POP POP SWAP3 SWAP6 SWAP9 SWAP2 SWAP5 SWAP8 POP SWAP3 SWAP6 POP JUMP JUMPDEST PUSH3 0x19AE DUP2 PUSH3 0x173D JUMP JUMPDEST DUP3 MSTORE POP POP JUMP JUMPDEST PUSH1 0x0 PUSH1 0x20 DUP3 ADD SWAP1 POP PUSH3 0x19CB PUSH1 0x0 DUP4 ADD DUP5 PUSH3 0x19A3 JUMP JUMPDEST SWAP3 SWAP2 POP POP JUMP JUMPDEST PUSH1 0x0 DUP3 DUP3 MSTORE PUSH1 0x20 DUP3 ADD SWAP1 POP SWAP3 SWAP2 POP POP JUMP JUMPDEST PUSH32 0x4D7573742070726F766964652033206D65746164617461205552497300000000 PUSH1 0x0 DUP3 ADD MSTORE POP JUMP JUMPDEST PUSH1 0x0 PUSH3 0x1A1A PUSH1 0x1C DUP4 PUSH3 0x19D1 JUMP JUMPDEST SWAP2 POP PUSH3 0x1A27 DUP3 PUSH3 0x19E2 JUMP JUMPDEST PUSH1 0x20 DUP3 ADD SWAP1 POP SWAP2 SWAP1 POP JUMP JUMPDEST PUSH1 0x0 PUSH1 0x20 DUP3 ADD SWAP1 POP DUP2 DUP2 SUB PUSH1 0x0 DUP4 ADD MSTORE PUSH3 0x1A4D DUP2 PUSH3 0x1A0B JUMP JUMPDEST SWAP1 POP SWAP2 SWAP1 POP JUMP JUMPDEST PUSH1 0x0 DUP2 MLOAD SWAP1 POP SWAP2 SWAP1 POP JUMP JUMPDEST PUSH1 0x0 DUP2 SWAP1 POP SWAP3 SWAP2 POP POP JUMP JUMPDEST PUSH1 0x0 PUSH3 0x1A77 DUP3 PUSH3 0x1A54 JUMP JUMPDEST PUSH3 0x1A83 DUP2 DUP6 PUSH3 0x1A5F JUMP JUMPDEST SWAP4 POP PUSH3 0x1A95 DUP2 DUP6 PUSH1 0x20 DUP7 ADD PUSH3 0x162E JUMP JUMPDEST DUP1 DUP5 ADD SWAP2 POP POP SWAP3 SWAP2 POP POP JUMP JUMPDEST PUSH1 0x0 PUSH3 0x1AAF DUP3 DUP5 PUSH3 0x1A6A JUMP JUMPDEST SWAP2 POP DUP2 SWAP1 POP SWAP3 SWAP2 POP POP JUMP JUMPDEST PUSH32 0x4E487B7100000000000000000000000000000000000000000000000000000000 PUSH1 0x0 MSTORE PUSH1 0x32 PUSH1 0x4 MSTORE PUSH1 0x24 PUSH1 0x0 REVERT JUMPDEST PUSH32 0x4E487B7100000000000000000000000000000000000000000000000000000000 PUSH1 0x0 MSTORE PUSH1 0x21 PUSH1 0x4 MSTORE PUSH1 0x24 PUSH1 0x0 REVERT JUMPDEST PUSH32 0x4E487B7100000000000000000000000000000000000000000000000000000000 PUSH1 0x0 MSTORE PUSH1 0x22 PUSH1 0x4 MSTORE PUSH1 0x24 PUSH1 0x0 REVERT JUMPDEST PUSH1 0x0 PUSH1 0x2 DUP3 DIV SWAP1 POP PUSH1 0x1 DUP3 AND DUP1 PUSH3 0x1B60 JUMPI PUSH1 0x7F DUP3 AND SWAP2 POP JUMPDEST PUSH1 0x20 DUP3 LT DUP2 SUB PUSH3 0x1B76 JUMPI PUSH3 0x1B75 PUSH3 0x1B18 JUMP JUMPDEST JUMPDEST POP SWAP2 SWAP1 POP JUMP JUMPDEST PUSH1 0x0 DUP2 SWAP1 POP DUP2 PUSH1 0x0 MSTORE PUSH1 0x20 PUSH1 0x0 KECCAK256 SWAP1 POP SWAP2 SWAP1 POP JUMP JUMPDEST PUSH1 0x0 PUSH1 0x20 PUSH1 0x1F DUP4 ADD DIV SWAP1 POP SWAP2 SWAP1 POP JUMP JUMPDEST PUSH1 0x0 DUP3 DUP3 SHL SWAP1 POP SWAP3 SWAP2 POP POP JUMP JUMPDEST PUSH1 0x0 PUSH1 0x8 DUP4 MUL PUSH3 0x1BE0 PUSH32 0xFFFFFFFFFFFFFFFFFFFFFFFFFFFFFFFFFFFFFFFFFFFFFFFFFFFFFFFFFFFFFFFF DUP3 PUSH3 0x1BA1 JUMP JUMPDEST PUSH3 0x1BEC DUP7 DUP4 PUSH3 0x1BA1 JUMP JUMPDEST SWAP6 POP DUP1 NOT DUP5 AND SWAP4 POP DUP1 DUP7 AND DUP5 OR SWAP3 POP POP POP SWAP4 SWAP3 POP POP POP JUMP JUMPDEST PUSH1 0x0 DUP2 SWAP1 POP SWAP2 SWAP1 POP JUMP JUMPDEST PUSH1 0x0 PUSH3 0x1C2F PUSH3 0x1C29 PUSH3 0x1C23 DUP5 PUSH3 0x173D JUMP JUMPDEST PUSH3 0x1C04 JUMP JUMPDEST PUSH3 0x173D JUMP JUMPDEST SWAP1 POP SWAP2 SWAP1 POP JUMP JUMPDEST PUSH1 0x0 DUP2 SWAP1 POP SWAP2 SWAP1 POP JUMP JUMPDEST PUSH3 0x1C4B DUP4 PUSH3 0x1C0E JUMP JUMPDEST PUSH3 0x1C63 PUSH3 0x1C5A DUP3 PUSH3 0x1C36 JUMP JUMPDEST DUP5 DUP5 SLOAD PUSH3 0x1BAE JUMP JUMPDEST DUP3 SSTORE POP POP POP POP JUMP JUMPDEST PUSH1 0x0 SWAP1 JUMP JUMPDEST PUSH3 0x1C7A PUSH3 0x1C6B JUMP JUMPDEST PUSH3 0x1C87 DUP2 DUP5 DUP5 PUSH3 0x1C40 JUMP JUMPDEST POP POP POP JUMP JUMPDEST JUMPDEST DUP2 DUP2 LT ISZERO PUSH3 0x1CAF JUMPI PUSH3 0x1CA3 PUSH1 0x0 DUP3 PUSH3 0x1C70 JUMP JUMPDEST PUSH1 0x1 DUP2 ADD SWAP1 POP PUSH3 0x1C8D JUMP JUMPDEST POP POP JUMP JUMPDEST PUSH1 0x1F DUP3 GT ISZERO PUSH3 0x1CFE JUMPI PUSH3 0x1CC8 DUP2 PUSH3 0x1B7C JUMP JUMPDEST PUSH3 0x1CD3 DUP5 PUSH3 0x1B91 JUMP JUMPDEST DUP2 ADD PUSH1 0x20 DUP6 LT ISZERO PUSH3 0x1CE3 JUMPI DUP2 SWAP1 POP JUMPDEST PUSH3 0x1CFB PUSH3 0x1CF2 DUP6 PUSH3 0x1B91 JUMP JUMPDEST DUP4 ADD DUP3 PUSH3 0x1C8C JUMP JUMPDEST POP POP JUMPDEST POP POP POP JUMP JUMPDEST PUSH1 0x0 DUP3 DUP3 SHR SWAP1 POP SWAP3 SWAP2 POP POP JUMP JUMPDEST PUSH1 0x0 PUSH3 0x1D23 PUSH1 0x0 NOT DUP5 PUSH1 0x8 MUL PUSH3 0x1D03 JUMP JUMPDEST NOT DUP1 DUP4 AND SWAP2 POP POP SWAP3 SWAP2 POP POP JUMP JUMPDEST PUSH1 0x0 PUSH3 0x1D3E DUP4 DUP4 PUSH3 0x1D10 JUMP JUMPDEST SWAP2 POP DUP3 PUSH1 0x2 MUL DUP3 OR SWAP1 POP SWAP3 SWAP2 POP POP JUMP JUMPDEST PUSH3 0x1D59 DUP3 PUSH3 0x1A54 JUMP JUMPDEST PUSH8 0xFFFFFFFFFFFFFFFF DUP2 GT ISZERO PUSH3 0x1D75 JUMPI PUSH3 0x1D74 PUSH3 0x1574 JUMP JUMPDEST JUMPDEST PUSH3 0x1D81 DUP3 SLOAD PUSH3 0x1B47 JUMP JUMPDEST PUSH3 0x1D8E DUP3 DUP3 DUP6 PUSH3 0x1CB3 JUMP JUMPDEST PUSH1 0x0 PUSH1 0x20 SWAP1 POP PUSH1 0x1F DUP4 GT PUSH1 0x1 DUP2 EQ PUSH3 0x1DC6 JUMPI PUSH1 0x0 DUP5 ISZERO PUSH3 0x1DB1 JUMPI DUP3 DUP8 ADD MLOAD SWAP1 POP JUMPDEST PUSH3 0x1DBD DUP6 DUP3 PUSH3 0x1D30 JUMP JUMPDEST DUP7 SSTORE POP PUSH3 0x1E2D JUMP JUMPDEST PUSH1 0x1F NOT DUP5 AND PUSH3 0x1DD6 DUP7 PUSH3 0x1B7C JUMP JUMPDEST PUSH1 0x0 JUMPDEST DUP3 DUP2 LT ISZERO PUSH3 0x1E00 JUMPI DUP5 DUP10 ADD MLOAD DUP3 SSTORE PUSH1 0x1 DUP3 ADD SWAP2 POP PUSH1 0x20 DUP6 ADD SWAP5 POP PUSH1 0x20 DUP2 ADD SWAP1 POP PUSH3 0x1DD9 JUMP JUMPDEST DUP7 DUP4 LT ISZERO PUSH3 0x1E20 JUMPI DUP5 DUP10 ADD MLOAD PUSH3 0x1E1C PUSH1 0x1F DUP10 AND DUP3 PUSH3 0x1D10 JUMP JUMPDEST DUP4 SSTORE POP JUMPDEST PUSH1 0x1 PUSH1 0x2 DUP9 MUL ADD DUP9 SSTORE POP POP POP JUMPDEST POP POP POP POP POP POP JUMP JUMPDEST PUSH1 0x0 DUP2 PUSH1 0x60 SHL SWAP1 POP SWAP2 SWAP1 POP JUMP JUMPDEST PUSH1 0x0 PUSH3 0x1E4F DUP3 PUSH3 0x1E35 JUMP JUMPDEST SWAP1 POP SWAP2 SWAP1 POP JUMP JUMPDEST PUSH1 0x0 PUSH3 0x1E63 DUP3 PUSH3 0x1E42 JUMP JUMPDEST SWAP1 POP SWAP2 SWAP1 POP JUMP JUMPDEST PUSH3 0x1E7F PUSH3 0x1E79 DUP3 PUSH3 0x16F8 JUMP JUMPDEST PUSH3 0x1E56 JUMP JUMPDEST DUP3 MSTORE POP POP JUMP JUMPDEST PUSH1 0x3 DUP2 LT PUSH3 0x1E99 JUMPI PUSH3 0x1E98 PUSH3 0x1AE9 JUMP JUMPDEST JUMPDEST POP JUMP JUMPDEST PUSH1 0x0 DUP2 SWAP1 POP PUSH3 0x1EAC DUP3 PUSH3 0x1E85 JUMP JUMPDEST SWAP2 SWAP1 POP JUMP JUMPDEST PUSH1 0x0 PUSH3 0x1EBE DUP3 PUSH3 0x1E9C JUMP JUMPDEST SWAP1 POP SWAP2 SWAP1 POP JUMP JUMPDEST PUSH1 0x0 DUP2 PUSH1 0xF8 SHL SWAP1 POP SWAP2 SWAP1 POP JUMP JUMPDEST PUSH1 0x0 PUSH3 0x1EDF DUP3 PUSH3 0x1EC5 JUMP JUMPDEST SWAP1 POP SWAP2 SWAP1 POP JUMP JUMPDEST PUSH3 0x1EFB PUSH3 0x1EF5 DUP3 PUSH3 0x1EB1 JUMP JUMPDEST PUSH3 0x1ED2 JUMP JUMPDEST DUP3 MSTORE POP POP JUMP JUMPDEST PUSH1 0x0 DUP2 SWAP1 POP SWAP2 SWAP1 POP JUMP JUMPDEST PUSH1 0x0 DUP2 SWAP1 POP SWAP2 SWAP1 POP JUMP JUMPDEST PUSH3 0x1F2A PUSH3 0x1F24 DUP3 PUSH3 0x1F01 JUMP JUMPDEST PUSH3 0x1F0B JUMP JUMPDEST DUP3 MSTORE POP POP JUMP JUMPDEST PUSH1 0x0 PUSH3 0x1F3E DUP3 DUP7 PUSH3 0x1E6A JUMP JUMPDEST PUSH1 0x14 DUP3 ADD SWAP2 POP PUSH3 0x1F50 DUP3 DUP6 PUSH3 0x1EE6 JUMP JUMPDEST PUSH1 0x1 DUP3 ADD SWAP2 POP PUSH3 0x1F62 DUP3 DUP5 PUSH3 0x1F15 JUMP JUMPDEST PUSH1 0x20 DUP3 ADD SWAP2 POP DUP2 SWAP1 POP SWAP5 SWAP4 POP POP POP POP JUMP JUMPDEST PUSH32 0x4E487B7100000000000000000000000000000000000000000000000000000000 PUSH1 0x0 MSTORE PUSH1 0x11 PUSH1 0x4 MSTORE PUSH1 0x24 PUSH1 0x0 REVERT JUMPDEST PUSH1 0x0 PUSH1 0xFF DUP3 AND SWAP1 POP SWAP2 SWAP1 POP JUMP JUMPDEST PUSH1 0x0 PUSH3 0x1FBC DUP3 PUSH3 0x1FA2 JUMP JUMPDEST SWAP2 POP PUSH1 0xFF DUP3 SUB PUSH3 0x1FD2 JUMPI PUSH3 0x1FD1 PUSH3 0x1F73 JUMP JUMPDEST JUMPDEST PUSH1 0x1 DUP3 ADD SWAP1 POP SWAP2 SWAP1 POP JUMP JUMPDEST PUSH1 0x0 DUP2 MLOAD SWAP1 POP SWAP2 SWAP1 POP JUMP JUMPDEST PUSH1 0x0 DUP2 SWAP1 POP DUP2 PUSH1 0x0 MSTORE PUSH1 0x20 PUSH1 0x0 KECCAK256 SWAP1 POP SWAP2 SWAP1 POP JUMP JUMPDEST PUSH1 0x1F DUP3 GT ISZERO PUSH3 0x2048 JUMPI PUSH3 0x2012 DUP2 PUSH3 0x1FE8 JUMP JUMPDEST PUSH3 0x201D DUP5 PUSH3 0x1B91 JUMP JUMPDEST DUP2 ADD PUSH1 0x20 DUP6 LT ISZERO PUSH3 0x202D JUMPI DUP2 SWAP1 POP JUMPDEST PUSH3 0x2045 PUSH3 0x203C DUP6 PUSH3 0x1B91 JUMP JUMPDEST DUP4 ADD DUP3 PUSH3 0x1C8C JUMP JUMPDEST POP POP JUMPDEST POP POP POP JUMP JUMPDEST PUSH3 0x2058 DUP3 PUSH3 0x1FDD JUMP JUMPDEST PUSH8 0xFFFFFFFFFFFFFFFF DUP2 GT ISZERO PUSH3 0x2074 JUMPI PUSH3 0x2073 PUSH3 0x1574 JUMP JUMPDEST JUMPDEST PUSH3 0x2080 DUP3 SLOAD PUSH3 0x1B47 JUMP JUMPDEST PUSH3 0x208D DUP3 DUP3 DUP6 PUSH3 0x1FFD JUMP JUMPDEST PUSH1 0x0 PUSH1 0x20 SWAP1 POP PUSH1 0x1F DUP4 GT PUSH1 0x1 DUP2 EQ PUSH3 0x20C5 JUMPI PUSH1 0x0 DUP5 ISZERO PUSH3 0x20B0 JUMPI DUP3 DUP8 ADD MLOAD SWAP1 POP JUMPDEST PUSH3 0x20BC DUP6 DUP3 PUSH3 0x1D30 JUMP JUMPDEST DUP7 SSTORE POP PUSH3 0x212C JUMP JUMPDEST PUSH1 0x1F NOT DUP5 AND PUSH3 0x20D5 DUP7 PUSH3 0x1FE8 JUMP JUMPDEST PUSH1 0x0 JUMPDEST DUP3 DUP2 LT ISZERO PUSH3 0x20FF JUMPI DUP5 DUP10 ADD MLOAD DUP3 SSTORE PUSH1 0x1 DUP3 ADD SWAP2 POP PUSH1 0x20 DUP6 ADD SWAP5 POP PUSH1 0x20 DUP2 ADD SWAP1 POP PUSH3 0x20D8 JUMP JUMPDEST DUP7 DUP4 LT ISZERO PUSH3 0x211F JUMPI DUP5 DUP10 ADD MLOAD PUSH3 0x211B PUSH1 0x1F DUP10 AND DUP3 PUSH3 0x1D10 JUMP JUMPDEST DUP4 SSTORE POP JUMPDEST PUSH1 0x1 PUSH1 0x2 DUP9 MUL ADD DUP9 SSTORE POP POP POP JUMPDEST POP POP POP POP POP POP JUMP JUMPDEST PUSH1 0x0 DUP3 DUP3 MSTORE PUSH1 0x20 DUP3 ADD SWAP1 POP SWAP3 SWAP2 POP POP JUMP JUMPDEST PUSH1 0x0 PUSH3 0x2152 DUP3 PUSH3 0x1FDD JUMP JUMPDEST PUSH3 0x215E DUP2 DUP6 PUSH3 0x2134 JUMP JUMPDEST SWAP4 POP PUSH3 0x2170 DUP2 DUP6 PUSH1 0x20 DUP7 ADD PUSH3 0x162E JUMP JUMPDEST PUSH3 0x217B DUP2 PUSH3 0x1563 JUMP JUMPDEST DUP5 ADD SWAP2 POP POP SWAP3 SWAP2 POP POP JUMP JUMPDEST PUSH1 0x0 PUSH1 0x20 DUP3 ADD SWAP1 POP DUP2 DUP2 SUB PUSH1 0x0 DUP4 ADD MSTORE PUSH3 0x21A2 DUP2 DUP5 PUSH3 0x2145 JUMP JUMPDEST SWAP1 POP SWAP3 SWAP2 POP POP JUMP JUMPDEST PUSH3 0x21B5 DUP2 PUSH3 0x1F01 JUMP JUMPDEST DUP3 MSTORE POP POP JUMP JUMPDEST PUSH1 0x0 PUSH1 0x20 DUP3 ADD SWAP1 POP PUSH3 0x21D2 PUSH1 0x0 DUP4 ADD DUP5 PUSH3 0x21AA JUMP JUMPDEST SWAP3 SWAP2 POP POP JUMP JUMPDEST PUSH1 0x0 PUSH3 0x21E5 DUP3 PUSH3 0x173D JUMP JUMPDEST SWAP2 POP PUSH32 0xFFFFFFFFFFFFFFFFFFFFFFFFFFFFFFFFFFFFFFFFFFFFFFFFFFFFFFFFFFFFFFFF DUP3 SUB PUSH3 0x221A JUMPI PUSH3 0x2219 PUSH3 0x1F73 JUMP JUMPDEST JUMPDEST PUSH1 0x1 DUP3 ADD SWAP1 POP SWAP2 SWAP1 POP JUMP JUMPDEST PUSH3 0x2230 DUP2 PUSH3 0x16F8 JUMP JUMPDEST DUP3 MSTORE POP POP JUMP JUMPDEST PUSH1 0x0 DUP2 ISZERO ISZERO SWAP1 POP SWAP2 SWAP1 POP JUMP JUMPDEST PUSH3 0x224D DUP2 PUSH3 0x2236 JUMP JUMPDEST DUP3 MSTORE POP POP JUMP JUMPDEST PUSH1 0x0 PUSH1 0x60 DUP3 ADD SWAP1 POP PUSH3 0x226A PUSH1 0x0 DUP4 ADD DUP7 PUSH3 0x2225 JUMP JUMPDEST PUSH3 0x2279 PUSH1 0x20 DUP4 ADD DUP6 PUSH3 0x2242 JUMP JUMPDEST DUP2 DUP2 SUB PUSH1 0x40 DUP4 ADD MSTORE PUSH3 0x228D DUP2 DUP5 PUSH3 0x2145 JUMP JUMPDEST SWAP1 POP SWAP5 SWAP4 POP POP POP POP JUMP JUMPDEST PUSH1 0x0 PUSH1 0xA0 DUP3 ADD SWAP1 POP PUSH3 0x22AE PUSH1 0x0 DUP4 ADD DUP9 PUSH3 0x2225 JUMP JUMPDEST PUSH3 0x22BD PUSH1 0x20 DUP4 ADD DUP8 PUSH3 0x2225 JUMP JUMPDEST PUSH3 0x22CC PUSH1 0x40 DUP4 ADD DUP7 PUSH3 0x2225 JUMP JUMPDEST PUSH3 0x22DB PUSH1 0x60 DUP4 ADD DUP6 PUSH3 0x21AA JUMP JUMPDEST DUP2 DUP2 SUB PUSH1 0x80 DUP4 ADD MSTORE PUSH3 0x22EF DUP2 DUP5 PUSH3 0x2145 JUMP JUMPDEST SWAP1 POP SWAP7 SWAP6 POP POP POP POP POP POP JUMP JUMPDEST PUSH31 0x6000000000000000000000000000000000000000000000000000000000000 PUSH1 0x0 DUP3 ADD MSTORE POP JUMP JUMPDEST PUSH1 0x0 PUSH3 0x2332 PUSH1 0x2 DUP4 PUSH3 0x1A5F JUMP JUMPDEST SWAP2 POP PUSH3 0x233F DUP3 PUSH3 0x22FB JUMP JUMPDEST PUSH1 0x2 DUP3 ADD SWAP1 POP SWAP2 SWAP1 POP JUMP JUMPDEST PUSH1 0x0 PUSH3 0x2357 DUP3 PUSH3 0x2323 JUMP JUMPDEST SWAP2 POP PUSH3 0x2365 DUP3 DUP5 PUSH3 0x1A6A JUMP JUMPDEST SWAP2 POP DUP2 SWAP1 POP SWAP3 SWAP2 POP POP JUMP JUMPDEST PUSH1 0x0 PUSH1 0x60 DUP3 ADD SWAP1 POP PUSH3 0x2387 PUSH1 0x0 DUP4 ADD DUP7 PUSH3 0x2225 JUMP JUMPDEST PUSH3 0x2396 PUSH1 0x20 DUP4 ADD DUP6 PUSH3 0x21AA JUMP JUMPDEST PUSH3 0x23A5 PUSH1 0x40 DUP4 ADD DUP5 PUSH3 0x2225 JUMP JUMPDEST SWAP5 SWAP4 POP POP POP POP JUMP JUMPDEST PUSH1 0x0 PUSH1 0x40 DUP3 ADD SWAP1 POP PUSH3 0x23C4 PUSH1 0x0 DUP4 ADD DUP6 PUSH3 0x2225 JUMP JUMPDEST PUSH3 0x23D3 PUSH1 0x20 DUP4 ADD DUP5 PUSH3 0x21AA JUMP JUMPDEST SWAP4 SWAP3 POP POP POP JUMP JUMPDEST PUSH1 0x0 PUSH1 0x80 DUP3 ADD SWAP1 POP PUSH3 0x23F1 PUSH1 0x0 DUP4 ADD DUP8 PUSH3 0x2225 JUMP JUMPDEST PUSH3 0x2400 PUSH1 0x20 DUP4 ADD DUP7 PUSH3 0x21AA JUMP JUMPDEST PUSH3 0x240F PUSH1 0x40 DUP4 ADD DUP6 PUSH3 0x2242 JUMP JUMPDEST DUP2 DUP2 SUB PUSH1 0x60 DUP4 ADD MSTORE PUSH3 0x2423 DUP2 DUP5 PUSH3 0x2145 JUMP JUMPDEST SWAP1 POP SWAP6 SWAP5 POP POP POP POP POP JUMP JUMPDEST PUSH1 0x0 PUSH1 0x40 DUP3 ADD SWAP1 POP PUSH3 0x2445 PUSH1 0x0 DUP4 ADD DUP6 PUSH3 0x21AA JUMP JUMPDEST DUP2 DUP2 SUB PUSH1 0x20 DUP4 ADD MSTORE PUSH3 0x2459 DUP2 DUP5 PUSH3 0x2145 JUMP JUMPDEST SWAP1 POP SWAP4 SWAP3 POP POP POP JUMP JUMPDEST PUSH1 0x0 PUSH8 0xFFFFFFFFFFFFFFFF DUP3 GT ISZERO PUSH3 0x2480 JUMPI PUSH3 0x247F PUSH3 0x1574 JUMP JUMPDEST JUMPDEST PUSH3 0x248B DUP3 PUSH3 0x1563 JUMP JUMPDEST SWAP1 POP PUSH1 0x20 DUP2 ADD SWAP1 POP SWAP2 SWAP1 POP JUMP JUMPDEST PUSH1 0x0 PUSH3 0x24AF PUSH3 0x24A9 DUP5 PUSH3 0x2462 JUMP JUMPDEST PUSH3 0x15D9 JUMP JUMPDEST SWAP1 POP DUP3 DUP2 MSTORE PUSH1 0x20 DUP2 ADD DUP5 DUP5 DUP5 ADD GT ISZERO PUSH3 0x24CE JUMPI PUSH3 0x24CD PUSH3 0x155E JUMP JUMPDEST JUMPDEST PUSH3 0x24DB DUP5 DUP3 DUP6 PUSH3 0x162E JUMP JUMPDEST POP SWAP4 SWAP3 POP POP POP JUMP JUMPDEST PUSH1 0x0 DUP3 PUSH1 0x1F DUP4 ADD SLT PUSH3 0x24FB JUMPI PUSH3 0x24FA PUSH3 0x1559 JUMP JUMPDEST JUMPDEST DUP2 MLOAD PUSH3 0x250D DUP5 DUP3 PUSH1 0x20 DUP7 ADD PUSH3 0x2498 JUMP JUMPDEST SWAP2 POP POP SWAP3 SWAP2 POP POP JUMP JUMPDEST PUSH1 0x0 PUSH1 0x20 DUP3 DUP5 SUB SLT ISZERO PUSH3 0x252F JUMPI PUSH3 0x252E PUSH3 0x154F JUMP JUMPDEST JUMPDEST PUSH1 0x0 DUP3 ADD MLOAD PUSH8 0xFFFFFFFFFFFFFFFF DUP2 GT ISZERO PUSH3 0x2550 JUMPI PUSH3 0x254F PUSH3 0x1554 JUMP JUMPDEST JUMPDEST PUSH3 0x255E DUP5 DUP3 DUP6 ADD PUSH3 0x24E3 JUMP JUMPDEST SWAP2 POP POP SWAP3 SWAP2 POP POP JUMP JUMPDEST PUSH1 0x0 PUSH1 0x20 DUP3 ADD SWAP1 POP PUSH3 0x257E PUSH1 0x0 DUP4 ADD DUP5 PUSH3 0x2225 JUMP JUMPDEST SWAP3 SWAP2 POP POP JUMP JUMPDEST PUSH1 0x0 PUSH32 0xFFFFFFFF00000000000000000000000000000000000000000000000000000000 DUP3 AND SWAP1 POP SWAP2 SWAP1 POP JUMP JUMPDEST PUSH3 0x25BB DUP2 PUSH3 0x2584 JUMP JUMPDEST DUP3 MSTORE POP POP JUMP JUMPDEST PUSH1 0x0 PUSH1 0x20 DUP3 ADD SWAP1 POP PUSH3 0x25D8 PUSH1 0x0 DUP4 ADD DUP5 PUSH3 0x25B0 JUMP JUMPDEST SWAP3 SWAP2 POP POP JUMP JUMPDEST PUSH2 0x597B DUP1 PUSH3 0x25EE PUSH1 0x0 CODECOPY PUSH1 0x0 RETURN INVALID PUSH1 0x80 PUSH1 0x40 MSTORE PUSH1 0x4 CALLDATASIZE LT PUSH2 0x1BB JUMPI PUSH1 0x0 CALLDATALOAD PUSH1 0xE0 SHR DUP1 PUSH4 0x7F23690C GT PUSH2 0xEC JUMPI DUP1 PUSH4 0xBE9F0E6F GT PUSH2 0x8A JUMPI DUP1 PUSH4 0xDB8C9663 GT PUSH2 0x64 JUMPI DUP1 PUSH4 0xDB8C9663 EQ PUSH2 0x751 JUMPI DUP1 PUSH4 0xDEDFF9C6 EQ PUSH2 0x77A JUMPI DUP1 PUSH4 0xF2FDE38B EQ PUSH2 0x7B7 JUMPI DUP1 PUSH4 0xFFFC2C94 EQ PUSH2 0x7E0 JUMPI PUSH2 0x235 JUMP JUMPDEST DUP1 PUSH4 0xBE9F0E6F EQ PUSH2 0x6D6 JUMPI DUP1 PUSH4 0xCDCA9F39 EQ PUSH2 0x6FF JUMPI DUP1 PUSH4 0xD6C1407C EQ PUSH2 0x728 JUMPI PUSH2 0x235 JUMP JUMPDEST DUP1 PUSH4 0x8DA5CB5B GT PUSH2 0xC6 JUMPI DUP1 PUSH4 0x8DA5CB5B EQ PUSH2 0x615 JUMPI DUP1 PUSH4 0x8F22D853 EQ PUSH2 0x640 JUMPI DUP1 PUSH4 0x97902421 EQ PUSH2 0x67D JUMPI DUP1 PUSH4 0xA3B261F2 EQ PUSH2 0x699 JUMPI PUSH2 0x235 JUMP JUMPDEST DUP1 PUSH4 0x7F23690C EQ PUSH2 0x593 JUMPI DUP1 PUSH4 0x86A10DDD EQ PUSH2 0x5AF JUMPI DUP1 PUSH4 0x8D959C24 EQ PUSH2 0x5D8 JUMPI PUSH2 0x235 JUMP JUMPDEST DUP1 PUSH4 0x4FC4289C GT PUSH2 0x159 JUMPI DUP1 PUSH4 0x6963D438 GT PUSH2 0x133 JUMPI DUP1 PUSH4 0x6963D438 EQ PUSH2 0x4D9 JUMPI DUP1 PUSH4 0x70A08231 EQ PUSH2 0x516 JUMPI DUP1 PUSH4 0x715018A6 EQ PUSH2 0x553 JUMPI DUP1 PUSH4 0x7E87632C EQ PUSH2 0x56A JUMPI PUSH2 0x235 JUMP JUMPDEST DUP1 PUSH4 0x4FC4289C EQ PUSH2 0x436 JUMPI DUP1 PUSH4 0x511B6952 EQ PUSH2 0x473 JUMPI DUP1 PUSH4 0x54F6127F EQ PUSH2 0x49C JUMPI PUSH2 0x235 JUMP JUMPDEST DUP1 PUSH4 0x1D26FCE6 GT PUSH2 0x195 JUMPI DUP1 PUSH4 0x1D26FCE6 EQ PUSH2 0x342 JUMPI DUP1 PUSH4 0x217B2270 EQ PUSH2 0x37F JUMPI DUP1 PUSH4 0x2A3654A4 EQ PUSH2 0x3BC JUMPI DUP1 PUSH4 0x49A6078D EQ PUSH2 0x3F9 JUMPI PUSH2 0x235 JUMP JUMPDEST DUP1 PUSH4 0x1FFC9A7 EQ PUSH2 0x29D JUMPI DUP1 PUSH4 0x16E023B3 EQ PUSH2 0x2DA JUMPI DUP1 PUSH4 0x18160DDD EQ PUSH2 0x317 JUMPI PUSH2 0x235 JUMP JUMPDEST CALLDATASIZE PUSH2 0x235 JUMPI PUSH1 0x0 CALLVALUE SUB PUSH2 0x203 JUMPI PUSH1 0x40 MLOAD PUSH32 0xE5099EE300000000000000000000000000000000000000000000000000000000 DUP2 MSTORE PUSH1 0x4 ADD PUSH2 0x1FA SWAP1 PUSH2 0x3685 JUMP JUMPDEST PUSH1 0x40 MLOAD DUP1 SWAP2 SUB SWAP1 REVERT JUMPDEST PUSH1 0x40 MLOAD PUSH32 0x61F4944200000000000000000000000000000000000000000000000000000000 DUP2 MSTORE PUSH1 0x4 ADD PUSH1 0x40 MLOAD DUP1 SWAP2 SUB SWAP1 REVERT JUMPDEST PUSH1 0x0 CALLDATASIZE PUSH1 0x60 PUSH1 0x4 PUSH1 0x0 CALLDATASIZE SWAP1 POP LT ISZERO PUSH2 0x286 JUMPI DUP3 DUP3 PUSH1 0x40 MLOAD PUSH32 0xE5099EE300000000000000000000000000000000000000000000000000000000 DUP2 MSTORE PUSH1 0x4 ADD PUSH2 0x27D SWAP3 SWAP2 SWAP1 PUSH2 0x36F2 JUMP JUMPDEST PUSH1 0x40 MLOAD DUP1 SWAP2 SUB SWAP1 REVERT JUMPDEST PUSH2 0x290 DUP4 DUP4 PUSH2 0x81E JUMP JUMPDEST SWAP1 POP SWAP2 POP POP DUP1 MLOAD SWAP1 PUSH1 0x20 ADD RETURN JUMPDEST CALLVALUE DUP1 ISZERO PUSH2 0x2A9 JUMPI PUSH1 0x0 DUP1 REVERT JUMPDEST POP PUSH2 0x2C4 PUSH1 0x4 DUP1 CALLDATASIZE SUB DUP2 ADD SWAP1 PUSH2 0x2BF SWAP2 SWAP1 PUSH2 0x3782 JUMP JUMPDEST PUSH2 0x99C JUMP JUMPDEST PUSH1 0x40 MLOAD PUSH2 0x2D1 SWAP2 SWAP1 PUSH2 0x37CA JUMP JUMPDEST PUSH1 0x40 MLOAD DUP1 SWAP2 SUB SWAP1 RETURN JUMPDEST CALLVALUE DUP1 ISZERO PUSH2 0x2E6 JUMPI PUSH1 0x0 DUP1 REVERT JUMPDEST POP PUSH2 0x301 PUSH1 0x4 DUP1 CALLDATASIZE SUB DUP2 ADD SWAP1 PUSH2 0x2FC SWAP2 SWAP1 PUSH2 0x381B JUMP JUMPDEST PUSH2 0xA0D JUMP JUMPDEST PUSH1 0x40 MLOAD PUSH2 0x30E SWAP2 SWAP1 PUSH2 0x38C9 JUMP JUMPDEST PUSH1 0x40 MLOAD DUP1 SWAP2 SUB SWAP1 RETURN JUMPDEST CALLVALUE DUP1 ISZERO PUSH2 0x323 JUMPI PUSH1 0x0 DUP1 REVERT JUMPDEST POP PUSH2 0x32C PUSH2 0xA21 JUMP JUMPDEST PUSH1 0x40 MLOAD PUSH2 0x339 SWAP2 SWAP1 PUSH2 0x3904 JUMP JUMPDEST PUSH1 0x40 MLOAD DUP1 SWAP2 SUB SWAP1 RETURN JUMPDEST CALLVALUE DUP1 ISZERO PUSH2 0x34E JUMPI PUSH1 0x0 DUP1 REVERT JUMPDEST POP PUSH2 0x369 PUSH1 0x4 DUP1 CALLDATASIZE SUB DUP2 ADD SWAP1 PUSH2 0x364 SWAP2 SWAP1 PUSH2 0x3A67 JUMP JUMPDEST PUSH2 0xA2B JUMP JUMPDEST PUSH1 0x40 MLOAD PUSH2 0x376 SWAP2 SWAP1 PUSH2 0x3BEB JUMP JUMPDEST PUSH1 0x40 MLOAD DUP1 SWAP2 SUB SWAP1 RETURN JUMPDEST CALLVALUE DUP1 ISZERO PUSH2 0x38B JUMPI PUSH1 0x0 DUP1 REVERT JUMPDEST POP PUSH2 0x3A6 PUSH1 0x4 DUP1 CALLDATASIZE SUB DUP2 ADD SWAP1 PUSH2 0x3A1 SWAP2 SWAP1 PUSH2 0x3C0D JUMP JUMPDEST PUSH2 0xB33 JUMP JUMPDEST PUSH1 0x40 MLOAD PUSH2 0x3B3 SWAP2 SWAP1 PUSH2 0x3C7B JUMP JUMPDEST PUSH1 0x40 MLOAD DUP1 SWAP2 SUB SWAP1 RETURN JUMPDEST CALLVALUE DUP1 ISZERO PUSH2 0x3C8 JUMPI PUSH1 0x0 DUP1 REVERT JUMPDEST POP PUSH2 0x3E3 PUSH1 0x4 DUP1 CALLDATASIZE SUB DUP2 ADD SWAP1 PUSH2 0x3DE SWAP2 SWAP1 PUSH2 0x3CC2 JUMP JUMPDEST PUSH2 0xBE6 JUMP JUMPDEST PUSH1 0x40 MLOAD PUSH2 0x3F0 SWAP2 SWAP1 PUSH2 0x37CA JUMP JUMPDEST PUSH1 0x40 MLOAD DUP1 SWAP2 SUB SWAP1 RETURN JUMPDEST CALLVALUE DUP1 ISZERO PUSH2 0x405 JUMPI PUSH1 0x0 DUP1 REVERT JUMPDEST POP PUSH2 0x420 PUSH1 0x4 DUP1 CALLDATASIZE SUB DUP2 ADD SWAP1 PUSH2 0x41B SWAP2 SWAP1 PUSH2 0x3C0D JUMP JUMPDEST PUSH2 0xBFA JUMP JUMPDEST PUSH1 0x40 MLOAD PUSH2 0x42D SWAP2 SWAP1 PUSH2 0x3DC0 JUMP JUMPDEST PUSH1 0x40 MLOAD DUP1 SWAP2 SUB SWAP1 RETURN JUMPDEST CALLVALUE DUP1 ISZERO PUSH2 0x442 JUMPI PUSH1 0x0 DUP1 REVERT JUMPDEST POP PUSH2 0x45D PUSH1 0x4 DUP1 CALLDATASIZE SUB DUP2 ADD SWAP1 PUSH2 0x458 SWAP2 SWAP1 PUSH2 0x3E07 JUMP JUMPDEST PUSH2 0xC27 JUMP JUMPDEST PUSH1 0x40 MLOAD PUSH2 0x46A SWAP2 SWAP1 PUSH2 0x3E89 JUMP JUMPDEST PUSH1 0x40 MLOAD DUP1 SWAP2 SUB SWAP1 RETURN JUMPDEST CALLVALUE DUP1 ISZERO PUSH2 0x47F JUMPI PUSH1 0x0 DUP1 REVERT JUMPDEST POP PUSH2 0x49A PUSH1 0x4 DUP1 CALLDATASIZE SUB DUP2 ADD SWAP1 PUSH2 0x495 SWAP2 SWAP1 PUSH2 0x3F7D JUMP JUMPDEST PUSH2 0xCC7 JUMP JUMPDEST STOP JUMPDEST CALLVALUE DUP1 ISZERO PUSH2 0x4A8 JUMPI PUSH1 0x0 DUP1 REVERT JUMPDEST POP PUSH2 0x4C3 PUSH1 0x4 DUP1 CALLDATASIZE SUB DUP2 ADD SWAP1 PUSH2 0x4BE SWAP2 SWAP1 PUSH2 0x3C0D JUMP JUMPDEST PUSH2 0xD28 JUMP JUMPDEST PUSH1 0x40 MLOAD PUSH2 0x4D0 SWAP2 SWAP1 PUSH2 0x38C9 JUMP JUMPDEST PUSH1 0x40 MLOAD DUP1 SWAP2 SUB SWAP1 RETURN JUMPDEST CALLVALUE DUP1 ISZERO PUSH2 0x4E5 JUMPI PUSH1 0x0 DUP1 REVERT JUMPDEST POP PUSH2 0x500 PUSH1 0x4 DUP1 CALLDATASIZE SUB DUP2 ADD SWAP1 PUSH2 0x4FB SWAP2 SWAP1 PUSH2 0x406F JUMP JUMPDEST PUSH2 0xD3A JUMP JUMPDEST PUSH1 0x40 MLOAD PUSH2 0x50D SWAP2 SWAP1 PUSH2 0x3BEB JUMP JUMPDEST PUSH1 0x40 MLOAD DUP1 SWAP2 SUB SWAP1 RETURN JUMPDEST CALLVALUE DUP1 ISZERO PUSH2 0x522 JUMPI PUSH1 0x0 DUP1 REVERT JUMPDEST POP PUSH2 0x53D PUSH1 0x4 DUP1 CALLDATASIZE SUB DUP2 ADD SWAP1 PUSH2 0x538 SWAP2 SWAP1 PUSH2 0x40BC JUMP JUMPDEST PUSH2 0xEB6 JUMP JUMPDEST PUSH1 0x40 MLOAD PUSH2 0x54A SWAP2 SWAP1 PUSH2 0x3904 JUMP JUMPDEST PUSH1 0x40 MLOAD DUP1 SWAP2 SUB SWAP1 RETURN JUMPDEST CALLVALUE DUP1 ISZERO PUSH2 0x55F JUMPI PUSH1 0x0 DUP1 REVERT JUMPDEST POP PUSH2 0x568 PUSH2 0xF06 JUMP JUMPDEST STOP JUMPDEST CALLVALUE DUP1 ISZERO PUSH2 0x576 JUMPI PUSH1 0x0 DUP1 REVERT JUMPDEST POP PUSH2 0x591 PUSH1 0x4 DUP1 CALLDATASIZE SUB DUP2 ADD SWAP1 PUSH2 0x58C SWAP2 SWAP1 PUSH2 0x4350 JUMP JUMPDEST PUSH2 0xF1A JUMP JUMPDEST STOP JUMPDEST PUSH2 0x5AD PUSH1 0x4 DUP1 CALLDATASIZE SUB DUP2 ADD SWAP1 PUSH2 0x5A8 SWAP2 SWAP1 PUSH2 0x4457 JUMP JUMPDEST PUSH2 0x102E JUMP JUMPDEST STOP JUMPDEST CALLVALUE DUP1 ISZERO PUSH2 0x5BB JUMPI PUSH1 0x0 DUP1 REVERT JUMPDEST POP PUSH2 0x5D6 PUSH1 0x4 DUP1 CALLDATASIZE SUB DUP2 ADD SWAP1 PUSH2 0x5D1 SWAP2 SWAP1 PUSH2 0x44B3 JUMP JUMPDEST PUSH2 0x107E JUMP JUMPDEST STOP JUMPDEST CALLVALUE DUP1 ISZERO PUSH2 0x5E4 JUMPI PUSH1 0x0 DUP1 REVERT JUMPDEST POP PUSH2 0x5FF PUSH1 0x4 DUP1 CALLDATASIZE SUB DUP2 ADD SWAP1 PUSH2 0x5FA SWAP2 SWAP1 PUSH2 0x3C0D JUMP JUMPDEST PUSH2 0x12DA JUMP JUMPDEST PUSH1 0x40 MLOAD PUSH2 0x60C SWAP2 SWAP1 PUSH2 0x38C9 JUMP JUMPDEST PUSH1 0x40 MLOAD DUP1 SWAP2 SUB SWAP1 RETURN JUMPDEST CALLVALUE DUP1 ISZERO PUSH2 0x621 JUMPI PUSH1 0x0 DUP1 REVERT JUMPDEST POP PUSH2 0x62A PUSH2 0x12EC JUMP JUMPDEST PUSH1 0x40 MLOAD PUSH2 0x637 SWAP2 SWAP1 PUSH2 0x3C7B JUMP JUMPDEST PUSH1 0x40 MLOAD DUP1 SWAP2 SUB SWAP1 RETURN JUMPDEST CALLVALUE DUP1 ISZERO PUSH2 0x64C JUMPI PUSH1 0x0 DUP1 REVERT JUMPDEST POP PUSH2 0x667 PUSH1 0x4 DUP1 CALLDATASIZE SUB DUP2 ADD SWAP1 PUSH2 0x662 SWAP2 SWAP1 PUSH2 0x4522 JUMP JUMPDEST PUSH2 0x1315 JUMP JUMPDEST PUSH1 0x40 MLOAD PUSH2 0x674 SWAP2 SWAP1 PUSH2 0x37CA JUMP JUMPDEST PUSH1 0x40 MLOAD DUP1 SWAP2 SUB SWAP1 RETURN JUMPDEST PUSH2 0x697 PUSH1 0x4 DUP1 CALLDATASIZE SUB DUP2 ADD SWAP1 PUSH2 0x692 SWAP2 SWAP1 PUSH2 0x4562 JUMP JUMPDEST PUSH2 0x1344 JUMP JUMPDEST STOP JUMPDEST CALLVALUE DUP1 ISZERO PUSH2 0x6A5 JUMPI PUSH1 0x0 DUP1 REVERT JUMPDEST POP PUSH2 0x6C0 PUSH1 0x4 DUP1 CALLDATASIZE SUB DUP2 ADD SWAP1 PUSH2 0x6BB SWAP2 SWAP1 PUSH2 0x40BC JUMP JUMPDEST PUSH2 0x1394 JUMP JUMPDEST PUSH1 0x40 MLOAD PUSH2 0x6CD SWAP2 SWAP1 PUSH2 0x4698 JUMP JUMPDEST PUSH1 0x40 MLOAD DUP1 SWAP2 SUB SWAP1 RETURN JUMPDEST CALLVALUE DUP1 ISZERO PUSH2 0x6E2 JUMPI PUSH1 0x0 DUP1 REVERT JUMPDEST POP PUSH2 0x6FD PUSH1 0x4 DUP1 CALLDATASIZE SUB DUP2 ADD SWAP1 PUSH2 0x6F8 SWAP2 SWAP1 PUSH2 0x46BA JUMP JUMPDEST PUSH2 0x13E4 JUMP JUMPDEST STOP JUMPDEST CALLVALUE DUP1 ISZERO PUSH2 0x70B JUMPI PUSH1 0x0 DUP1 REVERT JUMPDEST POP PUSH2 0x726 PUSH1 0x4 DUP1 CALLDATASIZE SUB DUP2 ADD SWAP1 PUSH2 0x721 SWAP2 SWAP1 PUSH2 0x482E JUMP JUMPDEST PUSH2 0x14E7 JUMP JUMPDEST STOP JUMPDEST CALLVALUE DUP1 ISZERO PUSH2 0x734 JUMPI PUSH1 0x0 DUP1 REVERT JUMPDEST POP PUSH2 0x74F PUSH1 0x4 DUP1 CALLDATASIZE SUB DUP2 ADD SWAP1 PUSH2 0x74A SWAP2 SWAP1 PUSH2 0x489D JUMP JUMPDEST PUSH2 0x1BE3 JUMP JUMPDEST STOP JUMPDEST CALLVALUE DUP1 ISZERO PUSH2 0x75D JUMPI PUSH1 0x0 DUP1 REVERT JUMPDEST POP PUSH2 0x778 PUSH1 0x4 DUP1 CALLDATASIZE SUB DUP2 ADD SWAP1 PUSH2 0x773 SWAP2 SWAP1 PUSH2 0x490C JUMP JUMPDEST PUSH2 0x1BFB JUMP JUMPDEST STOP JUMPDEST CALLVALUE DUP1 ISZERO PUSH2 0x786 JUMPI PUSH1 0x0 DUP1 REVERT JUMPDEST POP PUSH2 0x7A1 PUSH1 0x4 DUP1 CALLDATASIZE SUB DUP2 ADD SWAP1 PUSH2 0x79C SWAP2 SWAP1 PUSH2 0x498F JUMP JUMPDEST PUSH2 0x1DCC JUMP JUMPDEST PUSH1 0x40 MLOAD PUSH2 0x7AE SWAP2 SWAP1 PUSH2 0x3BEB JUMP JUMPDEST PUSH1 0x40 MLOAD DUP1 SWAP2 SUB SWAP1 RETURN JUMPDEST CALLVALUE DUP1 ISZERO PUSH2 0x7C3 JUMPI PUSH1 0x0 DUP1 REVERT JUMPDEST POP PUSH2 0x7DE PUSH1 0x4 DUP1 CALLDATASIZE SUB DUP2 ADD SWAP1 PUSH2 0x7D9 SWAP2 SWAP1 PUSH2 0x40BC JUMP JUMPDEST PUSH2 0x1E7D JUMP JUMPDEST STOP JUMPDEST CALLVALUE DUP1 ISZERO PUSH2 0x7EC JUMPI PUSH1 0x0 DUP1 REVERT JUMPDEST POP PUSH2 0x807 PUSH1 0x4 DUP1 CALLDATASIZE SUB DUP2 ADD SWAP1 PUSH2 0x802 SWAP2 SWAP1 PUSH2 0x3E07 JUMP JUMPDEST PUSH2 0x1F00 JUMP JUMPDEST PUSH1 0x40 MLOAD PUSH2 0x815 SWAP3 SWAP2 SWAP1 PUSH2 0x49D8 JUMP JUMPDEST PUSH1 0x40 MLOAD DUP1 SWAP2 SUB SWAP1 RETURN JUMPDEST PUSH1 0x60 PUSH1 0x0 PUSH2 0x84F PUSH1 0x0 CALLDATALOAD PUSH32 0xFFFFFFFF00000000000000000000000000000000000000000000000000000000 AND PUSH2 0x1F44 JUMP JUMPDEST POP SWAP1 POP PUSH1 0x0 PUSH20 0xFFFFFFFFFFFFFFFFFFFFFFFFFFFFFFFFFFFFFFFF AND DUP2 PUSH20 0xFFFFFFFFFFFFFFFFFFFFFFFFFFFFFFFFFFFFFFFF AND SUB PUSH2 0x8E7 JUMPI PUSH1 0x0 CALLDATALOAD PUSH32 0xFFFFFFFF00000000000000000000000000000000000000000000000000000000 AND PUSH1 0x40 MLOAD PUSH32 0xBB370B2B00000000000000000000000000000000000000000000000000000000 DUP2 MSTORE PUSH1 0x4 ADD PUSH2 0x8DE SWAP2 SWAP1 PUSH2 0x4A10 JUMP JUMPDEST PUSH1 0x40 MLOAD DUP1 SWAP2 SUB SWAP1 REVERT JUMPDEST PUSH1 0x0 DUP1 DUP3 PUSH20 0xFFFFFFFFFFFFFFFFFFFFFFFFFFFFFFFFFFFFFFFF AND CALLVALUE DUP8 DUP8 CALLER CALLVALUE PUSH1 0x40 MLOAD PUSH1 0x20 ADD PUSH2 0x919 SWAP5 SWAP4 SWAP3 SWAP2 SWAP1 PUSH2 0x4AC4 JUMP JUMPDEST PUSH1 0x40 MLOAD PUSH1 0x20 DUP2 DUP4 SUB SUB DUP2 MSTORE SWAP1 PUSH1 0x40 MSTORE PUSH1 0x40 MLOAD PUSH2 0x935 SWAP2 SWAP1 PUSH2 0x4B30 JUMP JUMPDEST PUSH1 0x0 PUSH1 0x40 MLOAD DUP1 DUP4 SUB DUP2 DUP6 DUP8 GAS CALL SWAP3 POP POP POP RETURNDATASIZE DUP1 PUSH1 0x0 DUP2 EQ PUSH2 0x972 JUMPI PUSH1 0x40 MLOAD SWAP2 POP PUSH1 0x1F NOT PUSH1 0x3F RETURNDATASIZE ADD AND DUP3 ADD PUSH1 0x40 MSTORE RETURNDATASIZE DUP3 MSTORE RETURNDATASIZE PUSH1 0x0 PUSH1 0x20 DUP5 ADD RETURNDATACOPY PUSH2 0x977 JUMP JUMPDEST PUSH1 0x60 SWAP2 POP JUMPDEST POP SWAP2 POP SWAP2 POP DUP2 ISZERO PUSH2 0x98D JUMPI DUP1 SWAP4 POP POP POP POP PUSH2 0x996 JUMP JUMPDEST DUP1 MLOAD DUP1 PUSH1 0x20 DUP4 ADD REVERT JUMPDEST SWAP3 SWAP2 POP POP JUMP JUMPDEST PUSH1 0x0 PUSH4 0x3A271706 PUSH1 0xE0 SHL PUSH28 0xFFFFFFFFFFFFFFFFFFFFFFFFFFFFFFFFFFFFFFFFFFFFFFFFFFFFFFFF NOT AND DUP3 PUSH28 0xFFFFFFFFFFFFFFFFFFFFFFFFFFFFFFFFFFFFFFFFFFFFFFFFFFFFFFFF NOT AND EQ DUP1 PUSH2 0x9F6 JUMPI POP PUSH2 0x9F5 DUP3 PUSH2 0x1FFE JUMP JUMPDEST JUMPDEST DUP1 PUSH2 0xA06 JUMPI POP PUSH2 0xA05 DUP3 PUSH2 0x205F JUMP JUMPDEST JUMPDEST SWAP1 POP SWAP2 SWAP1 POP JUMP JUMPDEST PUSH1 0x60 PUSH2 0xA19 DUP4 DUP4 PUSH2 0x20C6 JUMP JUMPDEST SWAP1 POP SWAP3 SWAP2 POP POP JUMP JUMPDEST PUSH1 0x0 PUSH1 0x2 SLOAD SWAP1 POP SWAP1 JUMP JUMPDEST PUSH1 0x60 DUP2 MLOAD DUP4 MLOAD EQ PUSH2 0xA68 JUMPI PUSH1 0x40 MLOAD PUSH32 0x2FA71DFE00000000000000000000000000000000000000000000000000000000 DUP2 MSTORE PUSH1 0x4 ADD PUSH1 0x40 MLOAD DUP1 SWAP2 SUB SWAP1 REVERT JUMPDEST DUP3 MLOAD PUSH8 0xFFFFFFFFFFFFFFFF DUP2 GT ISZERO PUSH2 0xA83 JUMPI PUSH2 0xA82 PUSH2 0x3924 JUMP JUMPDEST JUMPDEST PUSH1 0x40 MLOAD SWAP1 DUP1 DUP3 MSTORE DUP1 PUSH1 0x20 MUL PUSH1 0x20 ADD DUP3 ADD PUSH1 0x40 MSTORE DUP1 ISZERO PUSH2 0xAB6 JUMPI DUP2 PUSH1 0x20 ADD JUMPDEST PUSH1 0x60 DUP2 MSTORE PUSH1 0x20 ADD SWAP1 PUSH1 0x1 SWAP1 SUB SWAP1 DUP2 PUSH2 0xAA1 JUMPI SWAP1 POP JUMPDEST POP SWAP1 POP PUSH1 0x0 JUMPDEST DUP4 MLOAD DUP2 LT ISZERO PUSH2 0xB2C JUMPI PUSH2 0xB03 DUP5 DUP3 DUP2 MLOAD DUP2 LT PUSH2 0xADB JUMPI PUSH2 0xADA PUSH2 0x4B47 JUMP JUMPDEST JUMPDEST PUSH1 0x20 MUL PUSH1 0x20 ADD ADD MLOAD DUP5 DUP4 DUP2 MLOAD DUP2 LT PUSH2 0xAF6 JUMPI PUSH2 0xAF5 PUSH2 0x4B47 JUMP JUMPDEST JUMPDEST PUSH1 0x20 MUL PUSH1 0x20 ADD ADD MLOAD PUSH2 0x20C6 JUMP JUMPDEST DUP3 DUP3 DUP2 MLOAD DUP2 LT PUSH2 0xB16 JUMPI PUSH2 0xB15 PUSH2 0x4B47 JUMP JUMPDEST JUMPDEST PUSH1 0x20 MUL PUSH1 0x20 ADD ADD DUP2 SWAP1 MSTORE POP DUP1 PUSH1 0x1 ADD SWAP1 POP PUSH2 0xABC JUMP JUMPDEST POP SWAP3 SWAP2 POP POP JUMP JUMPDEST PUSH1 0x0 DUP1 PUSH1 0x3 PUSH1 0x0 DUP5 DUP2 MSTORE PUSH1 0x20 ADD SWAP1 DUP2 MSTORE PUSH1 0x20 ADD PUSH1 0x0 KECCAK256 PUSH1 0x0 SWAP1 SLOAD SWAP1 PUSH2 0x100 EXP SWAP1 DIV PUSH20 0xFFFFFFFFFFFFFFFFFFFFFFFFFFFFFFFFFFFFFFFF AND SWAP1 POP PUSH1 0x0 PUSH20 0xFFFFFFFFFFFFFFFFFFFFFFFFFFFFFFFFFFFFFFFF AND DUP2 PUSH20 0xFFFFFFFFFFFFFFFFFFFFFFFFFFFFFFFFFFFFFFFF AND SUB PUSH2 0xBDD JUMPI DUP3 PUSH1 0x40 MLOAD PUSH32 0xAE8F9A3600000000000000000000000000000000000000000000000000000000 DUP2 MSTORE PUSH1 0x4 ADD PUSH2 0xBD4 SWAP2 SWAP1 PUSH2 0x4B85 JUMP JUMPDEST PUSH1 0x40 MLOAD DUP1 SWAP2 SUB SWAP1 REVERT JUMPDEST DUP1 SWAP2 POP POP SWAP2 SWAP1 POP JUMP JUMPDEST PUSH1 0x0 PUSH2 0xBF2 DUP4 DUP4 PUSH2 0x2194 JUMP JUMPDEST SWAP1 POP SWAP3 SWAP2 POP POP JUMP JUMPDEST PUSH1 0x60 PUSH2 0xC05 DUP3 PUSH2 0x2201 JUMP JUMPDEST PUSH2 0xC20 PUSH1 0x5 PUSH1 0x0 DUP5 DUP2 MSTORE PUSH1 0x20 ADD SWAP1 DUP2 MSTORE PUSH1 0x20 ADD PUSH1 0x0 KECCAK256 PUSH2 0x224E JUMP JUMPDEST SWAP1 POP SWAP2 SWAP1 POP JUMP JUMPDEST PUSH1 0x8 PUSH1 0x20 MSTORE DUP1 PUSH1 0x0 MSTORE PUSH1 0x40 PUSH1 0x0 KECCAK256 PUSH1 0x0 SWAP2 POP SWAP1 POP DUP1 SLOAD PUSH2 0xC46 SWAP1 PUSH2 0x4BCF JUMP JUMPDEST DUP1 PUSH1 0x1F ADD PUSH1 0x20 DUP1 SWAP2 DIV MUL PUSH1 0x20 ADD PUSH1 0x40 MLOAD SWAP1 DUP2 ADD PUSH1 0x40 MSTORE DUP1 SWAP3 SWAP2 SWAP1 DUP2 DUP2 MSTORE PUSH1 0x20 ADD DUP3 DUP1 SLOAD PUSH2 0xC72 SWAP1 PUSH2 0x4BCF JUMP JUMPDEST DUP1 ISZERO PUSH2 0xCBF JUMPI DUP1 PUSH1 0x1F LT PUSH2 0xC94 JUMPI PUSH2 0x100 DUP1 DUP4 SLOAD DIV MUL DUP4 MSTORE SWAP2 PUSH1 0x20 ADD SWAP2 PUSH2 0xCBF JUMP JUMPDEST DUP3 ADD SWAP2 SWAP1 PUSH1 0x0 MSTORE PUSH1 0x20 PUSH1 0x0 KECCAK256 SWAP1 JUMPDEST DUP2 SLOAD DUP2 MSTORE SWAP1 PUSH1 0x1 ADD SWAP1 PUSH1 0x20 ADD DUP1 DUP4 GT PUSH2 0xCA2 JUMPI DUP3 SWAP1 SUB PUSH1 0x1F AND DUP3 ADD SWAP2 JUMPDEST POP POP POP POP POP DUP2 JUMP JUMPDEST PUSH2 0xCD1 CALLER DUP5 PUSH2 0x2194 JUMP JUMPDEST PUSH2 0xD14 JUMPI DUP3 CALLER PUSH1 0x40 MLOAD PUSH32 0x1294D2A900000000000000000000000000000000000000000000000000000000 DUP2 MSTORE PUSH1 0x4 ADD PUSH2 0xD0B SWAP3 SWAP2 SWAP1 PUSH2 0x4C00 JUMP JUMPDEST PUSH1 0x40 MLOAD DUP1 SWAP2 SUB SWAP1 REVERT JUMPDEST PUSH2 0xD21 DUP6 DUP6 DUP6 DUP6 DUP6 PUSH2 0x226F JUMP JUMPDEST POP POP POP POP POP JUMP JUMPDEST PUSH1 0x60 PUSH2 0xD33 DUP3 PUSH2 0x22AA JUMP JUMPDEST SWAP1 POP SWAP2 SWAP1 POP JUMP JUMPDEST PUSH1 0x60 DUP3 DUP3 SWAP1 POP PUSH8 0xFFFFFFFFFFFFFFFF DUP2 GT ISZERO PUSH2 0xD59 JUMPI PUSH2 0xD58 PUSH2 0x3924 JUMP JUMPDEST JUMPDEST PUSH1 0x40 MLOAD SWAP1 DUP1 DUP3 MSTORE DUP1 PUSH1 0x20 MUL PUSH1 0x20 ADD DUP3 ADD PUSH1 0x40 MSTORE DUP1 ISZERO PUSH2 0xD8C JUMPI DUP2 PUSH1 0x20 ADD JUMPDEST PUSH1 0x60 DUP2 MSTORE PUSH1 0x20 ADD SWAP1 PUSH1 0x1 SWAP1 SUB SWAP1 DUP2 PUSH2 0xD77 JUMPI SWAP1 POP JUMPDEST POP SWAP1 POP PUSH1 0x0 JUMPDEST DUP4 DUP4 SWAP1 POP DUP2 LT ISZERO PUSH2 0xEAF JUMPI PUSH1 0x0 DUP1 ADDRESS PUSH20 0xFFFFFFFFFFFFFFFFFFFFFFFFFFFFFFFFFFFFFFFF AND DUP7 DUP7 DUP6 DUP2 DUP2 LT PUSH2 0xDCA JUMPI PUSH2 0xDC9 PUSH2 0x4B47 JUMP JUMPDEST JUMPDEST SWAP1 POP PUSH1 0x20 MUL DUP2 ADD SWAP1 PUSH2 0xDDC SWAP2 SWAP1 PUSH2 0x4C38 JUMP JUMPDEST PUSH1 0x40 MLOAD PUSH2 0xDEA SWAP3 SWAP2 SWAP1 PUSH2 0x4C9B JUMP JUMPDEST PUSH1 0x0 PUSH1 0x40 MLOAD DUP1 DUP4 SUB DUP2 DUP6 GAS DELEGATECALL SWAP2 POP POP RETURNDATASIZE DUP1 PUSH1 0x0 DUP2 EQ PUSH2 0xE25 JUMPI PUSH1 0x40 MLOAD SWAP2 POP PUSH1 0x1F NOT PUSH1 0x3F RETURNDATASIZE ADD AND DUP3 ADD PUSH1 0x40 MSTORE RETURNDATASIZE DUP3 MSTORE RETURNDATASIZE PUSH1 0x0 PUSH1 0x20 DUP5 ADD RETURNDATACOPY PUSH2 0xE2A JUMP JUMPDEST PUSH1 0x60 SWAP2 POP JUMPDEST POP SWAP2 POP SWAP2 POP DUP2 PUSH2 0xE83 JUMPI PUSH1 0x0 DUP2 MLOAD EQ PUSH2 0xE46 JUMPI DUP1 MLOAD DUP1 DUP3 PUSH1 0x20 ADD REVERT JUMPDEST DUP3 PUSH1 0x40 MLOAD PUSH32 0x234EB81900000000000000000000000000000000000000000000000000000000 DUP2 MSTORE PUSH1 0x4 ADD PUSH2 0xE7A SWAP2 SWAP1 PUSH2 0x3904 JUMP JUMPDEST PUSH1 0x40 MLOAD DUP1 SWAP2 SUB SWAP1 REVERT JUMPDEST DUP1 DUP5 DUP5 DUP2 MLOAD DUP2 LT PUSH2 0xE97 JUMPI PUSH2 0xE96 PUSH2 0x4B47 JUMP JUMPDEST JUMPDEST PUSH1 0x20 MUL PUSH1 0x20 ADD ADD DUP2 SWAP1 MSTORE POP DUP3 PUSH1 0x1 ADD SWAP3 POP POP POP PUSH2 0xD92 JUMP JUMPDEST POP SWAP3 SWAP2 POP POP JUMP JUMPDEST PUSH1 0x0 PUSH2 0xEFF PUSH1 0x4 PUSH1 0x0 DUP5 PUSH20 0xFFFFFFFFFFFFFFFFFFFFFFFFFFFFFFFFFFFFFFFF AND PUSH20 0xFFFFFFFFFFFFFFFFFFFFFFFFFFFFFFFFFFFFFFFF AND DUP2 MSTORE PUSH1 0x20 ADD SWAP1 DUP2 MSTORE PUSH1 0x20 ADD PUSH1 0x0 KECCAK256 PUSH2 0x234F JUMP JUMPDEST SWAP1 POP SWAP2 SWAP1 POP JUMP JUMPDEST PUSH2 0xF0E PUSH2 0x2364 JUMP JUMPDEST PUSH2 0xF18 PUSH1 0x0 PUSH2 0x23E2 JUMP JUMPDEST JUMP JUMPDEST PUSH1 0x0 DUP6 MLOAD SWAP1 POP DUP5 MLOAD DUP2 EQ ISZERO DUP1 PUSH2 0xF31 JUMPI POP DUP4 MLOAD DUP2 EQ ISZERO JUMPDEST DUP1 PUSH2 0xF3D JUMPI POP DUP3 MLOAD DUP2 EQ ISZERO JUMPDEST DUP1 PUSH2 0xF49 JUMPI POP DUP2 MLOAD DUP2 EQ ISZERO JUMPDEST ISZERO PUSH2 0xF80 JUMPI PUSH1 0x40 MLOAD PUSH32 0x93A8311900000000000000000000000000000000000000000000000000000000 DUP2 MSTORE PUSH1 0x4 ADD PUSH1 0x40 MLOAD DUP1 SWAP2 SUB SWAP1 REVERT JUMPDEST PUSH1 0x0 JUMPDEST DUP2 DUP2 LT ISZERO PUSH2 0x1025 JUMPI PUSH2 0x101A DUP8 DUP3 DUP2 MLOAD DUP2 LT PUSH2 0xFA1 JUMPI PUSH2 0xFA0 PUSH2 0x4B47 JUMP JUMPDEST JUMPDEST PUSH1 0x20 MUL PUSH1 0x20 ADD ADD MLOAD DUP8 DUP4 DUP2 MLOAD DUP2 LT PUSH2 0xFBC JUMPI PUSH2 0xFBB PUSH2 0x4B47 JUMP JUMPDEST JUMPDEST PUSH1 0x20 MUL PUSH1 0x20 ADD ADD MLOAD DUP8 DUP5 DUP2 MLOAD DUP2 LT PUSH2 0xFD7 JUMPI PUSH2 0xFD6 PUSH2 0x4B47 JUMP JUMPDEST JUMPDEST PUSH1 0x20 MUL PUSH1 0x20 ADD ADD MLOAD DUP8 DUP6 DUP2 MLOAD DUP2 LT PUSH2 0xFF2 JUMPI PUSH2 0xFF1 PUSH2 0x4B47 JUMP JUMPDEST JUMPDEST PUSH1 0x20 MUL PUSH1 0x20 ADD ADD MLOAD DUP8 DUP7 DUP2 MLOAD DUP2 LT PUSH2 0x100D JUMPI PUSH2 0x100C PUSH2 0x4B47 JUMP JUMPDEST JUMPDEST PUSH1 0x20 MUL PUSH1 0x20 ADD ADD MLOAD PUSH2 0xCC7 JUMP JUMPDEST DUP1 PUSH1 0x1 ADD SWAP1 POP PUSH2 0xF83 JUMP JUMPDEST POP POP POP POP POP POP POP JUMP JUMPDEST PUSH2 0x1036 PUSH2 0x2364 JUMP JUMPDEST PUSH1 0x0 CALLVALUE EQ PUSH2 0x1070 JUMPI PUSH1 0x40 MLOAD PUSH32 0xF36BA73700000000000000000000000000000000000000000000000000000000 DUP2 MSTORE PUSH1 0x4 ADD PUSH1 0x40 MLOAD DUP1 SWAP2 SUB SWAP1 REVERT JUMPDEST PUSH2 0x107A DUP3 DUP3 PUSH2 0x24A6 JUMP JUMPDEST POP POP JUMP JUMPDEST PUSH1 0x0 PUSH2 0x1089 DUP4 PUSH2 0xB33 JUMP JUMPDEST SWAP1 POP CALLER PUSH20 0xFFFFFFFFFFFFFFFFFFFFFFFFFFFFFFFFFFFFFFFF AND DUP2 PUSH20 0xFFFFFFFFFFFFFFFFFFFFFFFFFFFFFFFFFFFFFFFF AND EQ PUSH2 0x10FF JUMPI DUP1 DUP4 CALLER PUSH1 0x40 MLOAD PUSH32 0x5B271EA200000000000000000000000000000000000000000000000000000000 DUP2 MSTORE PUSH1 0x4 ADD PUSH2 0x10F6 SWAP4 SWAP3 SWAP2 SWAP1 PUSH2 0x4CB4 JUMP JUMPDEST PUSH1 0x40 MLOAD DUP1 SWAP2 SUB SWAP1 REVERT JUMPDEST PUSH1 0x0 PUSH20 0xFFFFFFFFFFFFFFFFFFFFFFFFFFFFFFFFFFFFFFFF AND DUP5 PUSH20 0xFFFFFFFFFFFFFFFFFFFFFFFFFFFFFFFFFFFFFFFF AND SUB PUSH2 0x1165 JUMPI PUSH1 0x40 MLOAD PUSH32 0x9577B8B300000000000000000000000000000000000000000000000000000000 DUP2 MSTORE PUSH1 0x4 ADD PUSH1 0x40 MLOAD DUP1 SWAP2 SUB SWAP1 REVERT JUMPDEST DUP4 PUSH20 0xFFFFFFFFFFFFFFFFFFFFFFFFFFFFFFFFFFFFFFFF AND DUP2 PUSH20 0xFFFFFFFFFFFFFFFFFFFFFFFFFFFFFFFFFFFFFFFF AND SUB PUSH2 0x11CA JUMPI PUSH1 0x40 MLOAD PUSH32 0x89FDAD6200000000000000000000000000000000000000000000000000000000 DUP2 MSTORE PUSH1 0x4 ADD PUSH1 0x40 MLOAD DUP1 SWAP2 SUB SWAP1 REVERT JUMPDEST PUSH1 0x0 PUSH2 0x11F1 DUP6 PUSH1 0x5 PUSH1 0x0 DUP8 DUP2 MSTORE PUSH1 0x20 ADD SWAP1 DUP2 MSTORE PUSH1 0x20 ADD PUSH1 0x0 KECCAK256 PUSH2 0x2510 SWAP1 SWAP2 SWAP1 PUSH4 0xFFFFFFFF AND JUMP JUMPDEST SWAP1 POP DUP1 PUSH2 0x1237 JUMPI DUP5 DUP5 PUSH1 0x40 MLOAD PUSH32 0xA7626B6800000000000000000000000000000000000000000000000000000000 DUP2 MSTORE PUSH1 0x4 ADD PUSH2 0x122E SWAP3 SWAP2 SWAP1 PUSH2 0x4CEB JUMP JUMPDEST PUSH1 0x40 MLOAD DUP1 SWAP2 SUB SWAP1 REVERT JUMPDEST DUP4 DUP3 PUSH20 0xFFFFFFFFFFFFFFFFFFFFFFFFFFFFFFFFFFFFFFFF AND DUP7 PUSH20 0xFFFFFFFFFFFFFFFFFFFFFFFFFFFFFFFFFFFFFFFF AND PUSH32 0x1B1B58AA2EC0CEC2228B2D37124556D41F5A1F7B12F089171F896CC236671215 DUP7 PUSH1 0x40 MLOAD PUSH2 0x1295 SWAP2 SWAP1 PUSH2 0x38C9 JUMP JUMPDEST PUSH1 0x40 MLOAD DUP1 SWAP2 SUB SWAP1 LOG4 PUSH1 0x0 CALLER DUP6 PUSH1 0x1 DUP7 PUSH1 0x40 MLOAD PUSH1 0x20 ADD PUSH2 0x12B7 SWAP5 SWAP4 SWAP3 SWAP2 SWAP1 PUSH2 0x4D14 JUMP JUMPDEST PUSH1 0x40 MLOAD PUSH1 0x20 DUP2 DUP4 SUB SUB DUP2 MSTORE SWAP1 PUSH1 0x40 MSTORE SWAP1 POP PUSH2 0x12D2 DUP7 DUP3 PUSH2 0x2540 JUMP JUMPDEST POP POP POP POP POP POP JUMP JUMPDEST PUSH1 0x60 PUSH2 0x12E5 DUP3 PUSH2 0x22AA JUMP JUMPDEST SWAP1 POP SWAP2 SWAP1 POP JUMP JUMPDEST PUSH1 0x0 DUP1 PUSH1 0x0 SWAP1 SLOAD SWAP1 PUSH2 0x100 EXP SWAP1 DIV PUSH20 0xFFFFFFFFFFFFFFFFFFFFFFFFFFFFFFFFFFFFFFFF AND SWAP1 POP SWAP1 JUMP JUMPDEST PUSH1 0x7 PUSH1 0x20 MSTORE DUP2 PUSH1 0x0 MSTORE PUSH1 0x40 PUSH1 0x0 KECCAK256 PUSH1 0x20 MSTORE DUP1 PUSH1 0x0 MSTORE PUSH1 0x40 PUSH1 0x0 KECCAK256 PUSH1 0x0 SWAP2 POP SWAP2 POP SWAP1 SLOAD SWAP1 PUSH2 0x100 EXP SWAP1 DIV PUSH1 0xFF AND DUP2 JUMP JUMPDEST PUSH2 0x134C PUSH2 0x2364 JUMP JUMPDEST PUSH1 0x0 CALLVALUE EQ PUSH2 0x1386 JUMPI PUSH1 0x40 MLOAD PUSH32 0xF36BA73700000000000000000000000000000000000000000000000000000000 DUP2 MSTORE PUSH1 0x4 ADD PUSH1 0x40 MLOAD DUP1 SWAP2 SUB SWAP1 REVERT JUMPDEST PUSH2 0x1390 DUP3 DUP3 PUSH2 0x2572 JUMP JUMPDEST POP POP JUMP JUMPDEST PUSH1 0x60 PUSH2 0x13DD PUSH1 0x4 PUSH1 0x0 DUP5 PUSH20 0xFFFFFFFFFFFFFFFFFFFFFFFFFFFFFFFFFFFFFFFF AND PUSH20 0xFFFFFFFFFFFFFFFFFFFFFFFFFFFFFFFFFFFFFFFF AND DUP2 MSTORE PUSH1 0x20 ADD SWAP1 DUP2 MSTORE PUSH1 0x20 ADD PUSH1 0x0 KECCAK256 PUSH2 0x2642 JUMP JUMPDEST SWAP1 POP SWAP2 SWAP1 POP JUMP JUMPDEST PUSH2 0x13EC PUSH2 0x2364 JUMP JUMPDEST DUP2 MLOAD DUP4 MLOAD EQ ISZERO DUP1 PUSH2 0x13FF JUMPI POP DUP1 MLOAD DUP3 MLOAD EQ ISZERO JUMPDEST ISZERO PUSH2 0x1436 JUMPI PUSH1 0x40 MLOAD PUSH32 0x2FA71DFE00000000000000000000000000000000000000000000000000000000 DUP2 MSTORE PUSH1 0x4 ADD PUSH1 0x40 MLOAD DUP1 SWAP2 SUB SWAP1 REVERT JUMPDEST PUSH1 0x0 DUP4 MLOAD SUB PUSH2 0x1471 JUMPI PUSH1 0x40 MLOAD PUSH32 0x80C9830500000000000000000000000000000000000000000000000000000000 DUP2 MSTORE PUSH1 0x4 ADD PUSH1 0x40 MLOAD DUP1 SWAP2 SUB SWAP1 REVERT JUMPDEST PUSH1 0x0 JUMPDEST DUP4 MLOAD DUP2 LT ISZERO PUSH2 0x14E1 JUMPI PUSH2 0x14D6 DUP5 DUP3 DUP2 MLOAD DUP2 LT PUSH2 0x1493 JUMPI PUSH2 0x1492 PUSH2 0x4B47 JUMP JUMPDEST JUMPDEST PUSH1 0x20 MUL PUSH1 0x20 ADD ADD MLOAD DUP5 DUP4 DUP2 MLOAD DUP2 LT PUSH2 0x14AE JUMPI PUSH2 0x14AD PUSH2 0x4B47 JUMP JUMPDEST JUMPDEST PUSH1 0x20 MUL PUSH1 0x20 ADD ADD MLOAD DUP5 DUP5 DUP2 MLOAD DUP2 LT PUSH2 0x14C9 JUMPI PUSH2 0x14C8 PUSH2 0x4B47 JUMP JUMPDEST JUMPDEST PUSH1 0x20 MUL PUSH1 0x20 ADD ADD MLOAD PUSH2 0x2663 JUMP JUMPDEST DUP1 PUSH1 0x1 ADD SWAP1 POP PUSH2 0x1474 JUMP JUMPDEST POP POP POP POP JUMP JUMPDEST PUSH1 0x9 SLOAD DUP2 PUSH1 0x40 MLOAD PUSH1 0x20 ADD PUSH2 0x14FB SWAP2 SWAP1 PUSH2 0x4D9C JUMP JUMPDEST PUSH1 0x40 MLOAD PUSH1 0x20 DUP2 DUP4 SUB SUB DUP2 MSTORE SWAP1 PUSH1 0x40 MSTORE DUP1 MLOAD SWAP1 PUSH1 0x20 ADD KECCAK256 EQ PUSH2 0x1551 JUMPI PUSH1 0x40 MLOAD PUSH32 0x8C379A000000000000000000000000000000000000000000000000000000000 DUP2 MSTORE PUSH1 0x4 ADD PUSH2 0x1548 SWAP1 PUSH2 0x4DFF JUMP JUMPDEST PUSH1 0x40 MLOAD DUP1 SWAP2 SUB SWAP1 REVERT JUMPDEST PUSH1 0x0 PUSH1 0x6 PUSH1 0x0 DUP5 PUSH1 0x2 DUP2 GT ISZERO PUSH2 0x156A JUMPI PUSH2 0x1569 PUSH2 0x4E1F JUMP JUMPDEST JUMPDEST PUSH1 0x2 DUP2 GT ISZERO PUSH2 0x157C JUMPI PUSH2 0x157B PUSH2 0x4E1F JUMP JUMPDEST JUMPDEST DUP2 MSTORE PUSH1 0x20 ADD SWAP1 DUP2 MSTORE PUSH1 0x20 ADD PUSH1 0x0 KECCAK256 SWAP1 POP DUP1 PUSH1 0x1 ADD SLOAD DUP5 GT PUSH2 0x15D2 JUMPI PUSH1 0x40 MLOAD PUSH32 0x8C379A000000000000000000000000000000000000000000000000000000000 DUP2 MSTORE PUSH1 0x4 ADD PUSH2 0x15C9 SWAP1 PUSH2 0x4E9A JUMP JUMPDEST PUSH1 0x40 MLOAD DUP1 SWAP2 SUB SWAP1 REVERT JUMPDEST CALLER PUSH20 0xFFFFFFFFFFFFFFFFFFFFFFFFFFFFFFFFFFFFFFFF AND DUP2 PUSH1 0x0 ADD PUSH1 0x0 SWAP1 SLOAD SWAP1 PUSH2 0x100 EXP SWAP1 DIV PUSH20 0xFFFFFFFFFFFFFFFFFFFFFFFFFFFFFFFFFFFFFFFF AND PUSH20 0xFFFFFFFFFFFFFFFFFFFFFFFFFFFFFFFFFFFFFFFF AND SUB PUSH2 0x1699 JUMPI DUP4 DUP2 PUSH1 0x1 ADD DUP2 SWAP1 SSTORE POP CALLER PUSH20 0xFFFFFFFFFFFFFFFFFFFFFFFFFFFFFFFFFFFFFFFF AND DUP4 PUSH1 0x2 DUP2 GT ISZERO PUSH2 0x165C JUMPI PUSH2 0x165B PUSH2 0x4E1F JUMP JUMPDEST JUMPDEST PUSH32 0x300FF980EFDFCBF9315C1929DBD04369FE492B36170E95357766EC52103924F6 DUP7 PUSH1 0x40 MLOAD PUSH2 0x168B SWAP2 SWAP1 PUSH2 0x3904 JUMP JUMPDEST PUSH1 0x40 MLOAD DUP1 SWAP2 SUB SWAP1 LOG3 POP PUSH2 0x1BDE JUMP JUMPDEST PUSH1 0x0 PUSH20 0xFFFFFFFFFFFFFFFFFFFFFFFFFFFFFFFFFFFFFFFF AND DUP2 PUSH1 0x0 ADD PUSH1 0x0 SWAP1 SLOAD SWAP1 PUSH2 0x100 EXP SWAP1 DIV PUSH20 0xFFFFFFFFFFFFFFFFFFFFFFFFFFFFFFFFFFFFFFFF AND PUSH20 0xFFFFFFFFFFFFFFFFFFFFFFFFFFFFFFFFFFFFFFFF AND EQ ISZERO DUP1 ISZERO PUSH2 0x179C JUMPI POP PUSH1 0x7 PUSH1 0x0 DUP3 PUSH1 0x0 ADD PUSH1 0x0 SWAP1 SLOAD SWAP1 PUSH2 0x100 EXP SWAP1 DIV PUSH20 0xFFFFFFFFFFFFFFFFFFFFFFFFFFFFFFFFFFFFFFFF AND PUSH20 0xFFFFFFFFFFFFFFFFFFFFFFFFFFFFFFFFFFFFFFFF AND PUSH20 0xFFFFFFFFFFFFFFFFFFFFFFFFFFFFFFFFFFFFFFFF AND DUP2 MSTORE PUSH1 0x20 ADD SWAP1 DUP2 MSTORE PUSH1 0x20 ADD PUSH1 0x0 KECCAK256 PUSH1 0x0 DUP5 PUSH1 0x2 DUP2 GT ISZERO PUSH2 0x176D JUMPI PUSH2 0x176C PUSH2 0x4E1F JUMP JUMPDEST JUMPDEST PUSH1 0x2 DUP2 GT ISZERO PUSH2 0x177F JUMPI PUSH2 0x177E PUSH2 0x4E1F JUMP JUMPDEST JUMPDEST DUP2 MSTORE PUSH1 0x20 ADD SWAP1 DUP2 MSTORE PUSH1 0x20 ADD PUSH1 0x0 KECCAK256 PUSH1 0x0 SWAP1 SLOAD SWAP1 PUSH2 0x100 EXP SWAP1 DIV PUSH1 0xFF AND JUMPDEST ISZERO PUSH2 0x198B JUMPI PUSH1 0x0 DUP2 PUSH1 0x0 ADD PUSH1 0x0 SWAP1 SLOAD SWAP1 PUSH2 0x100 EXP SWAP1 DIV PUSH20 0xFFFFFFFFFFFFFFFFFFFFFFFFFFFFFFFFFFFFFFFF AND DUP5 PUSH32 0x8C14E706F344A21EB23261AB6A4811D5599E56E890562777A6914925A5951273 PUSH1 0x40 MLOAD PUSH1 0x20 ADD PUSH2 0x17FC SWAP4 SWAP3 SWAP2 SWAP1 PUSH2 0x4F4A JUMP JUMPDEST PUSH1 0x40 MLOAD PUSH1 0x20 DUP2 DUP4 SUB SUB DUP2 MSTORE SWAP1 PUSH1 0x40 MSTORE DUP1 MLOAD SWAP1 PUSH1 0x20 ADD KECCAK256 SWAP1 POP PUSH2 0x1853 DUP2 PUSH1 0x40 MLOAD DUP1 PUSH1 0x40 ADD PUSH1 0x40 MSTORE DUP1 PUSH1 0x17 DUP2 MSTORE PUSH1 0x20 ADD PUSH32 0x466972737420506C616365204E4654207265766F6B6564000000000000000000 DUP2 MSTORE POP PUSH2 0x26EA JUMP JUMPDEST PUSH1 0x0 PUSH1 0x7 PUSH1 0x0 DUP5 PUSH1 0x0 ADD PUSH1 0x0 SWAP1 SLOAD SWAP1 PUSH2 0x100 EXP SWAP1 DIV PUSH20 0xFFFFFFFFFFFFFFFFFFFFFFFFFFFFFFFFFFFFFFFF AND PUSH20 0xFFFFFFFFFFFFFFFFFFFFFFFFFFFFFFFFFFFFFFFF AND PUSH20 0xFFFFFFFFFFFFFFFFFFFFFFFFFFFFFFFFFFFFFFFF AND DUP2 MSTORE PUSH1 0x20 ADD SWAP1 DUP2 MSTORE PUSH1 0x20 ADD PUSH1 0x0 KECCAK256 PUSH1 0x0 DUP7 PUSH1 0x2 DUP2 GT ISZERO PUSH2 0x18CD JUMPI PUSH2 0x18CC PUSH2 0x4E1F JUMP JUMPDEST JUMPDEST PUSH1 0x2 DUP2 GT ISZERO PUSH2 0x18DF JUMPI PUSH2 0x18DE PUSH2 0x4E1F JUMP JUMPDEST JUMPDEST DUP2 MSTORE PUSH1 0x20 ADD SWAP1 DUP2 MSTORE PUSH1 0x20 ADD PUSH1 0x0 KECCAK256 PUSH1 0x0 PUSH2 0x100 EXP DUP2 SLOAD DUP2 PUSH1 0xFF MUL NOT AND SWAP1 DUP4 ISZERO ISZERO MUL OR SWAP1 SSTORE POP DUP2 PUSH1 0x0 ADD PUSH1 0x0 SWAP1 SLOAD SWAP1 PUSH2 0x100 EXP SWAP1 DIV PUSH20 0xFFFFFFFFFFFFFFFFFFFFFFFFFFFFFFFFFFFFFFFF AND PUSH20 0xFFFFFFFFFFFFFFFFFFFFFFFFFFFFFFFFFFFFFFFF AND DUP5 PUSH1 0x2 DUP2 GT ISZERO PUSH2 0x1952 JUMPI PUSH2 0x1951 PUSH2 0x4E1F JUMP JUMPDEST JUMPDEST PUSH32 0x6D74BD0BFB57711860BD7D6D0648D03E2FDFF362F5F46A8F91388D8F39911D08 DUP4 PUSH1 0x40 MLOAD PUSH2 0x1981 SWAP2 SWAP1 PUSH2 0x4B85 JUMP JUMPDEST PUSH1 0x40 MLOAD DUP1 SWAP2 SUB SWAP1 LOG3 POP JUMPDEST PUSH1 0x0 CALLER DUP5 PUSH32 0x8C14E706F344A21EB23261AB6A4811D5599E56E890562777A6914925A5951273 PUSH1 0x40 MLOAD PUSH1 0x20 ADD PUSH2 0x19C2 SWAP4 SWAP3 SWAP2 SWAP1 PUSH2 0x4F4A JUMP JUMPDEST PUSH1 0x40 MLOAD PUSH1 0x20 DUP2 DUP4 SUB SUB DUP2 MSTORE SWAP1 PUSH1 0x40 MSTORE DUP1 MLOAD SWAP1 PUSH1 0x20 ADD KECCAK256 SWAP1 POP PUSH2 0x1A1C CALLER DUP3 PUSH1 0x1 PUSH1 0x40 MLOAD DUP1 PUSH1 0x40 ADD PUSH1 0x40 MSTORE DUP1 PUSH1 0xF DUP2 MSTORE PUSH1 0x20 ADD PUSH32 0x466972737420506C616365204E46540000000000000000000000000000000000 DUP2 MSTORE POP PUSH2 0x2871 JUMP JUMPDEST PUSH2 0x1A26 DUP2 DUP6 PUSH2 0x2AED JUMP JUMPDEST PUSH2 0x1A40 ADDRESS DUP3 PUSH1 0x40 MLOAD DUP1 PUSH1 0x20 ADD PUSH1 0x40 MSTORE DUP1 PUSH1 0x0 DUP2 MSTORE POP PUSH2 0x107E JUMP JUMPDEST PUSH1 0x1 PUSH1 0x7 PUSH1 0x0 CALLER PUSH20 0xFFFFFFFFFFFFFFFFFFFFFFFFFFFFFFFFFFFFFFFF AND PUSH20 0xFFFFFFFFFFFFFFFFFFFFFFFFFFFFFFFFFFFFFFFF AND DUP2 MSTORE PUSH1 0x20 ADD SWAP1 DUP2 MSTORE PUSH1 0x20 ADD PUSH1 0x0 KECCAK256 PUSH1 0x0 DUP7 PUSH1 0x2 DUP2 GT ISZERO PUSH2 0x1A96 JUMPI PUSH2 0x1A95 PUSH2 0x4E1F JUMP JUMPDEST JUMPDEST PUSH1 0x2 DUP2 GT ISZERO PUSH2 0x1AA8 JUMPI PUSH2 0x1AA7 PUSH2 0x4E1F JUMP JUMPDEST JUMPDEST DUP2 MSTORE PUSH1 0x20 ADD SWAP1 DUP2 MSTORE PUSH1 0x20 ADD PUSH1 0x0 KECCAK256 PUSH1 0x0 PUSH2 0x100 EXP DUP2 SLOAD DUP2 PUSH1 0xFF MUL NOT AND SWAP1 DUP4 ISZERO ISZERO MUL OR SWAP1 SSTORE POP CALLER DUP3 PUSH1 0x0 ADD PUSH1 0x0 PUSH2 0x100 EXP DUP2 SLOAD DUP2 PUSH20 0xFFFFFFFFFFFFFFFFFFFFFFFFFFFFFFFFFFFFFFFF MUL NOT AND SWAP1 DUP4 PUSH20 0xFFFFFFFFFFFFFFFFFFFFFFFFFFFFFFFFFFFFFFFF AND MUL OR SWAP1 SSTORE POP DUP5 DUP3 PUSH1 0x1 ADD DUP2 SWAP1 SSTORE POP CALLER PUSH20 0xFFFFFFFFFFFFFFFFFFFFFFFFFFFFFFFFFFFFFFFF AND DUP5 PUSH1 0x2 DUP2 GT ISZERO PUSH2 0x1B43 JUMPI PUSH2 0x1B42 PUSH2 0x4E1F JUMP JUMPDEST JUMPDEST PUSH32 0x300FF980EFDFCBF9315C1929DBD04369FE492B36170E95357766EC52103924F6 DUP8 PUSH1 0x40 MLOAD PUSH2 0x1B72 SWAP2 SWAP1 PUSH2 0x3904 JUMP JUMPDEST PUSH1 0x40 MLOAD DUP1 SWAP2 SUB SWAP1 LOG3 CALLER PUSH20 0xFFFFFFFFFFFFFFFFFFFFFFFFFFFFFFFFFFFFFFFF AND DUP5 PUSH1 0x2 DUP2 GT ISZERO PUSH2 0x1BA4 JUMPI PUSH2 0x1BA3 PUSH2 0x4E1F JUMP JUMPDEST JUMPDEST PUSH32 0xB292D132BB6533EA558B88BBE806F164B9034EA4D33EE745E74E2DD960701812 DUP4 PUSH1 0x40 MLOAD PUSH2 0x1BD3 SWAP2 SWAP1 PUSH2 0x4B85 JUMP JUMPDEST PUSH1 0x40 MLOAD DUP1 SWAP2 SUB SWAP1 LOG3 POP POP JUMPDEST POP POP POP JUMP JUMPDEST PUSH2 0x1BEB PUSH2 0x2364 JUMP JUMPDEST PUSH2 0x1BF6 DUP4 DUP4 DUP4 PUSH2 0x2663 JUMP JUMPDEST POP POP POP JUMP JUMPDEST PUSH1 0x0 PUSH2 0x1C06 DUP5 PUSH2 0xB33 JUMP JUMPDEST SWAP1 POP DUP1 PUSH20 0xFFFFFFFFFFFFFFFFFFFFFFFFFFFFFFFFFFFFFFFF AND CALLER PUSH20 0xFFFFFFFFFFFFFFFFFFFFFFFFFFFFFFFFFFFFFFFF AND EQ PUSH2 0x1CB0 JUMPI CALLER PUSH20 0xFFFFFFFFFFFFFFFFFFFFFFFFFFFFFFFFFFFFFFFF AND DUP6 PUSH20 0xFFFFFFFFFFFFFFFFFFFFFFFFFFFFFFFFFFFFFFFF AND EQ PUSH2 0x1CAF JUMPI CALLER DUP2 DUP6 PUSH1 0x40 MLOAD PUSH32 0x760B5ACD00000000000000000000000000000000000000000000000000000000 DUP2 MSTORE PUSH1 0x4 ADD PUSH2 0x1CA6 SWAP4 SWAP3 SWAP2 SWAP1 PUSH2 0x4F87 JUMP JUMPDEST PUSH1 0x40 MLOAD DUP1 SWAP2 SUB SWAP1 REVERT JUMPDEST JUMPDEST PUSH1 0x0 PUSH20 0xFFFFFFFFFFFFFFFFFFFFFFFFFFFFFFFFFFFFFFFF AND DUP6 PUSH20 0xFFFFFFFFFFFFFFFFFFFFFFFFFFFFFFFFFFFFFFFF AND SUB PUSH2 0x1D16 JUMPI PUSH1 0x40 MLOAD PUSH32 0x9577B8B300000000000000000000000000000000000000000000000000000000 DUP2 MSTORE PUSH1 0x4 ADD PUSH1 0x40 MLOAD DUP1 SWAP2 SUB SWAP1 REVERT JUMPDEST DUP5 PUSH20 0xFFFFFFFFFFFFFFFFFFFFFFFFFFFFFFFFFFFFFFFF AND DUP2 PUSH20 0xFFFFFFFFFFFFFFFFFFFFFFFFFFFFFFFFFFFFFFFF AND SUB PUSH2 0x1D7B JUMPI PUSH1 0x40 MLOAD PUSH32 0x89FDAD6200000000000000000000000000000000000000000000000000000000 DUP2 MSTORE PUSH1 0x4 ADD PUSH1 0x40 MLOAD DUP1 SWAP2 SUB SWAP1 REVERT JUMPDEST PUSH2 0x1D88 DUP6 DUP3 DUP7 DUP7 DUP7 PUSH2 0x2BE5 JUMP JUMPDEST DUP3 ISZERO PUSH2 0x1DC5 JUMPI PUSH1 0x0 DUP2 DUP6 PUSH1 0x0 DUP6 PUSH1 0x40 MLOAD PUSH1 0x20 ADD PUSH2 0x1DA8 SWAP5 SWAP4 SWAP3 SWAP2 SWAP1 PUSH2 0x4D14 JUMP JUMPDEST PUSH1 0x40 MLOAD PUSH1 0x20 DUP2 DUP4 SUB SUB DUP2 MSTORE SWAP1 PUSH1 0x40 MSTORE SWAP1 POP PUSH2 0x1DC3 DUP7 DUP3 PUSH2 0x2540 JUMP JUMPDEST POP JUMPDEST POP POP POP POP POP JUMP JUMPDEST PUSH1 0x60 DUP2 MLOAD PUSH8 0xFFFFFFFFFFFFFFFF DUP2 GT ISZERO PUSH2 0x1DE9 JUMPI PUSH2 0x1DE8 PUSH2 0x3924 JUMP JUMPDEST JUMPDEST PUSH1 0x40 MLOAD SWAP1 DUP1 DUP3 MSTORE DUP1 PUSH1 0x20 MUL PUSH1 0x20 ADD DUP3 ADD PUSH1 0x40 MSTORE DUP1 ISZERO PUSH2 0x1E1C JUMPI DUP2 PUSH1 0x20 ADD JUMPDEST PUSH1 0x60 DUP2 MSTORE PUSH1 0x20 ADD SWAP1 PUSH1 0x1 SWAP1 SUB SWAP1 DUP2 PUSH2 0x1E07 JUMPI SWAP1 POP JUMPDEST POP SWAP1 POP PUSH1 0x0 JUMPDEST DUP3 MLOAD DUP2 LT ISZERO PUSH2 0x1E77 JUMPI PUSH2 0x1E4E DUP4 DUP3 DUP2 MLOAD DUP2 LT PUSH2 0x1E41 JUMPI PUSH2 0x1E40 PUSH2 0x4B47 JUMP JUMPDEST JUMPDEST PUSH1 0x20 MUL PUSH1 0x20 ADD ADD MLOAD PUSH2 0x22AA JUMP JUMPDEST DUP3 DUP3 DUP2 MLOAD DUP2 LT PUSH2 0x1E61 JUMPI PUSH2 0x1E60 PUSH2 0x4B47 JUMP JUMPDEST JUMPDEST PUSH1 0x20 MUL PUSH1 0x20 ADD ADD DUP2 SWAP1 MSTORE POP DUP1 PUSH1 0x1 ADD SWAP1 POP PUSH2 0x1E22 JUMP JUMPDEST POP SWAP2 SWAP1 POP JUMP JUMPDEST PUSH2 0x1E85 PUSH2 0x2364 JUMP JUMPDEST PUSH1 0x0 PUSH20 0xFFFFFFFFFFFFFFFFFFFFFFFFFFFFFFFFFFFFFFFF AND DUP2 PUSH20 0xFFFFFFFFFFFFFFFFFFFFFFFFFFFFFFFFFFFFFFFF AND SUB PUSH2 0x1EF4 JUMPI PUSH1 0x40 MLOAD PUSH32 0x8C379A000000000000000000000000000000000000000000000000000000000 DUP2 MSTORE PUSH1 0x4 ADD PUSH2 0x1EEB SWAP1 PUSH2 0x5030 JUMP JUMPDEST PUSH1 0x40 MLOAD DUP1 SWAP2 SUB SWAP1 REVERT JUMPDEST PUSH2 0x1EFD DUP2 PUSH2 0x23E2 JUMP JUMPDEST POP JUMP JUMPDEST PUSH1 0x6 PUSH1 0x20 MSTORE DUP1 PUSH1 0x0 MSTORE PUSH1 0x40 PUSH1 0x0 KECCAK256 PUSH1 0x0 SWAP2 POP SWAP1 POP DUP1 PUSH1 0x0 ADD PUSH1 0x0 SWAP1 SLOAD SWAP1 PUSH2 0x100 EXP SWAP1 DIV PUSH20 0xFFFFFFFFFFFFFFFFFFFFFFFFFFFFFFFFFFFFFFFF AND SWAP1 DUP1 PUSH1 0x1 ADD SLOAD SWAP1 POP DUP3 JUMP JUMPDEST PUSH1 0x0 DUP1 PUSH1 0x0 PUSH2 0x1F7F PUSH10 0xCEE78B4094DA86011096 PUSH1 0xB0 SHL DUP6 PUSH28 0xFFFFFFFFFFFFFFFFFFFFFFFFFFFFFFFFFFFFFFFFFFFFFFFFFFFFFFFF NOT AND PUSH2 0x2CC2 JUMP JUMPDEST SWAP1 POP PUSH1 0x0 PUSH2 0x1F8C DUP3 PUSH2 0x22AA JUMP JUMPDEST SWAP1 POP PUSH1 0x14 DUP2 MLOAD EQ ISZERO DUP1 ISZERO PUSH2 0x1FA2 JUMPI POP PUSH1 0x0 DUP2 MLOAD EQ ISZERO JUMPDEST ISZERO PUSH2 0x1FE4 JUMPI DUP1 PUSH1 0x40 MLOAD PUSH32 0x42BFE79F00000000000000000000000000000000000000000000000000000000 DUP2 MSTORE PUSH1 0x4 ADD PUSH2 0x1FDB SWAP2 SWAP1 PUSH2 0x38C9 JUMP JUMPDEST PUSH1 0x40 MLOAD DUP1 SWAP2 SUB SWAP1 REVERT JUMPDEST DUP1 PUSH2 0x1FEE SWAP1 PUSH2 0x50AE JUMP JUMPDEST PUSH1 0x60 SHR PUSH1 0x1 SWAP4 POP SWAP4 POP POP POP SWAP2 POP SWAP2 JUMP JUMPDEST PUSH1 0x0 PUSH4 0xA918FA6B PUSH1 0xE0 SHL PUSH28 0xFFFFFFFFFFFFFFFFFFFFFFFFFFFFFFFFFFFFFFFFFFFFFFFFFFFFFFFF NOT AND DUP3 PUSH28 0xFFFFFFFFFFFFFFFFFFFFFFFFFFFFFFFFFFFFFFFFFFFFFFFFFFFFFFFF NOT AND EQ DUP1 PUSH2 0x2058 JUMPI POP PUSH2 0x2057 DUP3 PUSH2 0x2D02 JUMP JUMPDEST JUMPDEST SWAP1 POP SWAP2 SWAP1 POP JUMP JUMPDEST PUSH1 0x0 DUP1 PUSH2 0x2072 PUSH4 0x1FFC9A7 PUSH1 0xE0 SHL PUSH2 0x1F44 JUMP JUMPDEST POP SWAP1 POP PUSH1 0x0 PUSH20 0xFFFFFFFFFFFFFFFFFFFFFFFFFFFFFFFFFFFFFFFF AND DUP2 PUSH20 0xFFFFFFFFFFFFFFFFFFFFFFFFFFFFFFFFFFFFFFFF AND SUB PUSH2 0x20B3 JUMPI PUSH1 0x0 SWAP2 POP POP PUSH2 0x20C1 JUMP JUMPDEST PUSH2 0x20BD DUP2 DUP5 PUSH2 0x2D63 JUMP JUMPDEST SWAP2 POP POP JUMPDEST SWAP2 SWAP1 POP JUMP JUMPDEST PUSH1 0x60 PUSH1 0x1 PUSH1 0x0 DUP5 DUP5 PUSH1 0x40 MLOAD PUSH1 0x20 ADD PUSH2 0x20DF SWAP3 SWAP2 SWAP1 PUSH2 0x5115 JUMP JUMPDEST PUSH1 0x40 MLOAD PUSH1 0x20 DUP2 DUP4 SUB SUB DUP2 MSTORE SWAP1 PUSH1 0x40 MSTORE DUP1 MLOAD SWAP1 PUSH1 0x20 ADD KECCAK256 DUP2 MSTORE PUSH1 0x20 ADD SWAP1 DUP2 MSTORE PUSH1 0x20 ADD PUSH1 0x0 KECCAK256 DUP1 SLOAD PUSH2 0x210E SWAP1 PUSH2 0x4BCF JUMP JUMPDEST DUP1 PUSH1 0x1F ADD PUSH1 0x20 DUP1 SWAP2 DIV MUL PUSH1 0x20 ADD PUSH1 0x40 MLOAD SWAP1 DUP2 ADD PUSH1 0x40 MSTORE DUP1 SWAP3 SWAP2 SWAP1 DUP2 DUP2 MSTORE PUSH1 0x20 ADD DUP3 DUP1 SLOAD PUSH2 0x213A SWAP1 PUSH2 0x4BCF JUMP JUMPDEST DUP1 ISZERO PUSH2 0x2187 JUMPI DUP1 PUSH1 0x1F LT PUSH2 0x215C JUMPI PUSH2 0x100 DUP1 DUP4 SLOAD DIV MUL DUP4 MSTORE SWAP2 PUSH1 0x20 ADD SWAP2 PUSH2 0x2187 JUMP JUMPDEST DUP3 ADD SWAP2 SWAP1 PUSH1 0x0 MSTORE PUSH1 0x20 PUSH1 0x0 KECCAK256 SWAP1 JUMPDEST DUP2 SLOAD DUP2 MSTORE SWAP1 PUSH1 0x1 ADD SWAP1 PUSH1 0x20 ADD DUP1 DUP4 GT PUSH2 0x216A JUMPI DUP3 SWAP1 SUB PUSH1 0x1F AND DUP3 ADD SWAP2 JUMPDEST POP POP POP POP POP SWAP1 POP SWAP3 SWAP2 POP POP JUMP JUMPDEST PUSH1 0x0 PUSH2 0x219F DUP3 PUSH2 0xB33 JUMP JUMPDEST PUSH20 0xFFFFFFFFFFFFFFFFFFFFFFFFFFFFFFFFFFFFFFFF AND DUP4 PUSH20 0xFFFFFFFFFFFFFFFFFFFFFFFFFFFFFFFFFFFFFFFF AND EQ DUP1 PUSH2 0x21F9 JUMPI POP PUSH2 0x21F8 DUP4 PUSH1 0x5 PUSH1 0x0 DUP6 DUP2 MSTORE PUSH1 0x20 ADD SWAP1 DUP2 MSTORE PUSH1 0x20 ADD PUSH1 0x0 KECCAK256 PUSH2 0x2E22 SWAP1 SWAP2 SWAP1 PUSH4 0xFFFFFFFF AND JUMP JUMPDEST JUMPDEST SWAP1 POP SWAP3 SWAP2 POP POP JUMP JUMPDEST PUSH2 0x220A DUP2 PUSH2 0x2E52 JUMP JUMPDEST PUSH2 0x224B JUMPI DUP1 PUSH1 0x40 MLOAD PUSH32 0xAE8F9A3600000000000000000000000000000000000000000000000000000000 DUP2 MSTORE PUSH1 0x4 ADD PUSH2 0x2242 SWAP2 SWAP1 PUSH2 0x4B85 JUMP JUMPDEST PUSH1 0x40 MLOAD DUP1 SWAP2 SUB SWAP1 REVERT JUMPDEST POP JUMP JUMPDEST PUSH1 0x60 PUSH1 0x0 PUSH2 0x225E DUP4 PUSH1 0x0 ADD PUSH2 0x2EBE JUMP JUMPDEST SWAP1 POP PUSH1 0x60 DUP2 SWAP1 POP DUP1 SWAP3 POP POP POP SWAP2 SWAP1 POP JUMP JUMPDEST PUSH1 0x40 MLOAD PUSH32 0x8C379A000000000000000000000000000000000000000000000000000000000 DUP2 MSTORE PUSH1 0x4 ADD PUSH2 0x22A1 SWAP1 PUSH2 0x51B3 JUMP JUMPDEST PUSH1 0x40 MLOAD DUP1 SWAP2 SUB SWAP1 REVERT JUMPDEST PUSH1 0x60 PUSH1 0x1 PUSH1 0x0 DUP4 DUP2 MSTORE PUSH1 0x20 ADD SWAP1 DUP2 MSTORE PUSH1 0x20 ADD PUSH1 0x0 KECCAK256 DUP1 SLOAD PUSH2 0x22CA SWAP1 PUSH2 0x4BCF JUMP JUMPDEST DUP1 PUSH1 0x1F ADD PUSH1 0x20 DUP1 SWAP2 DIV MUL PUSH1 0x20 ADD PUSH1 0x40 MLOAD SWAP1 DUP2 ADD PUSH1 0x40 MSTORE DUP1 SWAP3 SWAP2 SWAP1 DUP2 DUP2 MSTORE PUSH1 0x20 ADD DUP3 DUP1 SLOAD PUSH2 0x22F6 SWAP1 PUSH2 0x4BCF JUMP JUMPDEST DUP1 ISZERO PUSH2 0x2343 JUMPI DUP1 PUSH1 0x1F LT PUSH2 0x2318 JUMPI PUSH2 0x100 DUP1 DUP4 SLOAD DIV MUL DUP4 MSTORE SWAP2 PUSH1 0x20 ADD SWAP2 PUSH2 0x2343 JUMP JUMPDEST DUP3 ADD SWAP2 SWAP1 PUSH1 0x0 MSTORE PUSH1 0x20 PUSH1 0x0 KECCAK256 SWAP1 JUMPDEST DUP2 SLOAD DUP2 MSTORE SWAP1 PUSH1 0x1 ADD SWAP1 PUSH1 0x20 ADD DUP1 DUP4 GT PUSH2 0x2326 JUMPI DUP3 SWAP1 SUB PUSH1 0x1F AND DUP3 ADD SWAP2 JUMPDEST POP POP POP POP POP SWAP1 POP SWAP2 SWAP1 POP JUMP JUMPDEST PUSH1 0x0 PUSH2 0x235D DUP3 PUSH1 0x0 ADD PUSH2 0x2F1A JUMP JUMPDEST SWAP1 POP SWAP2 SWAP1 POP JUMP JUMPDEST PUSH2 0x236C PUSH2 0x2F2B JUMP JUMPDEST PUSH20 0xFFFFFFFFFFFFFFFFFFFFFFFFFFFFFFFFFFFFFFFF AND PUSH2 0x238A PUSH2 0x12EC JUMP JUMPDEST PUSH20 0xFFFFFFFFFFFFFFFFFFFFFFFFFFFFFFFFFFFFFFFF AND EQ PUSH2 0x23E0 JUMPI PUSH1 0x40 MLOAD PUSH32 0x8C379A000000000000000000000000000000000000000000000000000000000 DUP2 MSTORE PUSH1 0x4 ADD PUSH2 0x23D7 SWAP1 PUSH2 0x521F JUMP JUMPDEST PUSH1 0x40 MLOAD DUP1 SWAP2 SUB SWAP1 REVERT JUMPDEST JUMP JUMPDEST PUSH1 0x0 DUP1 PUSH1 0x0 SWAP1 SLOAD SWAP1 PUSH2 0x100 EXP SWAP1 DIV PUSH20 0xFFFFFFFFFFFFFFFFFFFFFFFFFFFFFFFFFFFFFFFF AND SWAP1 POP DUP2 PUSH1 0x0 DUP1 PUSH2 0x100 EXP DUP2 SLOAD DUP2 PUSH20 0xFFFFFFFFFFFFFFFFFFFFFFFFFFFFFFFFFFFFFFFF MUL NOT AND SWAP1 DUP4 PUSH20 0xFFFFFFFFFFFFFFFFFFFFFFFFFFFFFFFFFFFFFFFF AND MUL OR SWAP1 SSTORE POP DUP2 PUSH20 0xFFFFFFFFFFFFFFFFFFFFFFFFFFFFFFFFFFFFFFFF AND DUP2 PUSH20 0xFFFFFFFFFFFFFFFFFFFFFFFFFFFFFFFFFFFFFFFF AND PUSH32 0x8BE0079C531659141344CD1FD0A4F28419497F9722A3DAAFE3B4186F6B6457E0 PUSH1 0x40 MLOAD PUSH1 0x40 MLOAD DUP1 SWAP2 SUB SWAP1 LOG3 POP POP JUMP JUMPDEST PUSH32 0xF675E9361AF1C1664C1868CFA3EB97672D6B1A513AA5B81DEC34C9EE330E818D PUSH1 0x0 SHL DUP3 SUB PUSH2 0x2502 JUMPI PUSH1 0x40 MLOAD PUSH32 0x3664800A00000000000000000000000000000000000000000000000000000000 DUP2 MSTORE PUSH1 0x4 ADD PUSH1 0x40 MLOAD DUP1 SWAP2 SUB SWAP1 REVERT JUMPDEST PUSH2 0x250C DUP3 DUP3 PUSH2 0x2F33 JUMP JUMPDEST POP POP JUMP JUMPDEST PUSH1 0x0 PUSH2 0x2538 DUP4 PUSH1 0x0 ADD DUP4 PUSH20 0xFFFFFFFFFFFFFFFFFFFFFFFFFFFFFFFFFFFFFFFF AND PUSH1 0x0 SHL PUSH2 0x30A4 JUMP JUMPDEST SWAP1 POP SWAP3 SWAP2 POP POP JUMP JUMPDEST PUSH2 0x256E DUP3 PUSH32 0x8A1C15A8799F71B547E08E2BCB2E85257E81B0A07EEE2CE6712549EEF1F00970 PUSH1 0x0 SHL DUP4 PUSH2 0x3114 JUMP JUMPDEST POP POP JUMP JUMPDEST DUP1 MLOAD DUP3 MLOAD EQ PUSH2 0x25AD JUMPI PUSH1 0x40 MLOAD PUSH32 0x3BCC897900000000000000000000000000000000000000000000000000000000 DUP2 MSTORE PUSH1 0x4 ADD PUSH1 0x40 MLOAD DUP1 SWAP2 SUB SWAP1 REVERT JUMPDEST PUSH1 0x0 DUP3 MLOAD SUB PUSH2 0x25E8 JUMPI PUSH1 0x40 MLOAD PUSH32 0x97DA5F9500000000000000000000000000000000000000000000000000000000 DUP2 MSTORE PUSH1 0x4 ADD PUSH1 0x40 MLOAD DUP1 SWAP2 SUB SWAP1 REVERT JUMPDEST PUSH1 0x0 JUMPDEST DUP3 MLOAD DUP2 LT ISZERO PUSH2 0x263D JUMPI PUSH2 0x2632 DUP4 DUP3 DUP2 MLOAD DUP2 LT PUSH2 0x260A JUMPI PUSH2 0x2609 PUSH2 0x4B47 JUMP JUMPDEST JUMPDEST PUSH1 0x20 MUL PUSH1 0x20 ADD ADD MLOAD DUP4 DUP4 DUP2 MLOAD DUP2 LT PUSH2 0x2625 JUMPI PUSH2 0x2624 PUSH2 0x4B47 JUMP JUMPDEST JUMPDEST PUSH1 0x20 MUL PUSH1 0x20 ADD ADD MLOAD PUSH2 0x24A6 JUMP JUMPDEST DUP1 PUSH1 0x1 ADD SWAP1 POP PUSH2 0x25EB JUMP JUMPDEST POP POP POP JUMP JUMPDEST PUSH1 0x60 PUSH1 0x0 PUSH2 0x2652 DUP4 PUSH1 0x0 ADD PUSH2 0x2EBE JUMP JUMPDEST SWAP1 POP PUSH1 0x60 DUP2 SWAP1 POP DUP1 SWAP3 POP POP POP SWAP2 SWAP1 POP JUMP JUMPDEST DUP1 PUSH1 0x1 PUSH1 0x0 DUP6 DUP6 PUSH1 0x40 MLOAD PUSH1 0x20 ADD PUSH2 0x267B SWAP3 SWAP2 SWAP1 PUSH2 0x5115 JUMP JUMPDEST PUSH1 0x40 MLOAD PUSH1 0x20 DUP2 DUP4 SUB SUB DUP2 MSTORE SWAP1 PUSH1 0x40 MSTORE DUP1 MLOAD SWAP1 PUSH1 0x20 ADD KECCAK256 DUP2 MSTORE PUSH1 0x20 ADD SWAP1 DUP2 MSTORE PUSH1 0x20 ADD PUSH1 0x0 KECCAK256 SWAP1 DUP2 PUSH2 0x26AB SWAP2 SWAP1 PUSH2 0x53DE JUMP JUMPDEST POP DUP2 DUP4 PUSH32 0xA6E4251F855F750545FE414F120DB91C76B88DEF14D120969E5BB2D3F05DEBBB DUP4 PUSH1 0x40 MLOAD PUSH2 0x26DD SWAP2 SWAP1 PUSH2 0x38C9 JUMP JUMPDEST PUSH1 0x40 MLOAD DUP1 SWAP2 SUB SWAP1 LOG3 POP POP POP JUMP JUMPDEST PUSH1 0x0 PUSH2 0x26F5 DUP4 PUSH2 0xB33 JUMP JUMPDEST SWAP1 POP PUSH2 0x2706 DUP2 PUSH1 0x0 DUP6 PUSH1 0x0 DUP7 PUSH2 0x31D3 JUMP JUMPDEST PUSH2 0x270F DUP4 PUSH2 0xB33 JUMP JUMPDEST SWAP1 POP PUSH1 0x2 PUSH1 0x0 DUP2 SLOAD PUSH2 0x2720 SWAP1 PUSH2 0x54DF JUMP JUMPDEST SWAP2 SWAP1 POP DUP2 SWAP1 SSTORE POP PUSH2 0x2731 DUP2 DUP5 PUSH2 0x31DA JUMP JUMPDEST PUSH2 0x2782 DUP4 PUSH1 0x4 PUSH1 0x0 DUP5 PUSH20 0xFFFFFFFFFFFFFFFFFFFFFFFFFFFFFFFFFFFFFFFF AND PUSH20 0xFFFFFFFFFFFFFFFFFFFFFFFFFFFFFFFFFFFFFFFF AND DUP2 MSTORE PUSH1 0x20 ADD SWAP1 DUP2 MSTORE PUSH1 0x20 ADD PUSH1 0x0 KECCAK256 PUSH2 0x3250 SWAP1 SWAP2 SWAP1 PUSH4 0xFFFFFFFF AND JUMP JUMPDEST POP PUSH1 0x3 PUSH1 0x0 DUP5 DUP2 MSTORE PUSH1 0x20 ADD SWAP1 DUP2 MSTORE PUSH1 0x20 ADD PUSH1 0x0 KECCAK256 PUSH1 0x0 PUSH2 0x100 EXP DUP2 SLOAD SWAP1 PUSH20 0xFFFFFFFFFFFFFFFFFFFFFFFFFFFFFFFFFFFFFFFF MUL NOT AND SWAP1 SSTORE DUP3 PUSH1 0x0 PUSH20 0xFFFFFFFFFFFFFFFFFFFFFFFFFFFFFFFFFFFFFFFF AND DUP3 PUSH20 0xFFFFFFFFFFFFFFFFFFFFFFFFFFFFFFFFFFFFFFFF AND PUSH32 0xB333C813A7426A7A11E2B190CAD52C44119421594B47F6F32ACE6D8C7207B2BF CALLER PUSH1 0x0 DUP8 PUSH1 0x40 MLOAD PUSH2 0x281D SWAP4 SWAP3 SWAP2 SWAP1 PUSH2 0x5508 JUMP JUMPDEST PUSH1 0x40 MLOAD DUP1 SWAP2 SUB SWAP1 LOG4 PUSH2 0x2834 DUP2 PUSH1 0x0 DUP6 PUSH1 0x0 DUP7 PUSH2 0x3267 JUMP JUMPDEST PUSH1 0x0 CALLER DUP3 PUSH1 0x0 DUP7 DUP7 PUSH1 0x40 MLOAD PUSH1 0x20 ADD PUSH2 0x2850 SWAP6 SWAP5 SWAP4 SWAP3 SWAP2 SWAP1 PUSH2 0x5546 JUMP JUMPDEST PUSH1 0x40 MLOAD PUSH1 0x20 DUP2 DUP4 SUB SUB DUP2 MSTORE SWAP1 PUSH1 0x40 MSTORE SWAP1 POP PUSH2 0x286B DUP3 DUP3 PUSH2 0x326E JUMP JUMPDEST POP POP POP POP JUMP JUMPDEST PUSH1 0x0 PUSH20 0xFFFFFFFFFFFFFFFFFFFFFFFFFFFFFFFFFFFFFFFF AND DUP5 PUSH20 0xFFFFFFFFFFFFFFFFFFFFFFFFFFFFFFFFFFFFFFFF AND SUB PUSH2 0x28D7 JUMPI PUSH1 0x40 MLOAD PUSH32 0x24ECEF4D00000000000000000000000000000000000000000000000000000000 DUP2 MSTORE PUSH1 0x4 ADD PUSH1 0x40 MLOAD DUP1 SWAP2 SUB SWAP1 REVERT JUMPDEST PUSH2 0x28E0 DUP4 PUSH2 0x2E52 JUMP JUMPDEST ISZERO PUSH2 0x2922 JUMPI DUP3 PUSH1 0x40 MLOAD PUSH32 0x34C7B51100000000000000000000000000000000000000000000000000000000 DUP2 MSTORE PUSH1 0x4 ADD PUSH2 0x2919 SWAP2 SWAP1 PUSH2 0x4B85 JUMP JUMPDEST PUSH1 0x40 MLOAD DUP1 SWAP2 SUB SWAP1 REVERT JUMPDEST PUSH2 0x2930 PUSH1 0x0 DUP6 DUP6 DUP6 DUP6 PUSH2 0x31D3 JUMP JUMPDEST PUSH2 0x2939 DUP4 PUSH2 0x2E52 JUMP JUMPDEST ISZERO PUSH2 0x297B JUMPI DUP3 PUSH1 0x40 MLOAD PUSH32 0x34C7B51100000000000000000000000000000000000000000000000000000000 DUP2 MSTORE PUSH1 0x4 ADD PUSH2 0x2972 SWAP2 SWAP1 PUSH2 0x4B85 JUMP JUMPDEST PUSH1 0x40 MLOAD DUP1 SWAP2 SUB SWAP1 REVERT JUMPDEST PUSH1 0x2 PUSH1 0x0 DUP2 SLOAD PUSH2 0x298A SWAP1 PUSH2 0x55A0 JUMP JUMPDEST SWAP2 SWAP1 POP DUP2 SWAP1 SSTORE POP PUSH2 0x29E2 DUP4 PUSH1 0x4 PUSH1 0x0 DUP8 PUSH20 0xFFFFFFFFFFFFFFFFFFFFFFFFFFFFFFFFFFFFFFFF AND PUSH20 0xFFFFFFFFFFFFFFFFFFFFFFFFFFFFFFFFFFFFFFFF AND DUP2 MSTORE PUSH1 0x20 ADD SWAP1 DUP2 MSTORE PUSH1 0x20 ADD PUSH1 0x0 KECCAK256 PUSH2 0x32A0 SWAP1 SWAP2 SWAP1 PUSH4 0xFFFFFFFF AND JUMP JUMPDEST POP DUP4 PUSH1 0x3 PUSH1 0x0 DUP6 DUP2 MSTORE PUSH1 0x20 ADD SWAP1 DUP2 MSTORE PUSH1 0x20 ADD PUSH1 0x0 KECCAK256 PUSH1 0x0 PUSH2 0x100 EXP DUP2 SLOAD DUP2 PUSH20 0xFFFFFFFFFFFFFFFFFFFFFFFFFFFFFFFFFFFFFFFF MUL NOT AND SWAP1 DUP4 PUSH20 0xFFFFFFFFFFFFFFFFFFFFFFFFFFFFFFFFFFFFFFFF AND MUL OR SWAP1 SSTORE POP DUP3 DUP5 PUSH20 0xFFFFFFFFFFFFFFFFFFFFFFFFFFFFFFFFFFFFFFFF AND PUSH1 0x0 PUSH20 0xFFFFFFFFFFFFFFFFFFFFFFFFFFFFFFFFFFFFFFFF AND PUSH32 0xB333C813A7426A7A11E2B190CAD52C44119421594B47F6F32ACE6D8C7207B2BF CALLER DUP7 DUP7 PUSH1 0x40 MLOAD PUSH2 0x2A98 SWAP4 SWAP3 SWAP2 SWAP1 PUSH2 0x5508 JUMP JUMPDEST PUSH1 0x40 MLOAD DUP1 SWAP2 SUB SWAP1 LOG4 PUSH2 0x2AAE PUSH1 0x0 DUP6 DUP6 DUP6 DUP6 PUSH2 0x3267 JUMP JUMPDEST PUSH1 0x0 CALLER PUSH1 0x0 DUP7 DUP7 DUP6 PUSH1 0x40 MLOAD PUSH1 0x20 ADD PUSH2 0x2ACA SWAP6 SWAP5 SWAP4 SWAP3 SWAP2 SWAP1 PUSH2 0x5546 JUMP JUMPDEST PUSH1 0x40 MLOAD PUSH1 0x20 DUP2 DUP4 SUB SUB DUP2 MSTORE SWAP1 PUSH1 0x40 MSTORE SWAP1 POP PUSH2 0x2AE6 DUP6 DUP5 DUP4 PUSH2 0x32B7 JUMP JUMPDEST POP POP POP POP POP JUMP JUMPDEST PUSH1 0x0 PUSH1 0x8 PUSH1 0x0 DUP4 PUSH1 0x2 DUP2 GT ISZERO PUSH2 0x2B06 JUMPI PUSH2 0x2B05 PUSH2 0x4E1F JUMP JUMPDEST JUMPDEST PUSH1 0x2 DUP2 GT ISZERO PUSH2 0x2B18 JUMPI PUSH2 0x2B17 PUSH2 0x4E1F JUMP JUMPDEST JUMPDEST DUP2 MSTORE PUSH1 0x20 ADD SWAP1 DUP2 MSTORE PUSH1 0x20 ADD PUSH1 0x0 KECCAK256 DUP1 SLOAD PUSH2 0x2B31 SWAP1 PUSH2 0x4BCF JUMP JUMPDEST DUP1 PUSH1 0x1F ADD PUSH1 0x20 DUP1 SWAP2 DIV MUL PUSH1 0x20 ADD PUSH1 0x40 MLOAD SWAP1 DUP2 ADD PUSH1 0x40 MSTORE DUP1 SWAP3 SWAP2 SWAP1 DUP2 DUP2 MSTORE PUSH1 0x20 ADD DUP3 DUP1 SLOAD PUSH2 0x2B5D SWAP1 PUSH2 0x4BCF JUMP JUMPDEST DUP1 ISZERO PUSH2 0x2BAA JUMPI DUP1 PUSH1 0x1F LT PUSH2 0x2B7F JUMPI PUSH2 0x100 DUP1 DUP4 SLOAD DIV MUL DUP4 MSTORE SWAP2 PUSH1 0x20 ADD SWAP2 PUSH2 0x2BAA JUMP JUMPDEST DUP3 ADD SWAP2 SWAP1 PUSH1 0x0 MSTORE PUSH1 0x20 PUSH1 0x0 KECCAK256 SWAP1 JUMPDEST DUP2 SLOAD DUP2 MSTORE SWAP1 PUSH1 0x1 ADD SWAP1 PUSH1 0x20 ADD DUP1 DUP4 GT PUSH2 0x2B8D JUMPI DUP3 SWAP1 SUB PUSH1 0x1F AND DUP3 ADD SWAP2 JUMPDEST POP POP POP POP POP SWAP1 POP PUSH1 0x0 DUP2 PUSH1 0x40 MLOAD PUSH1 0x20 ADD PUSH2 0x2BC4 SWAP2 SWAP1 PUSH2 0x5633 JUMP JUMPDEST PUSH1 0x40 MLOAD PUSH1 0x20 DUP2 DUP4 SUB SUB DUP2 MSTORE SWAP1 PUSH1 0x40 MSTORE SWAP1 POP PUSH2 0x2BDF DUP5 DUP3 PUSH2 0x24A6 JUMP JUMPDEST POP POP POP POP JUMP JUMPDEST PUSH1 0x0 PUSH2 0x2C0C DUP7 PUSH1 0x5 PUSH1 0x0 DUP8 DUP2 MSTORE PUSH1 0x20 ADD SWAP1 DUP2 MSTORE PUSH1 0x20 ADD PUSH1 0x0 KECCAK256 PUSH2 0x341D SWAP1 SWAP2 SWAP1 PUSH4 0xFFFFFFFF AND JUMP JUMPDEST SWAP1 POP DUP1 PUSH2 0x2C52 JUMPI DUP6 DUP5 PUSH1 0x40 MLOAD PUSH32 0x4AA31A8C00000000000000000000000000000000000000000000000000000000 DUP2 MSTORE PUSH1 0x4 ADD PUSH2 0x2C49 SWAP3 SWAP2 SWAP1 PUSH2 0x4CEB JUMP JUMPDEST PUSH1 0x40 MLOAD DUP1 SWAP2 SUB SWAP1 REVERT JUMPDEST DUP4 DUP6 PUSH20 0xFFFFFFFFFFFFFFFFFFFFFFFFFFFFFFFFFFFFFFFF AND DUP8 PUSH20 0xFFFFFFFFFFFFFFFFFFFFFFFFFFFFFFFFFFFFFFFF AND PUSH32 0xC78CD419D6136F9F1C1C6AEC1D3FAE098CFFAF8BC86314A8F2685E32FE574E3C DUP7 DUP7 PUSH1 0x40 MLOAD PUSH2 0x2CB2 SWAP3 SWAP2 SWAP1 PUSH2 0x5655 JUMP JUMPDEST PUSH1 0x40 MLOAD DUP1 SWAP2 SUB SWAP1 LOG4 POP POP POP POP POP POP JUMP JUMPDEST PUSH1 0x0 DUP1 DUP4 PUSH1 0x0 PUSH1 0xF0 SHL DUP5 PUSH1 0x40 MLOAD PUSH1 0x20 ADD PUSH2 0x2CDE SWAP4 SWAP3 SWAP2 SWAP1 PUSH2 0x5740 JUMP JUMPDEST PUSH1 0x40 MLOAD PUSH1 0x20 DUP2 DUP4 SUB SUB DUP2 MSTORE SWAP1 PUSH1 0x40 MSTORE SWAP1 POP DUP1 PUSH2 0x2CF9 SWAP1 PUSH2 0x5792 JUMP JUMPDEST SWAP2 POP POP SWAP3 SWAP2 POP POP JUMP JUMPDEST PUSH1 0x0 PUSH4 0x629AA694 PUSH1 0xE0 SHL PUSH28 0xFFFFFFFFFFFFFFFFFFFFFFFFFFFFFFFFFFFFFFFFFFFFFFFFFFFFFFFF NOT AND DUP3 PUSH28 0xFFFFFFFFFFFFFFFFFFFFFFFFFFFFFFFFFFFFFFFFFFFFFFFFFFFFFFFF NOT AND EQ DUP1 PUSH2 0x2D5C JUMPI POP PUSH2 0x2D5B DUP3 PUSH2 0x344D JUMP JUMPDEST JUMPDEST SWAP1 POP SWAP2 SWAP1 POP JUMP JUMPDEST PUSH1 0x0 DUP1 PUSH4 0x1FFC9A7 PUSH1 0xE0 SHL DUP4 PUSH1 0x40 MLOAD PUSH1 0x24 ADD PUSH2 0x2D7F SWAP2 SWAP1 PUSH2 0x4A10 JUMP JUMPDEST PUSH1 0x40 MLOAD PUSH1 0x20 DUP2 DUP4 SUB SUB DUP2 MSTORE SWAP1 PUSH1 0x40 MSTORE SWAP1 PUSH28 0xFFFFFFFFFFFFFFFFFFFFFFFFFFFFFFFFFFFFFFFFFFFFFFFFFFFFFFFF NOT AND PUSH1 0x20 DUP3 ADD DUP1 MLOAD PUSH28 0xFFFFFFFFFFFFFFFFFFFFFFFFFFFFFFFFFFFFFFFFFFFFFFFFFFFFFFFF DUP4 DUP2 DUP4 AND OR DUP4 MSTORE POP POP POP POP SWAP1 POP PUSH1 0x0 DUP1 PUSH1 0x0 PUSH1 0x20 PUSH1 0x0 DUP6 MLOAD PUSH1 0x20 DUP8 ADD DUP11 PUSH2 0x7530 STATICCALL SWAP3 POP RETURNDATASIZE SWAP2 POP PUSH1 0x0 MLOAD SWAP1 POP DUP3 DUP1 ISZERO PUSH2 0x2E0A JUMPI POP PUSH1 0x20 DUP3 LT ISZERO JUMPDEST DUP1 ISZERO PUSH2 0x2E16 JUMPI POP PUSH1 0x0 DUP2 GT JUMPDEST SWAP5 POP POP POP POP POP SWAP3 SWAP2 POP POP JUMP JUMPDEST PUSH1 0x0 PUSH2 0x2E4A DUP4 PUSH1 0x0 ADD DUP4 PUSH20 0xFFFFFFFFFFFFFFFFFFFFFFFFFFFFFFFFFFFFFFFF AND PUSH1 0x0 SHL PUSH2 0x34B7 JUMP JUMPDEST SWAP1 POP SWAP3 SWAP2 POP POP JUMP JUMPDEST PUSH1 0x0 DUP1 PUSH20 0xFFFFFFFFFFFFFFFFFFFFFFFFFFFFFFFFFFFFFFFF AND PUSH1 0x3 PUSH1 0x0 DUP5 DUP2 MSTORE PUSH1 0x20 ADD SWAP1 DUP2 MSTORE PUSH1 0x20 ADD PUSH1 0x0 KECCAK256 PUSH1 0x0 SWAP1 SLOAD SWAP1 PUSH2 0x100 EXP SWAP1 DIV PUSH20 0xFFFFFFFFFFFFFFFFFFFFFFFFFFFFFFFFFFFFFFFF AND PUSH20 0xFFFFFFFFFFFFFFFFFFFFFFFFFFFFFFFFFFFFFFFF AND EQ ISZERO SWAP1 POP SWAP2 SWAP1 POP JUMP JUMPDEST PUSH1 0x60 DUP2 PUSH1 0x0 ADD DUP1 SLOAD DUP1 PUSH1 0x20 MUL PUSH1 0x20 ADD PUSH1 0x40 MLOAD SWAP1 DUP2 ADD PUSH1 0x40 MSTORE DUP1 SWAP3 SWAP2 SWAP1 DUP2 DUP2 MSTORE PUSH1 0x20 ADD DUP3 DUP1 SLOAD DUP1 ISZERO PUSH2 0x2F0E JUMPI PUSH1 0x20 MUL DUP3 ADD SWAP2 SWAP1 PUSH1 0x0 MSTORE PUSH1 0x20 PUSH1 0x0 KECCAK256 SWAP1 JUMPDEST DUP2 SLOAD DUP2 MSTORE PUSH1 0x20 ADD SWAP1 PUSH1 0x1 ADD SWAP1 DUP1 DUP4 GT PUSH2 0x2EFA JUMPI JUMPDEST POP POP POP POP POP SWAP1 POP SWAP2 SWAP1 POP JUMP JUMPDEST PUSH1 0x0 DUP2 PUSH1 0x0 ADD DUP1 SLOAD SWAP1 POP SWAP1 POP SWAP2 SWAP1 POP JUMP JUMPDEST PUSH1 0x0 CALLER SWAP1 POP SWAP1 JUMP JUMPDEST PUSH32 0xDEBA1E292F8BA88238E10AB3C7F88BD4BE4FAC56CAD5194B6ECCEAF653468AF1 PUSH1 0x0 SHL DUP3 SUB PUSH2 0x2F8F JUMPI PUSH1 0x40 MLOAD PUSH32 0x85C169BD00000000000000000000000000000000000000000000000000000000 DUP2 MSTORE PUSH1 0x4 ADD PUSH1 0x40 MLOAD DUP1 SWAP2 SUB SWAP1 REVERT JUMPDEST PUSH32 0x2F0A68AB07768E01943A599E73362A0E17A63A72E94DD2E384D2C1D4DB932756 PUSH1 0x0 SHL DUP3 SUB PUSH2 0x2FEB JUMPI PUSH1 0x40 MLOAD PUSH32 0x76755B3800000000000000000000000000000000000000000000000000000000 DUP2 MSTORE PUSH1 0x4 ADD PUSH1 0x40 MLOAD DUP1 SWAP2 SUB SWAP1 REVERT JUMPDEST PUSH32 0xE0261FA95DB2EB3B5439BD033CDA66D56B96F92F243A8228FD87550ED7BDFDB3 PUSH1 0x0 SHL DUP3 SUB PUSH2 0x3047 JUMPI PUSH1 0x40 MLOAD PUSH32 0x4EF6D7FB00000000000000000000000000000000000000000000000000000000 DUP2 MSTORE PUSH1 0x4 ADD PUSH1 0x40 MLOAD DUP1 SWAP2 SUB SWAP1 REVERT JUMPDEST DUP1 PUSH1 0x1 PUSH1 0x0 DUP5 DUP2 MSTORE PUSH1 0x20 ADD SWAP1 DUP2 MSTORE PUSH1 0x20 ADD PUSH1 0x0 KECCAK256 SWAP1 DUP2 PUSH2 0x3067 SWAP2 SWAP1 PUSH2 0x53DE JUMP JUMPDEST POP DUP2 PUSH32 0xECE574603820D07BC9B91F2A932BAADF4628AABCB8AFBA49776529C14A6104B2 DUP3 PUSH1 0x40 MLOAD PUSH2 0x3098 SWAP2 SWAP1 PUSH2 0x38C9 JUMP JUMPDEST PUSH1 0x40 MLOAD DUP1 SWAP2 SUB SWAP1 LOG2 POP POP JUMP JUMPDEST PUSH1 0x0 PUSH2 0x30B0 DUP4 DUP4 PUSH2 0x34B7 JUMP JUMPDEST PUSH2 0x3109 JUMPI DUP3 PUSH1 0x0 ADD DUP3 SWAP1 DUP1 PUSH1 0x1 DUP2 SLOAD ADD DUP1 DUP3 SSTORE DUP1 SWAP2 POP POP PUSH1 0x1 SWAP1 SUB SWAP1 PUSH1 0x0 MSTORE PUSH1 0x20 PUSH1 0x0 KECCAK256 ADD PUSH1 0x0 SWAP1 SWAP2 SWAP1 SWAP2 SWAP1 SWAP2 POP SSTORE DUP3 PUSH1 0x0 ADD DUP1 SLOAD SWAP1 POP DUP4 PUSH1 0x1 ADD PUSH1 0x0 DUP5 DUP2 MSTORE PUSH1 0x20 ADD SWAP1 DUP2 MSTORE PUSH1 0x20 ADD PUSH1 0x0 KECCAK256 DUP2 SWAP1 SSTORE POP PUSH1 0x1 SWAP1 POP PUSH2 0x310E JUMP JUMPDEST PUSH1 0x0 SWAP1 POP JUMPDEST SWAP3 SWAP2 POP POP JUMP JUMPDEST PUSH2 0x3144 PUSH4 0x6BB56A14 PUSH1 0xE0 SHL DUP5 PUSH20 0xFFFFFFFFFFFFFFFFFFFFFFFFFFFFFFFFFFFFFFFF AND PUSH2 0x2D63 SWAP1 SWAP2 SWAP1 PUSH4 0xFFFFFFFF AND JUMP JUMPDEST ISZERO PUSH2 0x31CE JUMPI DUP3 PUSH20 0xFFFFFFFFFFFFFFFFFFFFFFFFFFFFFFFFFFFFFFFF AND PUSH4 0x6BB56A14 DUP4 DUP4 PUSH1 0x40 MLOAD DUP4 PUSH4 0xFFFFFFFF AND PUSH1 0xE0 SHL DUP2 MSTORE PUSH1 0x4 ADD PUSH2 0x3184 SWAP3 SWAP2 SWAP1 PUSH2 0x57F9 JUMP JUMPDEST PUSH1 0x0 PUSH1 0x40 MLOAD DUP1 DUP4 SUB DUP2 PUSH1 0x0 DUP8 GAS CALL ISZERO DUP1 ISZERO PUSH2 0x31A3 JUMPI RETURNDATASIZE PUSH1 0x0 DUP1 RETURNDATACOPY RETURNDATASIZE PUSH1 0x0 REVERT JUMPDEST POP POP POP POP PUSH1 0x40 MLOAD RETURNDATASIZE PUSH1 0x0 DUP3 RETURNDATACOPY RETURNDATASIZE PUSH1 0x1F NOT PUSH1 0x1F DUP3 ADD AND DUP3 ADD DUP1 PUSH1 0x40 MSTORE POP DUP2 ADD SWAP1 PUSH2 0x31CC SWAP2 SWAP1 PUSH2 0x5899 JUMP JUMPDEST POP JUMPDEST POP POP POP JUMP JUMPDEST POP POP POP POP POP JUMP JUMPDEST PUSH1 0x0 PUSH1 0x5 PUSH1 0x0 DUP4 DUP2 MSTORE PUSH1 0x20 ADD SWAP1 DUP2 MSTORE PUSH1 0x20 ADD PUSH1 0x0 KECCAK256 SWAP1 POP PUSH1 0x0 PUSH2 0x31FC DUP3 PUSH2 0x34DA JUMP JUMPDEST SWAP1 POP PUSH1 0x0 DUP1 JUMPDEST DUP3 DUP2 LT ISZERO PUSH2 0x3248 JUMPI PUSH2 0x321E PUSH1 0x0 DUP6 PUSH2 0x34EF SWAP1 SWAP2 SWAP1 PUSH4 0xFFFFFFFF AND JUMP JUMPDEST SWAP2 POP PUSH2 0x323D DUP3 DUP8 DUP8 PUSH1 0x0 PUSH1 0x40 MLOAD DUP1 PUSH1 0x20 ADD PUSH1 0x40 MSTORE DUP1 PUSH1 0x0 DUP2 MSTORE POP PUSH2 0x2BE5 JUMP JUMPDEST DUP1 PUSH1 0x1 ADD SWAP1 POP PUSH2 0x3202 JUMP JUMPDEST POP POP POP POP POP POP JUMP JUMPDEST PUSH1 0x0 PUSH2 0x325F DUP4 PUSH1 0x0 ADD DUP4 PUSH2 0x3509 JUMP JUMPDEST SWAP1 POP SWAP3 SWAP2 POP POP JUMP JUMPDEST POP POP POP POP POP JUMP JUMPDEST PUSH2 0x329C DUP3 PUSH32 0xB23EAE7E6D1564B295B4C3E3BE402D9A2F0776C57BDF365903496F6FA481AB00 PUSH1 0x0 SHL DUP4 PUSH2 0x3114 JUMP JUMPDEST POP POP JUMP JUMPDEST PUSH1 0x0 PUSH2 0x32AF DUP4 PUSH1 0x0 ADD DUP4 PUSH2 0x30A4 JUMP JUMPDEST SWAP1 POP SWAP3 SWAP2 POP POP JUMP JUMPDEST PUSH2 0x32C8 DUP4 PUSH4 0x6BB56A14 PUSH1 0xE0 SHL PUSH2 0x2D63 JUMP JUMPDEST ISZERO PUSH2 0x3379 JUMPI DUP3 PUSH20 0xFFFFFFFFFFFFFFFFFFFFFFFFFFFFFFFFFFFFFFFF AND PUSH4 0x6BB56A14 PUSH32 0xB084A55EBF70FD3C06FD755269DAC2212C4D3F0F4D09079780BFA50C1B2984D PUSH1 0x0 SHL DUP4 PUSH1 0x40 MLOAD DUP4 PUSH4 0xFFFFFFFF AND PUSH1 0xE0 SHL DUP2 MSTORE PUSH1 0x4 ADD PUSH2 0x332B SWAP3 SWAP2 SWAP1 PUSH2 0x57F9 JUMP JUMPDEST PUSH1 0x0 PUSH1 0x40 MLOAD DUP1 DUP4 SUB DUP2 PUSH1 0x0 DUP8 GAS CALL ISZERO DUP1 ISZERO PUSH2 0x334A JUMPI RETURNDATASIZE PUSH1 0x0 DUP1 RETURNDATACOPY RETURNDATASIZE PUSH1 0x0 REVERT JUMPDEST POP POP POP POP PUSH1 0x40 MLOAD RETURNDATASIZE PUSH1 0x0 DUP3 RETURNDATACOPY RETURNDATASIZE PUSH1 0x1F NOT PUSH1 0x1F DUP3 ADD AND DUP3 ADD DUP1 PUSH1 0x40 MSTORE POP DUP2 ADD SWAP1 PUSH2 0x3373 SWAP2 SWAP1 PUSH2 0x5899 JUMP JUMPDEST POP PUSH2 0x3418 JUMP JUMPDEST DUP2 PUSH2 0x3417 JUMPI PUSH1 0x0 DUP4 PUSH20 0xFFFFFFFFFFFFFFFFFFFFFFFFFFFFFFFFFFFFFFFF AND EXTCODESIZE EQ PUSH2 0x33DA JUMPI DUP3 PUSH1 0x40 MLOAD PUSH32 0x4349776D00000000000000000000000000000000000000000000000000000000 DUP2 MSTORE PUSH1 0x4 ADD PUSH2 0x33D1 SWAP2 SWAP1 PUSH2 0x3C7B JUMP JUMPDEST PUSH1 0x40 MLOAD DUP1 SWAP2 SUB SWAP1 REVERT JUMPDEST DUP3 PUSH1 0x40 MLOAD PUSH32 0x317313700000000000000000000000000000000000000000000000000000000 DUP2 MSTORE PUSH1 0x4 ADD PUSH2 0x340E SWAP2 SWAP1 PUSH2 0x3C7B JUMP JUMPDEST PUSH1 0x40 MLOAD DUP1 SWAP2 SUB SWAP1 REVERT JUMPDEST JUMPDEST POP POP POP JUMP JUMPDEST PUSH1 0x0 PUSH2 0x3445 DUP4 PUSH1 0x0 ADD DUP4 PUSH20 0xFFFFFFFFFFFFFFFFFFFFFFFFFFFFFFFFFFFFFFFF AND PUSH1 0x0 SHL PUSH2 0x3509 JUMP JUMPDEST SWAP1 POP SWAP3 SWAP2 POP POP JUMP JUMPDEST PUSH1 0x0 PUSH32 0x1FFC9A700000000000000000000000000000000000000000000000000000000 PUSH28 0xFFFFFFFFFFFFFFFFFFFFFFFFFFFFFFFFFFFFFFFFFFFFFFFFFFFFFFFF NOT AND DUP3 PUSH28 0xFFFFFFFFFFFFFFFFFFFFFFFFFFFFFFFFFFFFFFFFFFFFFFFFFFFFFFFF NOT AND EQ SWAP1 POP SWAP2 SWAP1 POP JUMP JUMPDEST PUSH1 0x0 DUP1 DUP4 PUSH1 0x1 ADD PUSH1 0x0 DUP5 DUP2 MSTORE PUSH1 0x20 ADD SWAP1 DUP2 MSTORE PUSH1 0x20 ADD PUSH1 0x0 KECCAK256 SLOAD EQ ISZERO SWAP1 POP SWAP3 SWAP2 POP POP JUMP JUMPDEST PUSH1 0x0 PUSH2 0x34E8 DUP3 PUSH1 0x0 ADD PUSH2 0x2F1A JUMP JUMPDEST SWAP1 POP SWAP2 SWAP1 POP JUMP JUMPDEST PUSH1 0x0 PUSH2 0x34FE DUP4 PUSH1 0x0 ADD DUP4 PUSH2 0x361D JUMP JUMPDEST PUSH1 0x0 SHR SWAP1 POP SWAP3 SWAP2 POP POP JUMP JUMPDEST PUSH1 0x0 DUP1 DUP4 PUSH1 0x1 ADD PUSH1 0x0 DUP5 DUP2 MSTORE PUSH1 0x20 ADD SWAP1 DUP2 MSTORE PUSH1 0x20 ADD PUSH1 0x0 KECCAK256 SLOAD SWAP1 POP PUSH1 0x0 DUP2 EQ PUSH2 0x3611 JUMPI PUSH1 0x0 PUSH1 0x1 DUP3 PUSH2 0x353B SWAP2 SWAP1 PUSH2 0x58E2 JUMP JUMPDEST SWAP1 POP PUSH1 0x0 PUSH1 0x1 DUP7 PUSH1 0x0 ADD DUP1 SLOAD SWAP1 POP PUSH2 0x3553 SWAP2 SWAP1 PUSH2 0x58E2 JUMP JUMPDEST SWAP1 POP DUP2 DUP2 EQ PUSH2 0x35C2 JUMPI PUSH1 0x0 DUP7 PUSH1 0x0 ADD DUP3 DUP2 SLOAD DUP2 LT PUSH2 0x3574 JUMPI PUSH2 0x3573 PUSH2 0x4B47 JUMP JUMPDEST JUMPDEST SWAP1 PUSH1 0x0 MSTORE PUSH1 0x20 PUSH1 0x0 KECCAK256 ADD SLOAD SWAP1 POP DUP1 DUP8 PUSH1 0x0 ADD DUP5 DUP2 SLOAD DUP2 LT PUSH2 0x3598 JUMPI PUSH2 0x3597 PUSH2 0x4B47 JUMP JUMPDEST JUMPDEST SWAP1 PUSH1 0x0 MSTORE PUSH1 0x20 PUSH1 0x0 KECCAK256 ADD DUP2 SWAP1 SSTORE POP DUP4 DUP8 PUSH1 0x1 ADD PUSH1 0x0 DUP4 DUP2 MSTORE PUSH1 0x20 ADD SWAP1 DUP2 MSTORE PUSH1 0x20 ADD PUSH1 0x0 KECCAK256 DUP2 SWAP1 SSTORE POP POP JUMPDEST DUP6 PUSH1 0x0 ADD DUP1 SLOAD DUP1 PUSH2 0x35D6 JUMPI PUSH2 0x35D5 PUSH2 0x5916 JUMP JUMPDEST JUMPDEST PUSH1 0x1 SWAP1 SUB DUP2 DUP2 SWAP1 PUSH1 0x0 MSTORE PUSH1 0x20 PUSH1 0x0 KECCAK256 ADD PUSH1 0x0 SWAP1 SSTORE SWAP1 SSTORE DUP6 PUSH1 0x1 ADD PUSH1 0x0 DUP7 DUP2 MSTORE PUSH1 0x20 ADD SWAP1 DUP2 MSTORE PUSH1 0x20 ADD PUSH1 0x0 KECCAK256 PUSH1 0x0 SWAP1 SSTORE PUSH1 0x1 SWAP4 POP POP POP POP PUSH2 0x3617 JUMP JUMPDEST PUSH1 0x0 SWAP2 POP POP JUMPDEST SWAP3 SWAP2 POP POP JUMP JUMPDEST PUSH1 0x0 DUP3 PUSH1 0x0 ADD DUP3 DUP2 SLOAD DUP2 LT PUSH2 0x3635 JUMPI PUSH2 0x3634 PUSH2 0x4B47 JUMP JUMPDEST JUMPDEST SWAP1 PUSH1 0x0 MSTORE PUSH1 0x20 PUSH1 0x0 KECCAK256 ADD SLOAD SWAP1 POP SWAP3 SWAP2 POP POP JUMP JUMPDEST PUSH1 0x0 DUP3 DUP3 MSTORE PUSH1 0x20 DUP3 ADD SWAP1 POP SWAP3 SWAP2 POP POP JUMP JUMPDEST PUSH1 0x0 DUP1 DUP3 ADD MSTORE POP JUMP JUMPDEST PUSH1 0x0 PUSH2 0x366F PUSH1 0x4 DUP4 PUSH2 0x3648 JUMP JUMPDEST SWAP2 POP PUSH2 0x367A DUP3 PUSH2 0x3659 JUMP JUMPDEST PUSH1 0x20 DUP3 ADD SWAP1 POP SWAP2 SWAP1 POP JUMP JUMPDEST PUSH1 0x0 PUSH1 0x20 DUP3 ADD SWAP1 POP DUP2 DUP2 SUB PUSH1 0x0 DUP4 ADD MSTORE PUSH2 0x369E DUP2 PUSH2 0x3662 JUMP JUMPDEST SWAP1 POP SWAP2 SWAP1 POP JUMP JUMPDEST DUP3 DUP2 DUP4 CALLDATACOPY PUSH1 0x0 DUP4 DUP4 ADD MSTORE POP POP POP JUMP JUMPDEST PUSH1 0x0 PUSH1 0x1F NOT PUSH1 0x1F DUP4 ADD AND SWAP1 POP SWAP2 SWAP1 POP JUMP JUMPDEST PUSH1 0x0 PUSH2 0x36D1 DUP4 DUP6 PUSH2 0x3648 JUMP JUMPDEST SWAP4 POP PUSH2 0x36DE DUP4 DUP6 DUP5 PUSH2 0x36A5 JUMP JUMPDEST PUSH2 0x36E7 DUP4 PUSH2 0x36B4 JUMP JUMPDEST DUP5 ADD SWAP1 POP SWAP4 SWAP3 POP POP POP JUMP JUMPDEST PUSH1 0x0 PUSH1 0x20 DUP3 ADD SWAP1 POP DUP2 DUP2 SUB PUSH1 0x0 DUP4 ADD MSTORE PUSH2 0x370D DUP2 DUP5 DUP7 PUSH2 0x36C5 JUMP JUMPDEST SWAP1 POP SWAP4 SWAP3 POP POP POP JUMP JUMPDEST PUSH1 0x0 PUSH1 0x40 MLOAD SWAP1 POP SWAP1 JUMP JUMPDEST PUSH1 0x0 DUP1 REVERT JUMPDEST PUSH1 0x0 DUP1 REVERT JUMPDEST PUSH1 0x0 PUSH32 0xFFFFFFFF00000000000000000000000000000000000000000000000000000000 DUP3 AND SWAP1 POP SWAP2 SWAP1 POP JUMP JUMPDEST PUSH2 0x375F DUP2 PUSH2 0x372A JUMP JUMPDEST DUP2 EQ PUSH2 0x376A JUMPI PUSH1 0x0 DUP1 REVERT JUMPDEST POP JUMP JUMPDEST PUSH1 0x0 DUP2 CALLDATALOAD SWAP1 POP PUSH2 0x377C DUP2 PUSH2 0x3756 JUMP JUMPDEST SWAP3 SWAP2 POP POP JUMP JUMPDEST PUSH1 0x0 PUSH1 0x20 DUP3 DUP5 SUB SLT ISZERO PUSH2 0x3798 JUMPI PUSH2 0x3797 PUSH2 0x3720 JUMP JUMPDEST JUMPDEST PUSH1 0x0 PUSH2 0x37A6 DUP5 DUP3 DUP6 ADD PUSH2 0x376D JUMP JUMPDEST SWAP2 POP POP SWAP3 SWAP2 POP POP JUMP JUMPDEST PUSH1 0x0 DUP2 ISZERO ISZERO SWAP1 POP SWAP2 SWAP1 POP JUMP JUMPDEST PUSH2 0x37C4 DUP2 PUSH2 0x37AF JUMP JUMPDEST DUP3 MSTORE POP POP JUMP JUMPDEST PUSH1 0x0 PUSH1 0x20 DUP3 ADD SWAP1 POP PUSH2 0x37DF PUSH1 0x0 DUP4 ADD DUP5 PUSH2 0x37BB JUMP JUMPDEST SWAP3 SWAP2 POP POP JUMP JUMPDEST PUSH1 0x0 DUP2 SWAP1 POP SWAP2 SWAP1 POP JUMP JUMPDEST PUSH2 0x37F8 DUP2 PUSH2 0x37E5 JUMP JUMPDEST DUP2 EQ PUSH2 0x3803 JUMPI PUSH1 0x0 DUP1 REVERT JUMPDEST POP JUMP JUMPDEST PUSH1 0x0 DUP2 CALLDATALOAD SWAP1 POP PUSH2 0x3815 DUP2 PUSH2 0x37EF JUMP JUMPDEST SWAP3 SWAP2 POP POP JUMP JUMPDEST PUSH1 0x0 DUP1 PUSH1 0x40 DUP4 DUP6 SUB SLT ISZERO PUSH2 0x3832 JUMPI PUSH2 0x3831 PUSH2 0x3720 JUMP JUMPDEST JUMPDEST PUSH1 0x0 PUSH2 0x3840 DUP6 DUP3 DUP7 ADD PUSH2 0x3806 JUMP JUMPDEST SWAP3 POP POP PUSH1 0x20 PUSH2 0x3851 DUP6 DUP3 DUP7 ADD PUSH2 0x3806 JUMP JUMPDEST SWAP2 POP POP SWAP3 POP SWAP3 SWAP1 POP JUMP JUMPDEST PUSH1 0x0 DUP2 MLOAD SWAP1 POP SWAP2 SWAP1 POP JUMP JUMPDEST PUSH1 0x0 JUMPDEST DUP4 DUP2 LT ISZERO PUSH2 0x3884 JUMPI DUP1 DUP3 ADD MLOAD DUP2 DUP5 ADD MSTORE PUSH1 0x20 DUP2 ADD SWAP1 POP PUSH2 0x3869 JUMP JUMPDEST PUSH1 0x0 DUP5 DUP5 ADD MSTORE POP POP POP POP JUMP JUMPDEST PUSH1 0x0 PUSH2 0x389B DUP3 PUSH2 0x385B JUMP JUMPDEST PUSH2 0x38A5 DUP2 DUP6 PUSH2 0x3648 JUMP JUMPDEST SWAP4 POP PUSH2 0x38B5 DUP2 DUP6 PUSH1 0x20 DUP7 ADD PUSH2 0x3866 JUMP JUMPDEST PUSH2 0x38BE DUP2 PUSH2 0x36B4 JUMP JUMPDEST DUP5 ADD SWAP2 POP POP SWAP3 SWAP2 POP POP JUMP JUMPDEST PUSH1 0x0 PUSH1 0x20 DUP3 ADD SWAP1 POP DUP2 DUP2 SUB PUSH1 0x0 DUP4 ADD MSTORE PUSH2 0x38E3 DUP2 DUP5 PUSH2 0x3890 JUMP JUMPDEST SWAP1 POP SWAP3 SWAP2 POP POP JUMP JUMPDEST PUSH1 0x0 DUP2 SWAP1 POP SWAP2 SWAP1 POP JUMP JUMPDEST PUSH2 0x38FE DUP2 PUSH2 0x38EB JUMP JUMPDEST DUP3 MSTORE POP POP JUMP JUMPDEST PUSH1 0x0 PUSH1 0x20 DUP3 ADD SWAP1 POP PUSH2 0x3919 PUSH1 0x0 DUP4 ADD DUP5 PUSH2 0x38F5 JUMP JUMPDEST SWAP3 SWAP2 POP POP JUMP JUMPDEST PUSH1 0x0 DUP1 REVERT JUMPDEST PUSH32 0x4E487B7100000000000000000000000000000000000000000000000000000000 PUSH1 0x0 MSTORE PUSH1 0x41 PUSH1 0x4 MSTORE PUSH1 0x24 PUSH1 0x0 REVERT JUMPDEST PUSH2 0x395C DUP3 PUSH2 0x36B4 JUMP JUMPDEST DUP2 ADD DUP2 DUP2 LT PUSH8 0xFFFFFFFFFFFFFFFF DUP3 GT OR ISZERO PUSH2 0x397B JUMPI PUSH2 0x397A PUSH2 0x3924 JUMP JUMPDEST JUMPDEST DUP1 PUSH1 0x40 MSTORE POP POP POP JUMP JUMPDEST PUSH1 0x0 PUSH2 0x398E PUSH2 0x3716 JUMP JUMPDEST SWAP1 POP PUSH2 0x399A DUP3 DUP3 PUSH2 0x3953 JUMP JUMPDEST SWAP2 SWAP1 POP JUMP JUMPDEST PUSH1 0x0 PUSH8 0xFFFFFFFFFFFFFFFF DUP3 GT ISZERO PUSH2 0x39BA JUMPI PUSH2 0x39B9 PUSH2 0x3924 JUMP JUMPDEST JUMPDEST PUSH1 0x20 DUP3 MUL SWAP1 POP PUSH1 0x20 DUP2 ADD SWAP1 POP SWAP2 SWAP1 POP JUMP JUMPDEST PUSH1 0x0 DUP1 REVERT JUMPDEST PUSH1 0x0 PUSH2 0x39E3 PUSH2 0x39DE DUP5 PUSH2 0x399F JUMP JUMPDEST PUSH2 0x3984 JUMP JUMPDEST SWAP1 POP DUP1 DUP4 DUP3 MSTORE PUSH1 0x20 DUP3 ADD SWAP1 POP PUSH1 0x20 DUP5 MUL DUP4 ADD DUP6 DUP2 GT ISZERO PUSH2 0x3A06 JUMPI PUSH2 0x3A05 PUSH2 0x39CB JUMP JUMPDEST JUMPDEST DUP4 JUMPDEST DUP2 DUP2 LT ISZERO PUSH2 0x3A2F JUMPI DUP1 PUSH2 0x3A1B DUP9 DUP3 PUSH2 0x3806 JUMP JUMPDEST DUP5 MSTORE PUSH1 0x20 DUP5 ADD SWAP4 POP POP PUSH1 0x20 DUP2 ADD SWAP1 POP PUSH2 0x3A08 JUMP JUMPDEST POP POP POP SWAP4 SWAP3 POP POP POP JUMP JUMPDEST PUSH1 0x0 DUP3 PUSH1 0x1F DUP4 ADD SLT PUSH2 0x3A4E JUMPI PUSH2 0x3A4D PUSH2 0x391F JUMP JUMPDEST JUMPDEST DUP2 CALLDATALOAD PUSH2 0x3A5E DUP5 DUP3 PUSH1 0x20 DUP7 ADD PUSH2 0x39D0 JUMP JUMPDEST SWAP2 POP POP SWAP3 SWAP2 POP POP JUMP JUMPDEST PUSH1 0x0 DUP1 PUSH1 0x40 DUP4 DUP6 SUB SLT ISZERO PUSH2 0x3A7E JUMPI PUSH2 0x3A7D PUSH2 0x3720 JUMP JUMPDEST JUMPDEST PUSH1 0x0 DUP4 ADD CALLDATALOAD PUSH8 0xFFFFFFFFFFFFFFFF DUP2 GT ISZERO PUSH2 0x3A9C JUMPI PUSH2 0x3A9B PUSH2 0x3725 JUMP JUMPDEST JUMPDEST PUSH2 0x3AA8 DUP6 DUP3 DUP7 ADD PUSH2 0x3A39 JUMP JUMPDEST SWAP3 POP POP PUSH1 0x20 DUP4 ADD CALLDATALOAD PUSH8 0xFFFFFFFFFFFFFFFF DUP2 GT ISZERO PUSH2 0x3AC9 JUMPI PUSH2 0x3AC8 PUSH2 0x3725 JUMP JUMPDEST JUMPDEST PUSH2 0x3AD5 DUP6 DUP3 DUP7 ADD PUSH2 0x3A39 JUMP JUMPDEST SWAP2 POP POP SWAP3 POP SWAP3 SWAP1 POP JUMP JUMPDEST PUSH1 0x0 DUP2 MLOAD SWAP1 POP SWAP2 SWAP1 POP JUMP JUMPDEST PUSH1 0x0 DUP3 DUP3 MSTORE PUSH1 0x20 DUP3 ADD SWAP1 POP SWAP3 SWAP2 POP POP JUMP JUMPDEST PUSH1 0x0 DUP2 SWAP1 POP PUSH1 0x20 DUP3 ADD SWAP1 POP SWAP2 SWAP1 POP JUMP JUMPDEST PUSH1 0x0 DUP3 DUP3 MSTORE PUSH1 0x20 DUP3 ADD SWAP1 POP SWAP3 SWAP2 POP POP JUMP JUMPDEST PUSH1 0x0 PUSH2 0x3B27 DUP3 PUSH2 0x385B JUMP JUMPDEST PUSH2 0x3B31 DUP2 DUP6 PUSH2 0x3B0B JUMP JUMPDEST SWAP4 POP PUSH2 0x3B41 DUP2 DUP6 PUSH1 0x20 DUP7 ADD PUSH2 0x3866 JUMP JUMPDEST PUSH2 0x3B4A DUP2 PUSH2 0x36B4 JUMP JUMPDEST DUP5 ADD SWAP2 POP POP SWAP3 SWAP2 POP POP JUMP JUMPDEST PUSH1 0x0 PUSH2 0x3B61 DUP4 DUP4 PUSH2 0x3B1C JUMP JUMPDEST SWAP1 POP SWAP3 SWAP2 POP POP JUMP JUMPDEST PUSH1 0x0 PUSH1 0x20 DUP3 ADD SWAP1 POP SWAP2 SWAP1 POP JUMP JUMPDEST PUSH1 0x0 PUSH2 0x3B81 DUP3 PUSH2 0x3ADF JUMP JUMPDEST PUSH2 0x3B8B DUP2 DUP6 PUSH2 0x3AEA JUMP JUMPDEST SWAP4 POP DUP4 PUSH1 0x20 DUP3 MUL DUP6 ADD PUSH2 0x3B9D DUP6 PUSH2 0x3AFB JUMP JUMPDEST DUP1 PUSH1 0x0 JUMPDEST DUP6 DUP2 LT ISZERO PUSH2 0x3BD9 JUMPI DUP5 DUP5 SUB DUP10 MSTORE DUP2 MLOAD PUSH2 0x3BBA DUP6 DUP3 PUSH2 0x3B55 JUMP JUMPDEST SWAP5 POP PUSH2 0x3BC5 DUP4 PUSH2 0x3B69 JUMP JUMPDEST SWAP3 POP PUSH1 0x20 DUP11 ADD SWAP10 POP POP PUSH1 0x1 DUP2 ADD SWAP1 POP PUSH2 0x3BA1 JUMP JUMPDEST POP DUP3 SWAP8 POP DUP8 SWAP6 POP POP POP POP POP POP SWAP3 SWAP2 POP POP JUMP JUMPDEST PUSH1 0x0 PUSH1 0x20 DUP3 ADD SWAP1 POP DUP2 DUP2 SUB PUSH1 0x0 DUP4 ADD MSTORE PUSH2 0x3C05 DUP2 DUP5 PUSH2 0x3B76 JUMP JUMPDEST SWAP1 POP SWAP3 SWAP2 POP POP JUMP JUMPDEST PUSH1 0x0 PUSH1 0x20 DUP3 DUP5 SUB SLT ISZERO PUSH2 0x3C23 JUMPI PUSH2 0x3C22 PUSH2 0x3720 JUMP JUMPDEST JUMPDEST PUSH1 0x0 PUSH2 0x3C31 DUP5 DUP3 DUP6 ADD PUSH2 0x3806 JUMP JUMPDEST SWAP2 POP POP SWAP3 SWAP2 POP POP JUMP JUMPDEST PUSH1 0x0 PUSH20 0xFFFFFFFFFFFFFFFFFFFFFFFFFFFFFFFFFFFFFFFF DUP3 AND SWAP1 POP SWAP2 SWAP1 POP JUMP JUMPDEST PUSH1 0x0 PUSH2 0x3C65 DUP3 PUSH2 0x3C3A JUMP JUMPDEST SWAP1 POP SWAP2 SWAP1 POP JUMP JUMPDEST PUSH2 0x3C75 DUP2 PUSH2 0x3C5A JUMP JUMPDEST DUP3 MSTORE POP POP JUMP JUMPDEST PUSH1 0x0 PUSH1 0x20 DUP3 ADD SWAP1 POP PUSH2 0x3C90 PUSH1 0x0 DUP4 ADD DUP5 PUSH2 0x3C6C JUMP JUMPDEST SWAP3 SWAP2 POP POP JUMP JUMPDEST PUSH2 0x3C9F DUP2 PUSH2 0x3C5A JUMP JUMPDEST DUP2 EQ PUSH2 0x3CAA JUMPI PUSH1 0x0 DUP1 REVERT JUMPDEST POP JUMP JUMPDEST PUSH1 0x0 DUP2 CALLDATALOAD SWAP1 POP PUSH2 0x3CBC DUP2 PUSH2 0x3C96 JUMP JUMPDEST SWAP3 SWAP2 POP POP JUMP JUMPDEST PUSH1 0x0 DUP1 PUSH1 0x40 DUP4 DUP6 SUB SLT ISZERO PUSH2 0x3CD9 JUMPI PUSH2 0x3CD8 PUSH2 0x3720 JUMP JUMPDEST JUMPDEST PUSH1 0x0 PUSH2 0x3CE7 DUP6 DUP3 DUP7 ADD PUSH2 0x3CAD JUMP JUMPDEST SWAP3 POP POP PUSH1 0x20 PUSH2 0x3CF8 DUP6 DUP3 DUP7 ADD PUSH2 0x3806 JUMP JUMPDEST SWAP2 POP POP SWAP3 POP SWAP3 SWAP1 POP JUMP JUMPDEST PUSH1 0x0 DUP2 MLOAD SWAP1 POP SWAP2 SWAP1 POP JUMP JUMPDEST PUSH1 0x0 DUP3 DUP3 MSTORE PUSH1 0x20 DUP3 ADD SWAP1 POP SWAP3 SWAP2 POP POP JUMP JUMPDEST PUSH1 0x0 DUP2 SWAP1 POP PUSH1 0x20 DUP3 ADD SWAP1 POP SWAP2 SWAP1 POP JUMP JUMPDEST PUSH2 0x3D37 DUP2 PUSH2 0x3C5A JUMP JUMPDEST DUP3 MSTORE POP POP JUMP JUMPDEST PUSH1 0x0 PUSH2 0x3D49 DUP4 DUP4 PUSH2 0x3D2E JUMP JUMPDEST PUSH1 0x20 DUP4 ADD SWAP1 POP SWAP3 SWAP2 POP POP JUMP JUMPDEST PUSH1 0x0 PUSH1 0x20 DUP3 ADD SWAP1 POP SWAP2 SWAP1 POP JUMP JUMPDEST PUSH1 0x0 PUSH2 0x3D6D DUP3 PUSH2 0x3D02 JUMP JUMPDEST PUSH2 0x3D77 DUP2 DUP6 PUSH2 0x3D0D JUMP JUMPDEST SWAP4 POP PUSH2 0x3D82 DUP4 PUSH2 0x3D1E JUMP JUMPDEST DUP1 PUSH1 0x0 JUMPDEST DUP4 DUP2 LT ISZERO PUSH2 0x3DB3 JUMPI DUP2 MLOAD PUSH2 0x3D9A DUP9 DUP3 PUSH2 0x3D3D JUMP JUMPDEST SWAP8 POP PUSH2 0x3DA5 DUP4 PUSH2 0x3D55 JUMP JUMPDEST SWAP3 POP POP PUSH1 0x1 DUP2 ADD SWAP1 POP PUSH2 0x3D86 JUMP JUMPDEST POP DUP6 SWAP4 POP POP POP POP SWAP3 SWAP2 POP POP JUMP JUMPDEST PUSH1 0x0 PUSH1 0x20 DUP3 ADD SWAP1 POP DUP2 DUP2 SUB PUSH1 0x0 DUP4 ADD MSTORE PUSH2 0x3DDA DUP2 DUP5 PUSH2 0x3D62 JUMP JUMPDEST SWAP1 POP SWAP3 SWAP2 POP POP JUMP JUMPDEST PUSH1 0x3 DUP2 LT PUSH2 0x3DEF JUMPI PUSH1 0x0 DUP1 REVERT JUMPDEST POP JUMP JUMPDEST PUSH1 0x0 DUP2 CALLDATALOAD SWAP1 POP PUSH2 0x3E01 DUP2 PUSH2 0x3DE2 JUMP JUMPDEST SWAP3 SWAP2 POP POP JUMP JUMPDEST PUSH1 0x0 PUSH1 0x20 DUP3 DUP5 SUB SLT ISZERO PUSH2 0x3E1D JUMPI PUSH2 0x3E1C PUSH2 0x3720 JUMP JUMPDEST JUMPDEST PUSH1 0x0 PUSH2 0x3E2B DUP5 DUP3 DUP6 ADD PUSH2 0x3DF2 JUMP JUMPDEST SWAP2 POP POP SWAP3 SWAP2 POP POP JUMP JUMPDEST PUSH1 0x0 DUP2 MLOAD SWAP1 POP SWAP2 SWAP1 POP JUMP JUMPDEST PUSH1 0x0 DUP3 DUP3 MSTORE PUSH1 0x20 DUP3 ADD SWAP1 POP SWAP3 SWAP2 POP POP JUMP JUMPDEST PUSH1 0x0 PUSH2 0x3E5B DUP3 PUSH2 0x3E34 JUMP JUMPDEST PUSH2 0x3E65 DUP2 DUP6 PUSH2 0x3E3F JUMP JUMPDEST SWAP4 POP PUSH2 0x3E75 DUP2 DUP6 PUSH1 0x20 DUP7 ADD PUSH2 0x3866 JUMP JUMPDEST PUSH2 0x3E7E DUP2 PUSH2 0x36B4 JUMP JUMPDEST DUP5 ADD SWAP2 POP POP SWAP3 SWAP2 POP POP JUMP JUMPDEST PUSH1 0x0 PUSH1 0x20 DUP3 ADD SWAP1 POP DUP2 DUP2 SUB PUSH1 0x0 DUP4 ADD MSTORE PUSH2 0x3EA3 DUP2 DUP5 PUSH2 0x3E50 JUMP JUMPDEST SWAP1 POP SWAP3 SWAP2 POP POP JUMP JUMPDEST PUSH2 0x3EB4 DUP2 PUSH2 0x37AF JUMP JUMPDEST DUP2 EQ PUSH2 0x3EBF JUMPI PUSH1 0x0 DUP1 REVERT JUMPDEST POP JUMP JUMPDEST PUSH1 0x0 DUP2 CALLDATALOAD SWAP1 POP PUSH2 0x3ED1 DUP2 PUSH2 0x3EAB JUMP JUMPDEST SWAP3 SWAP2 POP POP JUMP JUMPDEST PUSH1 0x0 DUP1 REVERT JUMPDEST PUSH1 0x0 PUSH8 0xFFFFFFFFFFFFFFFF DUP3 GT ISZERO PUSH2 0x3EF7 JUMPI PUSH2 0x3EF6 PUSH2 0x3924 JUMP JUMPDEST JUMPDEST PUSH2 0x3F00 DUP3 PUSH2 0x36B4 JUMP JUMPDEST SWAP1 POP PUSH1 0x20 DUP2 ADD SWAP1 POP SWAP2 SWAP1 POP JUMP JUMPDEST PUSH1 0x0 PUSH2 0x3F20 PUSH2 0x3F1B DUP5 PUSH2 0x3EDC JUMP JUMPDEST PUSH2 0x3984 JUMP JUMPDEST SWAP1 POP DUP3 DUP2 MSTORE PUSH1 0x20 DUP2 ADD DUP5 DUP5 DUP5 ADD GT ISZERO PUSH2 0x3F3C JUMPI PUSH2 0x3F3B PUSH2 0x3ED7 JUMP JUMPDEST JUMPDEST PUSH2 0x3F47 DUP5 DUP3 DUP6 PUSH2 0x36A5 JUMP JUMPDEST POP SWAP4 SWAP3 POP POP POP JUMP JUMPDEST PUSH1 0x0 DUP3 PUSH1 0x1F DUP4 ADD SLT PUSH2 0x3F64 JUMPI PUSH2 0x3F63 PUSH2 0x391F JUMP JUMPDEST JUMPDEST DUP2 CALLDATALOAD PUSH2 0x3F74 DUP5 DUP3 PUSH1 0x20 DUP7 ADD PUSH2 0x3F0D JUMP JUMPDEST SWAP2 POP POP SWAP3 SWAP2 POP POP JUMP JUMPDEST PUSH1 0x0 DUP1 PUSH1 0x0 DUP1 PUSH1 0x0 PUSH1 0xA0 DUP7 DUP9 SUB SLT ISZERO PUSH2 0x3F99 JUMPI PUSH2 0x3F98 PUSH2 0x3720 JUMP JUMPDEST JUMPDEST PUSH1 0x0 PUSH2 0x3FA7 DUP9 DUP3 DUP10 ADD PUSH2 0x3CAD JUMP JUMPDEST SWAP6 POP POP PUSH1 0x20 PUSH2 0x3FB8 DUP9 DUP3 DUP10 ADD PUSH2 0x3CAD JUMP JUMPDEST SWAP5 POP POP PUSH1 0x40 PUSH2 0x3FC9 DUP9 DUP3 DUP10 ADD PUSH2 0x3806 JUMP JUMPDEST SWAP4 POP POP PUSH1 0x60 PUSH2 0x3FDA DUP9 DUP3 DUP10 ADD PUSH2 0x3EC2 JUMP JUMPDEST SWAP3 POP POP PUSH1 0x80 DUP7 ADD CALLDATALOAD PUSH8 0xFFFFFFFFFFFFFFFF DUP2 GT ISZERO PUSH2 0x3FFB JUMPI PUSH2 0x3FFA PUSH2 0x3725 JUMP JUMPDEST JUMPDEST PUSH2 0x4007 DUP9 DUP3 DUP10 ADD PUSH2 0x3F4F JUMP JUMPDEST SWAP2 POP POP SWAP3 SWAP6 POP SWAP3 SWAP6 SWAP1 SWAP4 POP JUMP JUMPDEST PUSH1 0x0 DUP1 REVERT JUMPDEST PUSH1 0x0 DUP1 DUP4 PUSH1 0x1F DUP5 ADD SLT PUSH2 0x402F JUMPI PUSH2 0x402E PUSH2 0x391F JUMP JUMPDEST JUMPDEST DUP3 CALLDATALOAD SWAP1 POP PUSH8 0xFFFFFFFFFFFFFFFF DUP2 GT ISZERO PUSH2 0x404C JUMPI PUSH2 0x404B PUSH2 0x4014 JUMP JUMPDEST JUMPDEST PUSH1 0x20 DUP4 ADD SWAP2 POP DUP4 PUSH1 0x20 DUP3 MUL DUP4 ADD GT ISZERO PUSH2 0x4068 JUMPI PUSH2 0x4067 PUSH2 0x39CB JUMP JUMPDEST JUMPDEST SWAP3 POP SWAP3 SWAP1 POP JUMP JUMPDEST PUSH1 0x0 DUP1 PUSH1 0x20 DUP4 DUP6 SUB SLT ISZERO PUSH2 0x4086 JUMPI PUSH2 0x4085 PUSH2 0x3720 JUMP JUMPDEST JUMPDEST PUSH1 0x0 DUP4 ADD CALLDATALOAD PUSH8 0xFFFFFFFFFFFFFFFF DUP2 GT ISZERO PUSH2 0x40A4 JUMPI PUSH2 0x40A3 PUSH2 0x3725 JUMP JUMPDEST JUMPDEST PUSH2 0x40B0 DUP6 DUP3 DUP7 ADD PUSH2 0x4019 JUMP JUMPDEST SWAP3 POP SWAP3 POP POP SWAP3 POP SWAP3 SWAP1 POP JUMP JUMPDEST PUSH1 0x0 PUSH1 0x20 DUP3 DUP5 SUB SLT ISZERO PUSH2 0x40D2 JUMPI PUSH2 0x40D1 PUSH2 0x3720 JUMP JUMPDEST JUMPDEST PUSH1 0x0 PUSH2 0x40E0 DUP5 DUP3 DUP6 ADD PUSH2 0x3CAD JUMP JUMPDEST SWAP2 POP POP SWAP3 SWAP2 POP POP JUMP JUMPDEST PUSH1 0x0 PUSH8 0xFFFFFFFFFFFFFFFF DUP3 GT ISZERO PUSH2 0x4104 JUMPI PUSH2 0x4103 PUSH2 0x3924 JUMP JUMPDEST JUMPDEST PUSH1 0x20 DUP3 MUL SWAP1 POP PUSH1 0x20 DUP2 ADD SWAP1 POP SWAP2 SWAP1 POP JUMP JUMPDEST PUSH1 0x0 PUSH2 0x4128 PUSH2 0x4123 DUP5 PUSH2 0x40E9 JUMP JUMPDEST PUSH2 0x3984 JUMP JUMPDEST SWAP1 POP DUP1 DUP4 DUP3 MSTORE PUSH1 0x20 DUP3 ADD SWAP1 POP PUSH1 0x20 DUP5 MUL DUP4 ADD DUP6 DUP2 GT ISZERO PUSH2 0x414B JUMPI PUSH2 0x414A PUSH2 0x39CB JUMP JUMPDEST JUMPDEST DUP4 JUMPDEST DUP2 DUP2 LT ISZERO PUSH2 0x4174 JUMPI DUP1 PUSH2 0x4160 DUP9 DUP3 PUSH2 0x3CAD JUMP JUMPDEST DUP5 MSTORE PUSH1 0x20 DUP5 ADD SWAP4 POP POP PUSH1 0x20 DUP2 ADD SWAP1 POP PUSH2 0x414D JUMP JUMPDEST POP POP POP SWAP4 SWAP3 POP POP POP JUMP JUMPDEST PUSH1 0x0 DUP3 PUSH1 0x1F DUP4 ADD SLT PUSH2 0x4193 JUMPI PUSH2 0x4192 PUSH2 0x391F JUMP JUMPDEST JUMPDEST DUP2 CALLDATALOAD PUSH2 0x41A3 DUP5 DUP3 PUSH1 0x20 DUP7 ADD PUSH2 0x4115 JUMP JUMPDEST SWAP2 POP POP SWAP3 SWAP2 POP POP JUMP JUMPDEST PUSH1 0x0 PUSH8 0xFFFFFFFFFFFFFFFF DUP3 GT ISZERO PUSH2 0x41C7 JUMPI PUSH2 0x41C6 PUSH2 0x3924 JUMP JUMPDEST JUMPDEST PUSH1 0x20 DUP3 MUL SWAP1 POP PUSH1 0x20 DUP2 ADD SWAP1 POP SWAP2 SWAP1 POP JUMP JUMPDEST PUSH1 0x0 PUSH2 0x41EB PUSH2 0x41E6 DUP5 PUSH2 0x41AC JUMP JUMPDEST PUSH2 0x3984 JUMP JUMPDEST SWAP1 POP DUP1 DUP4 DUP3 MSTORE PUSH1 0x20 DUP3 ADD SWAP1 POP PUSH1 0x20 DUP5 MUL DUP4 ADD DUP6 DUP2 GT ISZERO PUSH2 0x420E JUMPI PUSH2 0x420D PUSH2 0x39CB JUMP JUMPDEST JUMPDEST DUP4 JUMPDEST DUP2 DUP2 LT ISZERO PUSH2 0x4237 JUMPI DUP1 PUSH2 0x4223 DUP9 DUP3 PUSH2 0x3EC2 JUMP JUMPDEST DUP5 MSTORE PUSH1 0x20 DUP5 ADD SWAP4 POP POP PUSH1 0x20 DUP2 ADD SWAP1 POP PUSH2 0x4210 JUMP JUMPDEST POP POP POP SWAP4 SWAP3 POP POP POP JUMP JUMPDEST PUSH1 0x0 DUP3 PUSH1 0x1F DUP4 ADD SLT PUSH2 0x4256 JUMPI PUSH2 0x4255 PUSH2 0x391F JUMP JUMPDEST JUMPDEST DUP2 CALLDATALOAD PUSH2 0x4266 DUP5 DUP3 PUSH1 0x20 DUP7 ADD PUSH2 0x41D8 JUMP JUMPDEST SWAP2 POP POP SWAP3 SWAP2 POP POP JUMP JUMPDEST PUSH1 0x0 PUSH8 0xFFFFFFFFFFFFFFFF DUP3 GT ISZERO PUSH2 0x428A JUMPI PUSH2 0x4289 PUSH2 0x3924 JUMP JUMPDEST JUMPDEST PUSH1 0x20 DUP3 MUL SWAP1 POP PUSH1 0x20 DUP2 ADD SWAP1 POP SWAP2 SWAP1 POP JUMP JUMPDEST PUSH1 0x0 PUSH2 0x42AE PUSH2 0x42A9 DUP5 PUSH2 0x426F JUMP JUMPDEST PUSH2 0x3984 JUMP JUMPDEST SWAP1 POP DUP1 DUP4 DUP3 MSTORE PUSH1 0x20 DUP3 ADD SWAP1 POP PUSH1 0x20 DUP5 MUL DUP4 ADD DUP6 DUP2 GT ISZERO PUSH2 0x42D1 JUMPI PUSH2 0x42D0 PUSH2 0x39CB JUMP JUMPDEST JUMPDEST DUP4 JUMPDEST DUP2 DUP2 LT ISZERO PUSH2 0x4318 JUMPI DUP1 CALLDATALOAD PUSH8 0xFFFFFFFFFFFFFFFF DUP2 GT ISZERO PUSH2 0x42F6 JUMPI PUSH2 0x42F5 PUSH2 0x391F JUMP JUMPDEST JUMPDEST DUP1 DUP7 ADD PUSH2 0x4303 DUP10 DUP3 PUSH2 0x3F4F JUMP JUMPDEST DUP6 MSTORE PUSH1 0x20 DUP6 ADD SWAP5 POP POP POP PUSH1 0x20 DUP2 ADD SWAP1 POP PUSH2 0x42D3 JUMP JUMPDEST POP POP POP SWAP4 SWAP3 POP POP POP JUMP JUMPDEST PUSH1 0x0 DUP3 PUSH1 0x1F DUP4 ADD SLT PUSH2 0x4337 JUMPI PUSH2 0x4336 PUSH2 0x391F JUMP JUMPDEST JUMPDEST DUP2 CALLDATALOAD PUSH2 0x4347 DUP5 DUP3 PUSH1 0x20 DUP7 ADD PUSH2 0x429B JUMP JUMPDEST SWAP2 POP POP SWAP3 SWAP2 POP POP JUMP JUMPDEST PUSH1 0x0 DUP1 PUSH1 0x0 DUP1 PUSH1 0x0 PUSH1 0xA0 DUP7 DUP9 SUB SLT ISZERO PUSH2 0x436C JUMPI PUSH2 0x436B PUSH2 0x3720 JUMP JUMPDEST JUMPDEST PUSH1 0x0 DUP7 ADD CALLDATALOAD PUSH8 0xFFFFFFFFFFFFFFFF DUP2 GT ISZERO PUSH2 0x438A JUMPI PUSH2 0x4389 PUSH2 0x3725 JUMP JUMPDEST JUMPDEST PUSH2 0x4396 DUP9 DUP3 DUP10 ADD PUSH2 0x417E JUMP JUMPDEST SWAP6 POP POP PUSH1 0x20 DUP7 ADD CALLDATALOAD PUSH8 0xFFFFFFFFFFFFFFFF DUP2 GT ISZERO PUSH2 0x43B7 JUMPI PUSH2 0x43B6 PUSH2 0x3725 JUMP JUMPDEST JUMPDEST PUSH2 0x43C3 DUP9 DUP3 DUP10 ADD PUSH2 0x417E JUMP JUMPDEST SWAP5 POP POP PUSH1 0x40 DUP7 ADD CALLDATALOAD PUSH8 0xFFFFFFFFFFFFFFFF DUP2 GT ISZERO PUSH2 0x43E4 JUMPI PUSH2 0x43E3 PUSH2 0x3725 JUMP JUMPDEST JUMPDEST PUSH2 0x43F0 DUP9 DUP3 DUP10 ADD PUSH2 0x3A39 JUMP JUMPDEST SWAP4 POP POP PUSH1 0x60 DUP7 ADD CALLDATALOAD PUSH8 0xFFFFFFFFFFFFFFFF DUP2 GT ISZERO PUSH2 0x4411 JUMPI PUSH2 0x4410 PUSH2 0x3725 JUMP JUMPDEST JUMPDEST PUSH2 0x441D DUP9 DUP3 DUP10 ADD PUSH2 0x4241 JUMP JUMPDEST SWAP3 POP POP PUSH1 0x80 DUP7 ADD CALLDATALOAD PUSH8 0xFFFFFFFFFFFFFFFF DUP2 GT ISZERO PUSH2 0x443E JUMPI PUSH2 0x443D PUSH2 0x3725 JUMP JUMPDEST JUMPDEST PUSH2 0x444A DUP9 DUP3 DUP10 ADD PUSH2 0x4322 JUMP JUMPDEST SWAP2 POP POP SWAP3 SWAP6 POP SWAP3 SWAP6 SWAP1 SWAP4 POP JUMP JUMPDEST PUSH1 0x0 DUP1 PUSH1 0x40 DUP4 DUP6 SUB SLT ISZERO PUSH2 0x446E JUMPI PUSH2 0x446D PUSH2 0x3720 JUMP JUMPDEST JUMPDEST PUSH1 0x0 PUSH2 0x447C DUP6 DUP3 DUP7 ADD PUSH2 0x3806 JUMP JUMPDEST SWAP3 POP POP PUSH1 0x20 DUP4 ADD CALLDATALOAD PUSH8 0xFFFFFFFFFFFFFFFF DUP2 GT ISZERO PUSH2 0x449D JUMPI PUSH2 0x449C PUSH2 0x3725 JUMP JUMPDEST JUMPDEST PUSH2 0x44A9 DUP6 DUP3 DUP7 ADD PUSH2 0x3F4F JUMP JUMPDEST SWAP2 POP POP SWAP3 POP SWAP3 SWAP1 POP JUMP JUMPDEST PUSH1 0x0 DUP1 PUSH1 0x0 PUSH1 0x60 DUP5 DUP7 SUB SLT ISZERO PUSH2 0x44CC JUMPI PUSH2 0x44CB PUSH2 0x3720 JUMP JUMPDEST JUMPDEST PUSH1 0x0 PUSH2 0x44DA DUP7 DUP3 DUP8 ADD PUSH2 0x3CAD JUMP JUMPDEST SWAP4 POP POP PUSH1 0x20 PUSH2 0x44EB DUP7 DUP3 DUP8 ADD PUSH2 0x3806 JUMP JUMPDEST SWAP3 POP POP PUSH1 0x40 DUP5 ADD CALLDATALOAD PUSH8 0xFFFFFFFFFFFFFFFF DUP2 GT ISZERO PUSH2 0x450C JUMPI PUSH2 0x450B PUSH2 0x3725 JUMP JUMPDEST JUMPDEST PUSH2 0x4518 DUP7 DUP3 DUP8 ADD PUSH2 0x3F4F JUMP JUMPDEST SWAP2 POP POP SWAP3 POP SWAP3 POP SWAP3 JUMP JUMPDEST PUSH1 0x0 DUP1 PUSH1 0x40 DUP4 DUP6 SUB SLT ISZERO PUSH2 0x4539 JUMPI PUSH2 0x4538 PUSH2 0x3720 JUMP JUMPDEST JUMPDEST PUSH1 0x0 PUSH2 0x4547 DUP6 DUP3 DUP7 ADD PUSH2 0x3CAD JUMP JUMPDEST SWAP3 POP POP PUSH1 0x20 PUSH2 0x4558 DUP6 DUP3 DUP7 ADD PUSH2 0x3DF2 JUMP JUMPDEST SWAP2 POP POP SWAP3 POP SWAP3 SWAP1 POP JUMP JUMPDEST PUSH1 0x0 DUP1 PUSH1 0x40 DUP4 DUP6 SUB SLT ISZERO PUSH2 0x4579 JUMPI PUSH2 0x4578 PUSH2 0x3720 JUMP JUMPDEST JUMPDEST PUSH1 0x0 DUP4 ADD CALLDATALOAD PUSH8 0xFFFFFFFFFFFFFFFF DUP2 GT ISZERO PUSH2 0x4597 JUMPI PUSH2 0x4596 PUSH2 0x3725 JUMP JUMPDEST JUMPDEST PUSH2 0x45A3 DUP6 DUP3 DUP7 ADD PUSH2 0x3A39 JUMP JUMPDEST SWAP3 POP POP PUSH1 0x20 DUP4 ADD CALLDATALOAD PUSH8 0xFFFFFFFFFFFFFFFF DUP2 GT ISZERO PUSH2 0x45C4 JUMPI PUSH2 0x45C3 PUSH2 0x3725 JUMP JUMPDEST JUMPDEST PUSH2 0x45D0 DUP6 DUP3 DUP7 ADD PUSH2 0x4322 JUMP JUMPDEST SWAP2 POP POP SWAP3 POP SWAP3 SWAP1 POP JUMP JUMPDEST PUSH1 0x0 DUP2 MLOAD SWAP1 POP SWAP2 SWAP1 POP JUMP JUMPDEST PUSH1 0x0 DUP3 DUP3 MSTORE PUSH1 0x20 DUP3 ADD SWAP1 POP SWAP3 SWAP2 POP POP JUMP JUMPDEST PUSH1 0x0 DUP2 SWAP1 POP PUSH1 0x20 DUP3 ADD SWAP1 POP SWAP2 SWAP1 POP JUMP JUMPDEST PUSH2 0x460F DUP2 PUSH2 0x37E5 JUMP JUMPDEST DUP3 MSTORE POP POP JUMP JUMPDEST PUSH1 0x0 PUSH2 0x4621 DUP4 DUP4 PUSH2 0x4606 JUMP JUMPDEST PUSH1 0x20 DUP4 ADD SWAP1 POP SWAP3 SWAP2 POP POP JUMP JUMPDEST PUSH1 0x0 PUSH1 0x20 DUP3 ADD SWAP1 POP SWAP2 SWAP1 POP JUMP JUMPDEST PUSH1 0x0 PUSH2 0x4645 DUP3 PUSH2 0x45DA JUMP JUMPDEST PUSH2 0x464F DUP2 DUP6 PUSH2 0x45E5 JUMP JUMPDEST SWAP4 POP PUSH2 0x465A DUP4 PUSH2 0x45F6 JUMP JUMPDEST DUP1 PUSH1 0x0 JUMPDEST DUP4 DUP2 LT ISZERO PUSH2 0x468B JUMPI DUP2 MLOAD PUSH2 0x4672 DUP9 DUP3 PUSH2 0x4615 JUMP JUMPDEST SWAP8 POP PUSH2 0x467D DUP4 PUSH2 0x462D JUMP JUMPDEST SWAP3 POP POP PUSH1 0x1 DUP2 ADD SWAP1 POP PUSH2 0x465E JUMP JUMPDEST POP DUP6 SWAP4 POP POP POP POP SWAP3 SWAP2 POP POP JUMP JUMPDEST PUSH1 0x0 PUSH1 0x20 DUP3 ADD SWAP1 POP DUP2 DUP2 SUB PUSH1 0x0 DUP4 ADD MSTORE PUSH2 0x46B2 DUP2 DUP5 PUSH2 0x463A JUMP JUMPDEST SWAP1 POP SWAP3 SWAP2 POP POP JUMP JUMPDEST PUSH1 0x0 DUP1 PUSH1 0x0 PUSH1 0x60 DUP5 DUP7 SUB SLT ISZERO PUSH2 0x46D3 JUMPI PUSH2 0x46D2 PUSH2 0x3720 JUMP JUMPDEST JUMPDEST PUSH1 0x0 DUP5 ADD CALLDATALOAD PUSH8 0xFFFFFFFFFFFFFFFF DUP2 GT ISZERO PUSH2 0x46F1 JUMPI PUSH2 0x46F0 PUSH2 0x3725 JUMP JUMPDEST JUMPDEST PUSH2 0x46FD DUP7 DUP3 DUP8 ADD PUSH2 0x3A39 JUMP JUMPDEST SWAP4 POP POP PUSH1 0x20 DUP5 ADD CALLDATALOAD PUSH8 0xFFFFFFFFFFFFFFFF DUP2 GT ISZERO PUSH2 0x471E JUMPI PUSH2 0x471D PUSH2 0x3725 JUMP JUMPDEST JUMPDEST PUSH2 0x472A DUP7 DUP3 DUP8 ADD PUSH2 0x3A39 JUMP JUMPDEST SWAP3 POP POP PUSH1 0x40 DUP5 ADD CALLDATALOAD PUSH8 0xFFFFFFFFFFFFFFFF DUP2 GT ISZERO PUSH2 0x474B JUMPI PUSH2 0x474A PUSH2 0x3725 JUMP JUMPDEST JUMPDEST PUSH2 0x4757 DUP7 DUP3 DUP8 ADD PUSH2 0x4322 JUMP JUMPDEST SWAP2 POP POP SWAP3 POP SWAP3 POP SWAP3 JUMP JUMPDEST PUSH2 0x476A DUP2 PUSH2 0x38EB JUMP JUMPDEST DUP2 EQ PUSH2 0x4775 JUMPI PUSH1 0x0 DUP1 REVERT JUMPDEST POP JUMP JUMPDEST PUSH1 0x0 DUP2 CALLDATALOAD SWAP1 POP PUSH2 0x4787 DUP2 PUSH2 0x4761 JUMP JUMPDEST SWAP3 SWAP2 POP POP JUMP JUMPDEST PUSH1 0x0 PUSH8 0xFFFFFFFFFFFFFFFF DUP3 GT ISZERO PUSH2 0x47A8 JUMPI PUSH2 0x47A7 PUSH2 0x3924 JUMP JUMPDEST JUMPDEST PUSH2 0x47B1 DUP3 PUSH2 0x36B4 JUMP JUMPDEST SWAP1 POP PUSH1 0x20 DUP2 ADD SWAP1 POP SWAP2 SWAP1 POP JUMP JUMPDEST PUSH1 0x0 PUSH2 0x47D1 PUSH2 0x47CC DUP5 PUSH2 0x478D JUMP JUMPDEST PUSH2 0x3984 JUMP JUMPDEST SWAP1 POP DUP3 DUP2 MSTORE PUSH1 0x20 DUP2 ADD DUP5 DUP5 DUP5 ADD GT ISZERO PUSH2 0x47ED JUMPI PUSH2 0x47EC PUSH2 0x3ED7 JUMP JUMPDEST JUMPDEST PUSH2 0x47F8 DUP5 DUP3 DUP6 PUSH2 0x36A5 JUMP JUMPDEST POP SWAP4 SWAP3 POP POP POP JUMP JUMPDEST PUSH1 0x0 DUP3 PUSH1 0x1F DUP4 ADD SLT PUSH2 0x4815 JUMPI PUSH2 0x4814 PUSH2 0x391F JUMP JUMPDEST JUMPDEST DUP2 CALLDATALOAD PUSH2 0x4825 DUP5 DUP3 PUSH1 0x20 DUP7 ADD PUSH2 0x47BE JUMP JUMPDEST SWAP2 POP POP SWAP3 SWAP2 POP POP JUMP JUMPDEST PUSH1 0x0 DUP1 PUSH1 0x0 PUSH1 0x60 DUP5 DUP7 SUB SLT ISZERO PUSH2 0x4847 JUMPI PUSH2 0x4846 PUSH2 0x3720 JUMP JUMPDEST JUMPDEST PUSH1 0x0 PUSH2 0x4855 DUP7 DUP3 DUP8 ADD PUSH2 0x4778 JUMP JUMPDEST SWAP4 POP POP PUSH1 0x20 PUSH2 0x4866 DUP7 DUP3 DUP8 ADD PUSH2 0x3DF2 JUMP JUMPDEST SWAP3 POP POP PUSH1 0x40 DUP5 ADD CALLDATALOAD PUSH8 0xFFFFFFFFFFFFFFFF DUP2 GT ISZERO PUSH2 0x4887 JUMPI PUSH2 0x4886 PUSH2 0x3725 JUMP JUMPDEST JUMPDEST PUSH2 0x4893 DUP7 DUP3 DUP8 ADD PUSH2 0x4800 JUMP JUMPDEST SWAP2 POP POP SWAP3 POP SWAP3 POP SWAP3 JUMP JUMPDEST PUSH1 0x0 DUP1 PUSH1 0x0 PUSH1 0x60 DUP5 DUP7 SUB SLT ISZERO PUSH2 0x48B6 JUMPI PUSH2 0x48B5 PUSH2 0x3720 JUMP JUMPDEST JUMPDEST PUSH1 0x0 PUSH2 0x48C4 DUP7 DUP3 DUP8 ADD PUSH2 0x3806 JUMP JUMPDEST SWAP4 POP POP PUSH1 0x20 PUSH2 0x48D5 DUP7 DUP3 DUP8 ADD PUSH2 0x3806 JUMP JUMPDEST SWAP3 POP POP PUSH1 0x40 DUP5 ADD CALLDATALOAD PUSH8 0xFFFFFFFFFFFFFFFF DUP2 GT ISZERO PUSH2 0x48F6 JUMPI PUSH2 0x48F5 PUSH2 0x3725 JUMP JUMPDEST JUMPDEST PUSH2 0x4902 DUP7 DUP3 DUP8 ADD PUSH2 0x3F4F JUMP JUMPDEST SWAP2 POP POP SWAP3 POP SWAP3 POP SWAP3 JUMP JUMPDEST PUSH1 0x0 DUP1 PUSH1 0x0 DUP1 PUSH1 0x80 DUP6 DUP8 SUB SLT ISZERO PUSH2 0x4926 JUMPI PUSH2 0x4925 PUSH2 0x3720 JUMP JUMPDEST JUMPDEST PUSH1 0x0 PUSH2 0x4934 DUP8 DUP3 DUP9 ADD PUSH2 0x3CAD JUMP JUMPDEST SWAP5 POP POP PUSH1 0x20 PUSH2 0x4945 DUP8 DUP3 DUP9 ADD PUSH2 0x3806 JUMP JUMPDEST SWAP4 POP POP PUSH1 0x40 PUSH2 0x4956 DUP8 DUP3 DUP9 ADD PUSH2 0x3EC2 JUMP JUMPDEST SWAP3 POP POP PUSH1 0x60 DUP6 ADD CALLDATALOAD PUSH8 0xFFFFFFFFFFFFFFFF DUP2 GT ISZERO PUSH2 0x4977 JUMPI PUSH2 0x4976 PUSH2 0x3725 JUMP JUMPDEST JUMPDEST PUSH2 0x4983 DUP8 DUP3 DUP9 ADD PUSH2 0x3F4F JUMP JUMPDEST SWAP2 POP POP SWAP3 SWAP6 SWAP2 SWAP5 POP SWAP3 POP JUMP JUMPDEST PUSH1 0x0 PUSH1 0x20 DUP3 DUP5 SUB SLT ISZERO PUSH2 0x49A5 JUMPI PUSH2 0x49A4 PUSH2 0x3720 JUMP JUMPDEST JUMPDEST PUSH1 0x0 DUP3 ADD CALLDATALOAD PUSH8 0xFFFFFFFFFFFFFFFF DUP2 GT ISZERO PUSH2 0x49C3 JUMPI PUSH2 0x49C2 PUSH2 0x3725 JUMP JUMPDEST JUMPDEST PUSH2 0x49CF DUP5 DUP3 DUP6 ADD PUSH2 0x3A39 JUMP JUMPDEST SWAP2 POP POP SWAP3 SWAP2 POP POP JUMP JUMPDEST PUSH1 0x0 PUSH1 0x40 DUP3 ADD SWAP1 POP PUSH2 0x49ED PUSH1 0x0 DUP4 ADD DUP6 PUSH2 0x3C6C JUMP JUMPDEST PUSH2 0x49FA PUSH1 0x20 DUP4 ADD DUP5 PUSH2 0x38F5 JUMP JUMPDEST SWAP4 SWAP3 POP POP POP JUMP JUMPDEST PUSH2 0x4A0A DUP2 PUSH2 0x372A JUMP JUMPDEST DUP3 MSTORE POP POP JUMP JUMPDEST PUSH1 0x0 PUSH1 0x20 DUP3 ADD SWAP1 POP PUSH2 0x4A25 PUSH1 0x0 DUP4 ADD DUP5 PUSH2 0x4A01 JUMP JUMPDEST SWAP3 SWAP2 POP POP JUMP JUMPDEST PUSH1 0x0 DUP2 SWAP1 POP SWAP3 SWAP2 POP POP JUMP JUMPDEST PUSH1 0x0 PUSH2 0x4A42 DUP4 DUP6 PUSH2 0x4A2B JUMP JUMPDEST SWAP4 POP PUSH2 0x4A4F DUP4 DUP6 DUP5 PUSH2 0x36A5 JUMP JUMPDEST DUP3 DUP5 ADD SWAP1 POP SWAP4 SWAP3 POP POP POP JUMP JUMPDEST PUSH1 0x0 DUP2 PUSH1 0x60 SHL SWAP1 POP SWAP2 SWAP1 POP JUMP JUMPDEST PUSH1 0x0 PUSH2 0x4A73 DUP3 PUSH2 0x4A5B JUMP JUMPDEST SWAP1 POP SWAP2 SWAP1 POP JUMP JUMPDEST PUSH1 0x0 PUSH2 0x4A85 DUP3 PUSH2 0x4A68 JUMP JUMPDEST SWAP1 POP SWAP2 SWAP1 POP JUMP JUMPDEST PUSH2 0x4A9D PUSH2 0x4A98 DUP3 PUSH2 0x3C5A JUMP JUMPDEST PUSH2 0x4A7A JUMP JUMPDEST DUP3 MSTORE POP POP JUMP JUMPDEST PUSH1 0x0 DUP2 SWAP1 POP SWAP2 SWAP1 POP JUMP JUMPDEST PUSH2 0x4ABE PUSH2 0x4AB9 DUP3 PUSH2 0x38EB JUMP JUMPDEST PUSH2 0x4AA3 JUMP JUMPDEST DUP3 MSTORE POP POP JUMP JUMPDEST PUSH1 0x0 PUSH2 0x4AD1 DUP3 DUP7 DUP9 PUSH2 0x4A36 JUMP JUMPDEST SWAP2 POP PUSH2 0x4ADD DUP3 DUP6 PUSH2 0x4A8C JUMP JUMPDEST PUSH1 0x14 DUP3 ADD SWAP2 POP PUSH2 0x4AED DUP3 DUP5 PUSH2 0x4AAD JUMP JUMPDEST PUSH1 0x20 DUP3 ADD SWAP2 POP DUP2 SWAP1 POP SWAP6 SWAP5 POP POP POP POP POP JUMP JUMPDEST PUSH1 0x0 PUSH2 0x4B0A DUP3 PUSH2 0x385B JUMP JUMPDEST PUSH2 0x4B14 DUP2 DUP6 PUSH2 0x4A2B JUMP JUMPDEST SWAP4 POP PUSH2 0x4B24 DUP2 DUP6 PUSH1 0x20 DUP7 ADD PUSH2 0x3866 JUMP JUMPDEST DUP1 DUP5 ADD SWAP2 POP POP SWAP3 SWAP2 POP POP JUMP JUMPDEST PUSH1 0x0 PUSH2 0x4B3C DUP3 DUP5 PUSH2 0x4AFF JUMP JUMPDEST SWAP2 POP DUP2 SWAP1 POP SWAP3 SWAP2 POP POP JUMP JUMPDEST PUSH32 0x4E487B7100000000000000000000000000000000000000000000000000000000 PUSH1 0x0 MSTORE PUSH1 0x32 PUSH1 0x4 MSTORE PUSH1 0x24 PUSH1 0x0 REVERT JUMPDEST PUSH2 0x4B7F DUP2 PUSH2 0x37E5 JUMP JUMPDEST DUP3 MSTORE POP POP JUMP JUMPDEST PUSH1 0x0 PUSH1 0x20 DUP3 ADD SWAP1 POP PUSH2 0x4B9A PUSH1 0x0 DUP4 ADD DUP5 PUSH2 0x4B76 JUMP JUMPDEST SWAP3 SWAP2 POP POP JUMP JUMPDEST PUSH32 0x4E487B7100000000000000000000000000000000000000000000000000000000 PUSH1 0x0 MSTORE PUSH1 0x22 PUSH1 0x4 MSTORE PUSH1 0x24 PUSH1 0x0 REVERT JUMPDEST PUSH1 0x0 PUSH1 0x2 DUP3 DIV SWAP1 POP PUSH1 0x1 DUP3 AND DUP1 PUSH2 0x4BE7 JUMPI PUSH1 0x7F DUP3 AND SWAP2 POP JUMPDEST PUSH1 0x20 DUP3 LT DUP2 SUB PUSH2 0x4BFA JUMPI PUSH2 0x4BF9 PUSH2 0x4BA0 JUMP JUMPDEST JUMPDEST POP SWAP2 SWAP1 POP JUMP JUMPDEST PUSH1 0x0 PUSH1 0x40 DUP3 ADD SWAP1 POP PUSH2 0x4C15 PUSH1 0x0 DUP4 ADD DUP6 PUSH2 0x4B76 JUMP JUMPDEST PUSH2 0x4C22 PUSH1 0x20 DUP4 ADD DUP5 PUSH2 0x3C6C JUMP JUMPDEST SWAP4 SWAP3 POP POP POP JUMP JUMPDEST PUSH1 0x0 DUP1 REVERT JUMPDEST PUSH1 0x0 DUP1 REVERT JUMPDEST PUSH1 0x0 DUP1 REVERT JUMPDEST PUSH1 0x0 DUP1 DUP4 CALLDATALOAD PUSH1 0x1 PUSH1 0x20 SUB DUP5 CALLDATASIZE SUB SUB DUP2 SLT PUSH2 0x4C55 JUMPI PUSH2 0x4C54 PUSH2 0x4C29 JUMP JUMPDEST JUMPDEST DUP1 DUP5 ADD SWAP3 POP DUP3 CALLDATALOAD SWAP2 POP PUSH8 0xFFFFFFFFFFFFFFFF DUP3 GT ISZERO PUSH2 0x4C77 JUMPI PUSH2 0x4C76 PUSH2 0x4C2E JUMP JUMPDEST JUMPDEST PUSH1 0x20 DUP4 ADD SWAP3 POP PUSH1 0x1 DUP3 MUL CALLDATASIZE SUB DUP4 SGT ISZERO PUSH2 0x4C93 JUMPI PUSH2 0x4C92 PUSH2 0x4C33 JUMP JUMPDEST JUMPDEST POP SWAP3 POP SWAP3 SWAP1 POP JUMP JUMPDEST PUSH1 0x0 PUSH2 0x4CA8 DUP3 DUP5 DUP7 PUSH2 0x4A36 JUMP JUMPDEST SWAP2 POP DUP2 SWAP1 POP SWAP4 SWAP3 POP POP POP JUMP JUMPDEST PUSH1 0x0 PUSH1 0x60 DUP3 ADD SWAP1 POP PUSH2 0x4CC9 PUSH1 0x0 DUP4 ADD DUP7 PUSH2 0x3C6C JUMP JUMPDEST PUSH2 0x4CD6 PUSH1 0x20 DUP4 ADD DUP6 PUSH2 0x4B76 JUMP JUMPDEST PUSH2 0x4CE3 PUSH1 0x40 DUP4 ADD DUP5 PUSH2 0x3C6C JUMP JUMPDEST SWAP5 SWAP4 POP POP POP POP JUMP JUMPDEST PUSH1 0x0 PUSH1 0x40 DUP3 ADD SWAP1 POP PUSH2 0x4D00 PUSH1 0x0 DUP4 ADD DUP6 PUSH2 0x3C6C JUMP JUMPDEST PUSH2 0x4D0D PUSH1 0x20 DUP4 ADD DUP5 PUSH2 0x4B76 JUMP JUMPDEST SWAP4 SWAP3 POP POP POP JUMP JUMPDEST PUSH1 0x0 PUSH1 0x80 DUP3 ADD SWAP1 POP PUSH2 0x4D29 PUSH1 0x0 DUP4 ADD DUP8 PUSH2 0x3C6C JUMP JUMPDEST PUSH2 0x4D36 PUSH1 0x20 DUP4 ADD DUP7 PUSH2 0x4B76 JUMP JUMPDEST PUSH2 0x4D43 PUSH1 0x40 DUP4 ADD DUP6 PUSH2 0x37BB JUMP JUMPDEST DUP2 DUP2 SUB PUSH1 0x60 DUP4 ADD MSTORE PUSH2 0x4D55 DUP2 DUP5 PUSH2 0x3890 JUMP JUMPDEST SWAP1 POP SWAP6 SWAP5 POP POP POP POP POP JUMP JUMPDEST PUSH1 0x0 DUP2 SWAP1 POP SWAP3 SWAP2 POP POP JUMP JUMPDEST PUSH1 0x0 PUSH2 0x4D76 DUP3 PUSH2 0x3E34 JUMP JUMPDEST PUSH2 0x4D80 DUP2 DUP6 PUSH2 0x4D60 JUMP JUMPDEST SWAP4 POP PUSH2 0x4D90 DUP2 DUP6 PUSH1 0x20 DUP7 ADD PUSH2 0x3866 JUMP JUMPDEST DUP1 DUP5 ADD SWAP2 POP POP SWAP3 SWAP2 POP POP JUMP JUMPDEST PUSH1 0x0 PUSH2 0x4DA8 DUP3 DUP5 PUSH2 0x4D6B JUMP JUMPDEST SWAP2 POP DUP2 SWAP1 POP SWAP3 SWAP2 POP POP JUMP JUMPDEST PUSH32 0x496E76616C69642073656372657420636F646500000000000000000000000000 PUSH1 0x0 DUP3 ADD MSTORE POP JUMP JUMPDEST PUSH1 0x0 PUSH2 0x4DE9 PUSH1 0x13 DUP4 PUSH2 0x3E3F JUMP JUMPDEST SWAP2 POP PUSH2 0x4DF4 DUP3 PUSH2 0x4DB3 JUMP JUMPDEST PUSH1 0x20 DUP3 ADD SWAP1 POP SWAP2 SWAP1 POP JUMP JUMPDEST PUSH1 0x0 PUSH1 0x20 DUP3 ADD SWAP1 POP DUP2 DUP2 SUB PUSH1 0x0 DUP4 ADD MSTORE PUSH2 0x4E18 DUP2 PUSH2 0x4DDC JUMP JUMPDEST SWAP1 POP SWAP2 SWAP1 POP JUMP JUMPDEST PUSH32 0x4E487B7100000000000000000000000000000000000000000000000000000000 PUSH1 0x0 MSTORE PUSH1 0x21 PUSH1 0x4 MSTORE PUSH1 0x24 PUSH1 0x0 REVERT JUMPDEST PUSH32 0x4E6F742074686520686967686573742073636F72650000000000000000000000 PUSH1 0x0 DUP3 ADD MSTORE POP JUMP JUMPDEST PUSH1 0x0 PUSH2 0x4E84 PUSH1 0x15 DUP4 PUSH2 0x3E3F JUMP JUMPDEST SWAP2 POP PUSH2 0x4E8F DUP3 PUSH2 0x4E4E JUMP JUMPDEST PUSH1 0x20 DUP3 ADD SWAP1 POP SWAP2 SWAP1 POP JUMP JUMPDEST PUSH1 0x0 PUSH1 0x20 DUP3 ADD SWAP1 POP DUP2 DUP2 SUB PUSH1 0x0 DUP4 ADD MSTORE PUSH2 0x4EB3 DUP2 PUSH2 0x4E77 JUMP JUMPDEST SWAP1 POP SWAP2 SWAP1 POP JUMP JUMPDEST PUSH1 0x3 DUP2 LT PUSH2 0x4ECB JUMPI PUSH2 0x4ECA PUSH2 0x4E1F JUMP JUMPDEST JUMPDEST POP JUMP JUMPDEST PUSH1 0x0 DUP2 SWAP1 POP PUSH2 0x4EDC DUP3 PUSH2 0x4EBA JUMP JUMPDEST SWAP2 SWAP1 POP JUMP JUMPDEST PUSH1 0x0 PUSH2 0x4EEC DUP3 PUSH2 0x4ECE JUMP JUMPDEST SWAP1 POP SWAP2 SWAP1 POP JUMP JUMPDEST PUSH1 0x0 DUP2 PUSH1 0xF8 SHL SWAP1 POP SWAP2 SWAP1 POP JUMP JUMPDEST PUSH1 0x0 PUSH2 0x4F0B DUP3 PUSH2 0x4EF3 JUMP JUMPDEST SWAP1 POP SWAP2 SWAP1 POP JUMP JUMPDEST PUSH2 0x4F23 PUSH2 0x4F1E DUP3 PUSH2 0x4EE1 JUMP JUMPDEST PUSH2 0x4F00 JUMP JUMPDEST DUP3 MSTORE POP POP JUMP JUMPDEST PUSH1 0x0 DUP2 SWAP1 POP SWAP2 SWAP1 POP JUMP JUMPDEST PUSH2 0x4F44 PUSH2 0x4F3F DUP3 PUSH2 0x37E5 JUMP JUMPDEST PUSH2 0x4F29 JUMP JUMPDEST DUP3 MSTORE POP POP JUMP JUMPDEST PUSH1 0x0 PUSH2 0x4F56 DUP3 DUP7 PUSH2 0x4A8C JUMP JUMPDEST PUSH1 0x14 DUP3 ADD SWAP2 POP PUSH2 0x4F66 DUP3 DUP6 PUSH2 0x4F12 JUMP JUMPDEST PUSH1 0x1 DUP3 ADD SWAP2 POP PUSH2 0x4F76 DUP3 DUP5 PUSH2 0x4F33 JUMP JUMPDEST PUSH1 0x20 DUP3 ADD SWAP2 POP DUP2 SWAP1 POP SWAP5 SWAP4 POP POP POP POP JUMP JUMPDEST PUSH1 0x0 PUSH1 0x60 DUP3 ADD SWAP1 POP PUSH2 0x4F9C PUSH1 0x0 DUP4 ADD DUP7 PUSH2 0x3C6C JUMP JUMPDEST PUSH2 0x4FA9 PUSH1 0x20 DUP4 ADD DUP6 PUSH2 0x3C6C JUMP JUMPDEST PUSH2 0x4FB6 PUSH1 0x40 DUP4 ADD DUP5 PUSH2 0x4B76 JUMP JUMPDEST SWAP5 SWAP4 POP POP POP POP JUMP JUMPDEST PUSH32 0x4F776E61626C653A206E6577206F776E657220697320746865207A65726F2061 PUSH1 0x0 DUP3 ADD MSTORE PUSH32 0x6464726573730000000000000000000000000000000000000000000000000000 PUSH1 0x20 DUP3 ADD MSTORE POP JUMP JUMPDEST PUSH1 0x0 PUSH2 0x501A PUSH1 0x26 DUP4 PUSH2 0x3E3F JUMP JUMPDEST SWAP2 POP PUSH2 0x5025 DUP3 PUSH2 0x4FBE JUMP JUMPDEST PUSH1 0x40 DUP3 ADD SWAP1 POP SWAP2 SWAP1 POP JUMP JUMPDEST PUSH1 0x0 PUSH1 0x20 DUP3 ADD SWAP1 POP DUP2 DUP2 SUB PUSH1 0x0 DUP4 ADD MSTORE PUSH2 0x5049 DUP2 PUSH2 0x500D JUMP JUMPDEST SWAP1 POP SWAP2 SWAP1 POP JUMP JUMPDEST PUSH1 0x0 DUP2 SWAP1 POP PUSH1 0x20 DUP3 ADD SWAP1 POP SWAP2 SWAP1 POP JUMP JUMPDEST PUSH1 0x0 PUSH32 0xFFFFFFFFFFFFFFFFFFFFFFFFFFFFFFFFFFFFFFFF000000000000000000000000 DUP3 AND SWAP1 POP SWAP2 SWAP1 POP JUMP JUMPDEST PUSH1 0x0 PUSH2 0x5098 DUP3 MLOAD PUSH2 0x5060 JUMP JUMPDEST DUP1 SWAP2 POP POP SWAP2 SWAP1 POP JUMP JUMPDEST PUSH1 0x0 DUP3 DUP3 SHL SWAP1 POP SWAP3 SWAP2 POP POP JUMP JUMPDEST PUSH1 0x0 PUSH2 0x50B9 DUP3 PUSH2 0x385B JUMP JUMPDEST DUP3 PUSH2 0x50C3 DUP5 PUSH2 0x5050 JUMP JUMPDEST SWAP1 POP PUSH2 0x50CE DUP2 PUSH2 0x508C JUMP JUMPDEST SWAP3 POP PUSH1 0x14 DUP3 LT ISZERO PUSH2 0x510E JUMPI PUSH2 0x5109 PUSH32 0xFFFFFFFFFFFFFFFFFFFFFFFFFFFFFFFFFFFFFFFF000000000000000000000000 DUP4 PUSH1 0x14 SUB PUSH1 0x8 MUL PUSH2 0x50A1 JUMP JUMPDEST DUP4 AND SWAP3 POP JUMPDEST POP POP SWAP2 SWAP1 POP JUMP JUMPDEST PUSH1 0x0 PUSH2 0x5121 DUP3 DUP6 PUSH2 0x4F33 JUMP JUMPDEST PUSH1 0x20 DUP3 ADD SWAP2 POP PUSH2 0x5131 DUP3 DUP5 PUSH2 0x4F33 JUMP JUMPDEST PUSH1 0x20 DUP3 ADD SWAP2 POP DUP2 SWAP1 POP SWAP4 SWAP3 POP POP POP JUMP JUMPDEST PUSH32 0x466972737420506C616365204E46547320617265206E6F6E2D7472616E736665 PUSH1 0x0 DUP3 ADD MSTORE PUSH32 0x7261626C65000000000000000000000000000000000000000000000000000000 PUSH1 0x20 DUP3 ADD MSTORE POP JUMP JUMPDEST PUSH1 0x0 PUSH2 0x519D PUSH1 0x25 DUP4 PUSH2 0x3E3F JUMP JUMPDEST SWAP2 POP PUSH2 0x51A8 DUP3 PUSH2 0x5141 JUMP JUMPDEST PUSH1 0x40 DUP3 ADD SWAP1 POP SWAP2 SWAP1 POP JUMP JUMPDEST PUSH1 0x0 PUSH1 0x20 DUP3 ADD SWAP1 POP DUP2 DUP2 SUB PUSH1 0x0 DUP4 ADD MSTORE PUSH2 0x51CC DUP2 PUSH2 0x5190 JUMP JUMPDEST SWAP1 POP SWAP2 SWAP1 POP JUMP JUMPDEST PUSH32 0x4F776E61626C653A2063616C6C6572206973206E6F7420746865206F776E6572 PUSH1 0x0 DUP3 ADD MSTORE POP JUMP JUMPDEST PUSH1 0x0 PUSH2 0x5209 PUSH1 0x20 DUP4 PUSH2 0x3E3F JUMP JUMPDEST SWAP2 POP PUSH2 0x5214 DUP3 PUSH2 0x51D3 JUMP JUMPDEST PUSH1 0x20 DUP3 ADD SWAP1 POP SWAP2 SWAP1 POP JUMP JUMPDEST PUSH1 0x0 PUSH1 0x20 DUP3 ADD SWAP1 POP DUP2 DUP2 SUB PUSH1 0x0 DUP4 ADD MSTORE PUSH2 0x5238 DUP2 PUSH2 0x51FC JUMP JUMPDEST SWAP1 POP SWAP2 SWAP1 POP JUMP JUMPDEST PUSH1 0x0 DUP2 SWAP1 POP DUP2 PUSH1 0x0 MSTORE PUSH1 0x20 PUSH1 0x0 KECCAK256 SWAP1 POP SWAP2 SWAP1 POP JUMP JUMPDEST PUSH1 0x0 PUSH1 0x20 PUSH1 0x1F DUP4 ADD DIV SWAP1 POP SWAP2 SWAP1 POP JUMP JUMPDEST PUSH1 0x0 PUSH1 0x8 DUP4 MUL PUSH2 0x5294 PUSH32 0xFFFFFFFFFFFFFFFFFFFFFFFFFFFFFFFFFFFFFFFFFFFFFFFFFFFFFFFFFFFFFFFF DUP3 PUSH2 0x50A1 JUMP JUMPDEST PUSH2 0x529E DUP7 DUP4 PUSH2 0x50A1 JUMP JUMPDEST SWAP6 POP DUP1 NOT DUP5 AND SWAP4 POP DUP1 DUP7 AND DUP5 OR SWAP3 POP POP POP SWAP4 SWAP3 POP POP POP JUMP JUMPDEST PUSH1 0x0 DUP2 SWAP1 POP SWAP2 SWAP1 POP JUMP JUMPDEST PUSH1 0x0 PUSH2 0x52DB PUSH2 0x52D6 PUSH2 0x52D1 DUP5 PUSH2 0x38EB JUMP JUMPDEST PUSH2 0x52B6 JUMP JUMPDEST PUSH2 0x38EB JUMP JUMPDEST SWAP1 POP SWAP2 SWAP1 POP JUMP JUMPDEST PUSH1 0x0 DUP2 SWAP1 POP SWAP2 SWAP1 POP JUMP JUMPDEST PUSH2 0x52F5 DUP4 PUSH2 0x52C0 JUMP JUMPDEST PUSH2 0x5309 PUSH2 0x5301 DUP3 PUSH2 0x52E2 JUMP JUMPDEST DUP5 DUP5 SLOAD PUSH2 0x5264 JUMP JUMPDEST DUP3 SSTORE POP POP POP POP JUMP JUMPDEST PUSH1 0x0 SWAP1 JUMP JUMPDEST PUSH2 0x531E PUSH2 0x5311 JUMP JUMPDEST PUSH2 0x5329 DUP2 DUP5 DUP5 PUSH2 0x52EC JUMP JUMPDEST POP POP POP JUMP JUMPDEST JUMPDEST DUP2 DUP2 LT ISZERO PUSH2 0x534D JUMPI PUSH2 0x5342 PUSH1 0x0 DUP3 PUSH2 0x5316 JUMP JUMPDEST PUSH1 0x1 DUP2 ADD SWAP1 POP PUSH2 0x532F JUMP JUMPDEST POP POP JUMP JUMPDEST PUSH1 0x1F DUP3 GT ISZERO PUSH2 0x5392 JUMPI PUSH2 0x5363 DUP2 PUSH2 0x523F JUMP JUMPDEST PUSH2 0x536C DUP5 PUSH2 0x5254 JUMP JUMPDEST DUP2 ADD PUSH1 0x20 DUP6 LT ISZERO PUSH2 0x537B JUMPI DUP2 SWAP1 POP JUMPDEST PUSH2 0x538F PUSH2 0x5387 DUP6 PUSH2 0x5254 JUMP JUMPDEST DUP4 ADD DUP3 PUSH2 0x532E JUMP JUMPDEST POP POP JUMPDEST POP POP POP JUMP JUMPDEST PUSH1 0x0 DUP3 DUP3 SHR SWAP1 POP SWAP3 SWAP2 POP POP JUMP JUMPDEST PUSH1 0x0 PUSH2 0x53B5 PUSH1 0x0 NOT DUP5 PUSH1 0x8 MUL PUSH2 0x5397 JUMP JUMPDEST NOT DUP1 DUP4 AND SWAP2 POP POP SWAP3 SWAP2 POP POP JUMP JUMPDEST PUSH1 0x0 PUSH2 0x53CE DUP4 DUP4 PUSH2 0x53A4 JUMP JUMPDEST SWAP2 POP DUP3 PUSH1 0x2 MUL DUP3 OR SWAP1 POP SWAP3 SWAP2 POP POP JUMP JUMPDEST PUSH2 0x53E7 DUP3 PUSH2 0x385B JUMP JUMPDEST PUSH8 0xFFFFFFFFFFFFFFFF DUP2 GT ISZERO PUSH2 0x5400 JUMPI PUSH2 0x53FF PUSH2 0x3924 JUMP JUMPDEST JUMPDEST PUSH2 0x540A DUP3 SLOAD PUSH2 0x4BCF JUMP JUMPDEST PUSH2 0x5415 DUP3 DUP3 DUP6 PUSH2 0x5351 JUMP JUMPDEST PUSH1 0x0 PUSH1 0x20 SWAP1 POP PUSH1 0x1F DUP4 GT PUSH1 0x1 DUP2 EQ PUSH2 0x5448 JUMPI PUSH1 0x0 DUP5 ISZERO PUSH2 0x5436 JUMPI DUP3 DUP8 ADD MLOAD SWAP1 POP JUMPDEST PUSH2 0x5440 DUP6 DUP3 PUSH2 0x53C2 JUMP JUMPDEST DUP7 SSTORE POP PUSH2 0x54A8 JUMP JUMPDEST PUSH1 0x1F NOT DUP5 AND PUSH2 0x5456 DUP7 PUSH2 0x523F JUMP JUMPDEST PUSH1 0x0 JUMPDEST DUP3 DUP2 LT ISZERO PUSH2 0x547E JUMPI DUP5 DUP10 ADD MLOAD DUP3 SSTORE PUSH1 0x1 DUP3 ADD SWAP2 POP PUSH1 0x20 DUP6 ADD SWAP5 POP PUSH1 0x20 DUP2 ADD SWAP1 POP PUSH2 0x5459 JUMP JUMPDEST DUP7 DUP4 LT ISZERO PUSH2 0x549B JUMPI DUP5 DUP10 ADD MLOAD PUSH2 0x5497 PUSH1 0x1F DUP10 AND DUP3 PUSH2 0x53A4 JUMP JUMPDEST DUP4 SSTORE POP JUMPDEST PUSH1 0x1 PUSH1 0x2 DUP9 MUL ADD DUP9 SSTORE POP POP POP JUMPDEST POP POP POP POP POP POP JUMP JUMPDEST PUSH32 0x4E487B7100000000000000000000000000000000000000000000000000000000 PUSH1 0x0 MSTORE PUSH1 0x11 PUSH1 0x4 MSTORE PUSH1 0x24 PUSH1 0x0 REVERT JUMPDEST PUSH1 0x0 PUSH2 0x54EA DUP3 PUSH2 0x38EB JUMP JUMPDEST SWAP2 POP PUSH1 0x0 DUP3 SUB PUSH2 0x54FD JUMPI PUSH2 0x54FC PUSH2 0x54B0 JUMP JUMPDEST JUMPDEST PUSH1 0x1 DUP3 SUB SWAP1 POP SWAP2 SWAP1 POP JUMP JUMPDEST PUSH1 0x0 PUSH1 0x60 DUP3 ADD SWAP1 POP PUSH2 0x551D PUSH1 0x0 DUP4 ADD DUP7 PUSH2 0x3C6C JUMP JUMPDEST PUSH2 0x552A PUSH1 0x20 DUP4 ADD DUP6 PUSH2 0x37BB JUMP JUMPDEST DUP2 DUP2 SUB PUSH1 0x40 DUP4 ADD MSTORE PUSH2 0x553C DUP2 DUP5 PUSH2 0x3890 JUMP JUMPDEST SWAP1 POP SWAP5 SWAP4 POP POP POP POP JUMP JUMPDEST PUSH1 0x0 PUSH1 0xA0 DUP3 ADD SWAP1 POP PUSH2 0x555B PUSH1 0x0 DUP4 ADD DUP9 PUSH2 0x3C6C JUMP JUMPDEST PUSH2 0x5568 PUSH1 0x20 DUP4 ADD DUP8 PUSH2 0x3C6C JUMP JUMPDEST PUSH2 0x5575 PUSH1 0x40 DUP4 ADD DUP7 PUSH2 0x3C6C JUMP JUMPDEST PUSH2 0x5582 PUSH1 0x60 DUP4 ADD DUP6 PUSH2 0x4B76 JUMP JUMPDEST DUP2 DUP2 SUB PUSH1 0x80 DUP4 ADD MSTORE PUSH2 0x5594 DUP2 DUP5 PUSH2 0x3890 JUMP JUMPDEST SWAP1 POP SWAP7 SWAP6 POP POP POP POP POP POP JUMP JUMPDEST PUSH1 0x0 PUSH2 0x55AB DUP3 PUSH2 0x38EB JUMP JUMPDEST SWAP2 POP PUSH32 0xFFFFFFFFFFFFFFFFFFFFFFFFFFFFFFFFFFFFFFFFFFFFFFFFFFFFFFFFFFFFFFFF DUP3 SUB PUSH2 0x55DD JUMPI PUSH2 0x55DC PUSH2 0x54B0 JUMP JUMPDEST JUMPDEST PUSH1 0x1 DUP3 ADD SWAP1 POP SWAP2 SWAP1 POP JUMP JUMPDEST PUSH31 0x6000000000000000000000000000000000000000000000000000000000000 PUSH1 0x0 DUP3 ADD MSTORE POP JUMP JUMPDEST PUSH1 0x0 PUSH2 0x561D PUSH1 0x2 DUP4 PUSH2 0x4D60 JUMP JUMPDEST SWAP2 POP PUSH2 0x5628 DUP3 PUSH2 0x55E8 JUMP JUMPDEST PUSH1 0x2 DUP3 ADD SWAP1 POP SWAP2 SWAP1 POP JUMP JUMPDEST PUSH1 0x0 PUSH2 0x563E DUP3 PUSH2 0x5610 JUMP JUMPDEST SWAP2 POP PUSH2 0x564A DUP3 DUP5 PUSH2 0x4D6B JUMP JUMPDEST SWAP2 POP DUP2 SWAP1 POP SWAP3 SWAP2 POP POP JUMP JUMPDEST PUSH1 0x0 PUSH1 0x40 DUP3 ADD SWAP1 POP PUSH2 0x566A PUSH1 0x0 DUP4 ADD DUP6 PUSH2 0x37BB JUMP JUMPDEST DUP2 DUP2 SUB PUSH1 0x20 DUP4 ADD MSTORE PUSH2 0x567C DUP2 DUP5 PUSH2 0x3890 JUMP JUMPDEST SWAP1 POP SWAP4 SWAP3 POP POP POP JUMP JUMPDEST PUSH1 0x0 PUSH32 0xFFFFFFFFFFFFFFFFFFFF00000000000000000000000000000000000000000000 DUP3 AND SWAP1 POP SWAP2 SWAP1 POP JUMP JUMPDEST PUSH1 0x0 DUP2 SWAP1 POP SWAP2 SWAP1 POP JUMP JUMPDEST PUSH2 0x56CC PUSH2 0x56C7 DUP3 PUSH2 0x5685 JUMP JUMPDEST PUSH2 0x56B1 JUMP JUMPDEST DUP3 MSTORE POP POP JUMP JUMPDEST PUSH1 0x0 PUSH32 0xFFFF000000000000000000000000000000000000000000000000000000000000 DUP3 AND SWAP1 POP SWAP2 SWAP1 POP JUMP JUMPDEST PUSH1 0x0 DUP2 SWAP1 POP SWAP2 SWAP1 POP JUMP JUMPDEST PUSH2 0x5719 PUSH2 0x5714 DUP3 PUSH2 0x56D2 JUMP JUMPDEST PUSH2 0x56FE JUMP JUMPDEST DUP3 MSTORE POP POP JUMP JUMPDEST PUSH1 0x0 DUP2 SWAP1 POP SWAP2 SWAP1 POP JUMP JUMPDEST PUSH2 0x573A PUSH2 0x5735 DUP3 PUSH2 0x5060 JUMP JUMPDEST PUSH2 0x571F JUMP JUMPDEST DUP3 MSTORE POP POP JUMP JUMPDEST PUSH1 0x0 PUSH2 0x574C DUP3 DUP7 PUSH2 0x56BB JUMP JUMPDEST PUSH1 0xA DUP3 ADD SWAP2 POP PUSH2 0x575C DUP3 DUP6 PUSH2 0x5708 JUMP JUMPDEST PUSH1 0x2 DUP3 ADD SWAP2 POP PUSH2 0x576C DUP3 DUP5 PUSH2 0x5729 JUMP JUMPDEST PUSH1 0x14 DUP3 ADD SWAP2 POP DUP2 SWAP1 POP SWAP5 SWAP4 POP POP POP POP JUMP JUMPDEST PUSH1 0x0 PUSH2 0x5789 DUP3 MLOAD PUSH2 0x37E5 JUMP JUMPDEST DUP1 SWAP2 POP POP SWAP2 SWAP1 POP JUMP JUMPDEST PUSH1 0x0 PUSH2 0x579D DUP3 PUSH2 0x385B JUMP JUMPDEST DUP3 PUSH2 0x57A7 DUP5 PUSH2 0x5050 JUMP JUMPDEST SWAP1 POP PUSH2 0x57B2 DUP2 PUSH2 0x577D JUMP JUMPDEST SWAP3 POP PUSH1 0x20 DUP3 LT ISZERO PUSH2 0x57F2 JUMPI PUSH2 0x57ED PUSH32 0xFFFFFFFFFFFFFFFFFFFFFFFFFFFFFFFFFFFFFFFFFFFFFFFFFFFFFFFFFFFFFFFF DUP4 PUSH1 0x20 SUB PUSH1 0x8 MUL PUSH2 0x50A1 JUMP JUMPDEST DUP4 AND SWAP3 POP JUMPDEST POP POP SWAP2 SWAP1 POP JUMP JUMPDEST PUSH1 0x0 PUSH1 0x40 DUP3 ADD SWAP1 POP PUSH2 0x580E PUSH1 0x0 DUP4 ADD DUP6 PUSH2 0x4B76 JUMP JUMPDEST DUP2 DUP2 SUB PUSH1 0x20 DUP4 ADD MSTORE PUSH2 0x5820 DUP2 DUP5 PUSH2 0x3890 JUMP JUMPDEST SWAP1 POP SWAP4 SWAP3 POP POP POP JUMP JUMPDEST PUSH1 0x0 PUSH2 0x583C PUSH2 0x5837 DUP5 PUSH2 0x3EDC JUMP JUMPDEST PUSH2 0x3984 JUMP JUMPDEST SWAP1 POP DUP3 DUP2 MSTORE PUSH1 0x20 DUP2 ADD DUP5 DUP5 DUP5 ADD GT ISZERO PUSH2 0x5858 JUMPI PUSH2 0x5857 PUSH2 0x3ED7 JUMP JUMPDEST JUMPDEST PUSH2 0x5863 DUP5 DUP3 DUP6 PUSH2 0x3866 JUMP JUMPDEST POP SWAP4 SWAP3 POP POP POP JUMP JUMPDEST PUSH1 0x0 DUP3 PUSH1 0x1F DUP4 ADD SLT PUSH2 0x5880 JUMPI PUSH2 0x587F PUSH2 0x391F JUMP JUMPDEST JUMPDEST DUP2 MLOAD PUSH2 0x5890 DUP5 DUP3 PUSH1 0x20 DUP7 ADD PUSH2 0x5829 JUMP JUMPDEST SWAP2 POP POP SWAP3 SWAP2 POP POP JUMP JUMPDEST PUSH1 0x0 PUSH1 0x20 DUP3 DUP5 SUB SLT ISZERO PUSH2 0x58AF JUMPI PUSH2 0x58AE PUSH2 0x3720 JUMP JUMPDEST JUMPDEST PUSH1 0x0 DUP3 ADD MLOAD PUSH8 0xFFFFFFFFFFFFFFFF DUP2 GT ISZERO PUSH2 0x58CD JUMPI PUSH2 0x58CC PUSH2 0x3725 JUMP JUMPDEST JUMPDEST PUSH2 0x58D9 DUP5 DUP3 DUP6 ADD PUSH2 0x586B JUMP JUMPDEST SWAP2 POP POP SWAP3 SWAP2 POP POP JUMP JUMPDEST PUSH1 0x0 PUSH2 0x58ED DUP3 PUSH2 0x38EB JUMP JUMPDEST SWAP2 POP PUSH2 0x58F8 DUP4 PUSH2 0x38EB JUMP JUMPDEST SWAP3 POP DUP3 DUP3 SUB SWAP1 POP DUP2 DUP2 GT ISZERO PUSH2 0x5910 JUMPI PUSH2 0x590F PUSH2 0x54B0 JUMP JUMPDEST JUMPDEST SWAP3 SWAP2 POP POP JUMP JUMPDEST PUSH32 0x4E487B7100000000000000000000000000000000000000000000000000000000 PUSH1 0x0 MSTORE PUSH1 0x31 PUSH1 0x4 MSTORE PUSH1 0x24 PUSH1 0x0 REVERT INVALID LOG2 PUSH5 0x6970667358 0x22 SLT KECCAK256 0xD5 DUP3 PUSH13 0xAF06D073651989EDE571D9EC2C PUSH5 0x56D1151258 GASPRICE 0xA6 0xAC 0x21 0x2F 0xAE BLOCKHASH 0x4E JUMP 0xDF PUSH5 0x736F6C6343 STOP ADDMOD SGT STOP CALLER "},"methodIdentifiers":{"authorizeOperator(address,bytes32,bytes)":"86a10ddd","balanceOf(address)":"70a08231","batchCalls(bytes[])":"6963d438","difficultyMetadataURIs(uint8)":"4fc4289c","getData(bytes32)":"54f6127f","getDataBatch(bytes32[])":"dedff9c6","getDataBatchForTokenIds(bytes32[],bytes32[])":"1d26fce6","getDataForTokenId(bytes32,bytes32)":"16e023b3","getOperatorsOf(bytes32)":"49a6078d","getTokenMetadata(bytes32)":"8d959c24","hasFirstPlaceNFT(address,uint8)":"8f22d853","isOperatorFor(address,bytes32)":"2a3654a4","owner()":"8da5cb5b","renounceOwnership()":"715018a6","revokeOperator(address,bytes32,bool,bytes)":"db8c9663","setData(bytes32,bytes)":"7f23690c","setDataBatch(bytes32[],bytes[])":"97902421","setDataBatchForTokenIds(bytes32[],bytes32[],bytes[])":"be9f0e6f","setDataForTokenId(bytes32,bytes32,bytes)":"d6c1407c","submitScore(uint256,uint8,string)":"cdca9f39","supportsInterface(bytes4)":"01ffc9a7","tokenIdsOf(address)":"a3b261f2","tokenOwnerOf(bytes32)":"217b2270","topScorers(uint8)":"fffc2c94","totalSupply()":"18160ddd","transfer(address,address,bytes32,bool,bytes)":"511b6952","transferBatch(address[],address[],bytes32[],bool[],bytes[])":"7e87632c","transferOwnership(address)":"f2fde38b"}}}}}